:020000040800F2
:100000002808002089010008E5010008E501000832
:10001000E5010008E5010008E50100080000000016
:10002000000000000000000000000000E5010008E2
:10003000E501000800000000E5010008E5010008F6
:10004000E5010008E5010008E5010008E5010008F8
:10005000E5010008E5010008E5010008E5010008E8
:10006000E5010008E5010008E5010008E5010008D8
:10007000E5010008E5010008E5010008E5010008C8
:10008000E5010008E5010008E5010008E5010008B8
:10009000E5010008E5010008E5010008E5010008A8
:1000A000E5010008E5010008E5010008E501000898
:1000B000E5010008E5010008E5010008E501000888
:1000C000E5010008E5010008E5010008E501000878
:1000D000E5010008E5010008E5010008E501000868
:1000E000E5010008E5010008E5010008E501000858
:1000F000E5010008E5010008E5010008E501000848
:10010000E5010008E5010008E5010008E501000837
:10011000E5010008E5010008E5010008E501000827
:10012000E5010008E5010008E5010008E501000817
:10013000E5010008E5010008E5010008E501000807
:10014000E5010008E5010008E5010008E5010008F7
:10015000E5010008E5010008E5010008E5010008E7
:10016000E5010008E5010008E5010008E5010008D7
:10017000E5010008E5010008E5010008E5010008C7
:10018000E5010008E501000880B582B000AF104B22
:100190007B60104B3B6007E03B681A1D3A607A6851
:1001A000111D796012681A603A680B4B9A42F3D3BA
:1001B0000A480B494FF000028842B8BF40F8042BB0
:1001C000FFF6FAAF00F012F80837BD4680BD00BF59
:1001D000B00A0008000000202400002024000020B5
:1001E0002400002080B400AFFEE700BF80B584B0DB
:1001F00000AF00F059FA00F083FA00F037F8082059
:10020000012100F025F94FF470437B6001233B721C
:100210000023BB7203237B720023FB723B1D11483A
:10022000194600F051F90F484FF4704100F0DAF927
:100230000023FB6002E0FB680133FB60FA680A4BB5
:100240009A42F8D907484FF4704100F0D9F90023D9
:10025000FB6002E0FB680133FB60FA68024B9A42E4
:10026000F8D9E0E7000C02403F420F0080B586B0AD
:1002700000AF4FF40010012100F008F90220012125
:1002800000F0E6F84FF410733B6102233B75022344
:100290007B750123BB750123FB7507F1100314481F
:1002A000194600F011F912480621042200F0B6F9AF
:1002B0000F480921042200F0B1F90E4B3B600023E6
:1002C000BB804BF6FF73FB8000233B8100237B81C7
:1002D0004FF48043BB813B460748194600F006FBBC
:1002E0000548012100F0C4FB1837BD4680BD00BFA2
:1002F00000040240A08601000054004080B489B090
:1003000000AF78600023BB6100237B610023FB61A9
:1003100002233B610023FB600223BB60484B9B68C8
:1003200003F00C03BB61BB69042B07D0082B09D079
:10033000002B3FD17B68434A1A603FE07B68424A0A
:100340001A603BE03E4B5B6803F480039B0DFB604F
:100350003B4B5B6803F03F03BB60FB68002B0DD099
:10036000394ABB68B2FBF3F2354B596847F6C073A4
:100370000B409B0903FB02F3FB610CE0314ABB68B5
:10038000B2FBF3F22E4B596847F6C0730B409B0942
:1003900003FB02F3FB612A4B5B6803F440331B0C45
:1003A00001335B003B61FA693B69B2FBF3F27B68A6
:1003B0001A6003E07B68234A1A6000BF204B9B68E9
:1003C00003F0F003BB61BB691B09BB611F4ABB693A
:1003D00013441B78DBB27B617B681A687B69DA4067
:1003E0007B685A60164B9B6803F4E053BB61BB69A2
:1003F0009B0ABB61154ABB6913441B78DBB27B6166
:100400007B685A687B69DA407B689A600C4B9B6812
:1004100003F46043BB61BB695B0BBB610B4ABB6907
:1004200013441B78DBB27B617B685A687B69DA40D6
:100430007B68DA602437BD465DF8047B704700BFF7
:10044000003802400024F40000127A00000000206E
:1004500080B483B000AF78600B46FB70FB78002B54
:1004600006D0094B084A116B7A680A431A6306E002
:10047000054B054A116B7A68D2430A401A630C3760
:10048000BD465DF8047B70470038024080B483B0FD
:1004900000AF78600B46FB70FB78002B06D0094B51
:1004A000084A116C7A680A431A6406E0054B054A4B
:1004B000116C7A68D2430A401A640C37BD465DF865
:1004C000047B70470038024080B487B000AF78608A
:1004D000396000237B6100233B610023FB60002324
:1004E0007B6176E07B69012202FA03F33B613B68A2
:1004F0001A683B691340FB60FA683B699A4265D110
:100500007B681A687B695B00032101FA03F3DB4314
:100510001A407B681A607B681A683B681B79194629
:100520007B695B0001FA03F31A437B681A603B683E
:100530001B79012B03D03B681B79022B2ED17B68E2
:100540009A687B695B00032101FA03F3DB431A40DD
:100550007B689A607B689A683B685B7919467B691F
:100560005B0001FA03F31A437B689A607B685A6860
:100570007B699BB2012101FA03F3DB431A407B68DC
:100580005A607B685A683B689B7919467B699BB2C5
:1005900001FA03F39BB21A437B685A607B68DA68FE
:1005A0007B699BB25B00032101FA03F3DB431A4032
:1005B0007B68DA607B68DA683B68DB7919467B69BF
:1005C0005B0001FA03F31A437B68DA607B6901334D
:1005D0007B617B690F2B85D91C37BD465DF8047B99
:1005E000704700BF80B483B000AF78600B467B805B
:1005F0007B687A881A830C37BD465DF8047B7047A8
:1006000080B483B000AF78600B467B807B687A88CB
:100610005A830C37BD465DF8047B704780B485B0C3
:1006200000AF786013460A467A807B700023FB6037
:100630000023BB607A787B8803F007039B0002FAF3
:1006400003F3FB607B88DB089BB21A467B88DB08E0
:100650009BB219467B68083153F821107B8803F060
:1006600007039B000F2000FA03F3DB4319407B686C
:10067000083243F822107B88DB089BB21A467B685D
:10068000083253F82220FB681343BB607B88DB08E9
:100690009BB21A467B680832B96843F822101437B7
:1006A000BD465DF8047B704780B500AF114B114A21
:1006B000126842F001021A600E4B00229A600D4A45
:1006C0000C4B1B6823F0847323F480331360094BB5
:1006D000094A5A60074B074A126822F480221A60BE
:1006E000044B0022DA6000F087F8044B4FF0006200
:1006F0009A6080BD003802401030002400ED00E018
:1007000080B487B000AF00233B6100237B610223EC
:10071000FB600023BB6002237B60324B9B6803F0CD
:100720000C033B613B69042B07D0082B09D0002B3D
:100730003FD12D4B2D4A1A603FE02B4B2C4A1A60BB
:100740003BE0284B5B6803F480039B0DBB60254BAB
:100750005B6803F03F037B60BB68002B0DD0244A2D
:100760007B68B2FBF3F21F4B596847F6C0730B402E
:100770009B0903FB02F37B610CE01C4A7B68B2FB24
:10078000F3F2184B596847F6C0730B409B0903FB03
:1007900002F37B61134B5B6803F440331B0C0133A2
:1007A0005B00FB607A69FB68B2FBF3F20E4B1A60E8
:1007B00003E00D4B0D4A1A6000BF0A4B9B6803F023
:1007C000F0031B090B4AD35CDBB23B61064B1A6892
:1007D0003B69DA40044B1A601C37BD465DF8047B68
:1007E000704700BF00380240100000200024F400D1
:1007F00000127A001400002080B483B000AF002300
:100800007B6000233B60354B344A126842F48032EF
:100810001A60324B1B6803F400333B607B68013382
:100820007B603B68002B03D17B68B3F5A06FF0D1F0
:100830002A4B1B6803F40033002B02D001233B60DA
:1008400001E000233B603B68012B42D1234B234A4C
:10085000126C42F080521A64214B214A126842F411
:1008600080421A601D4B1D4A92689A601B4B1B4ABE
:10087000926842F400429A60184B184A926842F417
:10088000A0529A60154B174A5A60144B134A1268CB
:1008900042F080721A6000BF104B1B6803F00073B7
:1008A000002BF9D0104B40F205621A600B4B0B4A3B
:1008B000926822F003029A60084B084A926842F05C
:1008C00002029A6000BF054B9B6803F00C03082BE3
:1008D000F9D10C37BD465DF8047B70470038024003
:1008E0000070004008544007003C024080B58AB0C8
:1008F00000AF786039600023FB8400237B840423ED
:10090000BB84574BFB617B689B88FB84FB8C23F08B
:100910003F03FB8407F10C031846FFF7EFFC7B69EC
:10092000FB61FA694F4BA3FB02139B0C7B84FA8C8F
:100930007B8C1343FB847B68FA8C9A807B681B88D2
:100940009BB223F001039AB27B681A800023FB84D8
:100950003B681A68444B9A4215D83B681B685B0099
:10096000FA69B2FBF3F3BB84BB8C032B01D80423DD
:10097000BB84FA8CBB8C1343FB847B8C01339AB20F
:100980007B681A8440E03B68DA884BF6FF739A4232
:1009900009D13B681A6813465B001344FA69B2FB3D
:1009A000F3F3BB840EE03B681A6813469B001344C4
:1009B0009A001344FA69B2FBF3F3BB84BB8C43F493
:1009C0008043BB84BB8CC3F30B03002B03D1BB8CD4
:1009D00043F00103BB84BA8CFB8C13439BB26FEAD8
:1009E00043436FEA5343FB847B8C4FF4967202FBC4
:1009F00003F31E4A82FB03129211DB17D31A9BB238
:100A000001339AB27B681A847B68FA8C9A837B687C
:100A10001B889BB243F001039AB27B681A807B6803
:100A20001B88FB84FB8C23F4816323F00203FB848B
:100A30003B689A883B685B8913439AB2FB8C1343EB
:100A4000FB847B68FA8C1A803B689A893B681B8917
:100A500013439AB27B681A812837BD4680BD00BF18
:100A600000127A0083DE1B43A0860100D34D621082
:100A700080B483B000AF78600B46FB70FB78002B2E
:100A800008D07B681B889BB243F001039AB27B6855
:100A90001A8007E07B681B889BB223F001039AB29F
:100AA0007B681A800C37BD465DF8047B704700BF39
:100AB0000000000001020304010203040607080904
:100AC000007A030A00000000000000000102030495
:040AD0000607080904
:0400000508000000EF
:00000001FF
