:020000040800F2
:10000000980C002089010008E5010008E5010008BE
:10001000E5010008E5010008E50100080000000016
:10002000000000000000000000000000E5010008E2
:10003000E501000800000000E5010008E5010008F6
:10004000E5010008E5010008E5010008E5010008F8
:10005000E5010008E5010008E5010008E5010008E8
:10006000E5010008E5010008E5010008E5010008D8
:10007000E5010008E5010008E5010008E5010008C8
:10008000E5010008E5010008E5010008E5010008B8
:10009000E5010008E5010008E5010008E5010008A8
:1000A000E5010008E5010008E5010008E501000898
:1000B000E5010008E5010008E5010008E501000888
:1000C000E5010008E5010008E5010008E501000878
:1000D000E5010008E5010008E5010008E501000868
:1000E000E5010008E5010008E5010008E501000858
:1000F000E5010008E5010008E5010008E501000848
:10010000E5010008E5010008E5010008E501000837
:10011000E5010008E5010008E5010008E501000827
:10012000E5010008E5010008E5010008E501000817
:10013000E5010008E5010008E5010008E501000807
:10014000E5010008E5010008E5010008E5010008F7
:10015000E5010008E5010008E5010008E5010008E7
:10016000E5010008E5010008E5010008E5010008D7
:10017000E5010008E5010008E5010008E5010008C7
:10018000E5010008E501000880B582B000AF104B22
:100190007B60104B3B6007E03B681A1D3A607A6851
:1001A000111D796012681A603A680B4B9A42F3D3BA
:1001B0000A480B494FF000028842B8BF40F8042BB0
:1001C000FFF6FAAF01F06EFD0837BD4680BD00BFF7
:1001D000944A0008000000205C0400205C04002019
:1001E0009804002080B400AFFEE700BFF0B5ABB0CC
:1001F00002AFF860B9607A603B60D7F8C0004FF09A
:10020000000104F0E5FB0346002B1FD0D7F8C40023
:100210004FF0000104F0DCFB0346002B16D0D7F8AA
:10022000C8004FF0000104F0D3FB0346002B0DD0B3
:10023000D7F8B8300093D7F8BC300193F868B968A4
:100240007A683B6801F040F901F030B9AF4B1B68A8
:1002500083F000431846F96804F026FA03461C466A
:10026000AB4B1B681846B96804F01EFA03462046DB
:10027000194604F00FF903461C46A64B1B681846A6
:10028000796804F011FA03462046194604F002F991
:10029000034618464FF07C5104F006FA0346C7F8AF
:1002A0009C309D4B1B681846F96804F0FDF9034625
:1002B0001C46974B1B681846796804F0F5F903460D
:1002C0002046194604F0E8F803461C46914B1B688B
:1002D0001846B96804F0E8F903462046194604F0C8
:1002E000D9F8034618464FF07C5104F0DDF9034677
:1002F000C7F89830884B1B681846B96804F0D4F9E1
:1003000003461C46814B1B681846796804F0CCF9FB
:1003100003462046194604F0BDF803461C467D4BB3
:100320001B681846F96804F0BFF9034620461946D1
:1003300004F0B2F8034618464FF07C5104F0B4F9CB
:100340000346C7F89430744B1B681846796804F06C
:10035000ABF903461C466D4B1B681846B96804F0A0
:10036000A3F903462046194604F096F803461C46B6
:10037000674B1B681846F96804F096F90346204657
:10038000194604F087F8034618464FF07C5104F0F4
:100390008BF90346C7F8903038684FF0000104F03D
:1003A00017FB0346002B12D0D7F8B8004FF000011E
:1003B00004F00EFB0346002B09D0D7F8BC004FF029
:1003C000000104F005FB0346002B40F0C0873868AD
:1003D000396804F069F903461C46D7F8B800D7F825
:1003E000B81004F061F903462046194604F054F8A9
:1003F00003461C46D7F8BC00D7F8BC1004F054F9EB
:1004000003462046194604F047F80346184601F013
:100410000DFCC7F88C003868D7F88C1004F044F94C
:1004200003463B60D7F8B800D7F88C1004F03CF9CD
:100430000346C7F8B830D7F8BC00D7F88C1004F0E2
:1004400033F90346C7F8BC30D7F8C000D7F8C0105E
:1004500004F02AF903461C46D7F8C400D7F8C410A4
:1004600004F022F903462046194604F015F8034625
:100470001C46D7F8C800D7F8C81004F015F9034691
:100480002046194604F008F80346184601F0CEFB52
:10049000C7F88C00D7F8C000D7F88C1004F004F926
:1004A0000346C7F8C030D7F8C400D7F88C1004F062
:1004B000FBF80346C7F8C430D7F8C800D7F88C104B
:1004C00004F0F2F80346C7F8C830134B1B6818460F
:1004D000194603F0E1FF03461846D7F8C01004F0B0
:1004E000E3F80346C7F888300B4B1B6818461946DB
:1004F00003F0D2FF03461846D7F8C41004F0D4F82E
:100500000346C7F88430044B1B6807E05C040020F6
:1005100060040020640400200400002018461946EE
:1005200003F0BAFF03461846D7F8C81004F0BCF829
:100530000346C7F88030984B1B681846194603F0ED
:10054000ABFF03461846D7F8C01004F0ADF80346D9
:10055000FB67924B1B681846194603F09DFF034644
:10056000BB678D4B1B681846194603F095FF034681
:100570007B678B4B1B681846194603F08DFF0346BB
:100580003B67884B1B681846194603F085FF0346F6
:10059000FB66824B1B681846194603F07DFF034635
:1005A0001A467F4B1B681046194604F07DF8034637
:1005B000BB667B4B1B681846194603F06DFF03466C
:1005C0001A46784B1B681046194604F06DF803462E
:1005D0007B66724B1A68714B1B681046194604F013
:1005E00063F803463B666D4B1A686B4B1B681046FD
:1005F000194604F059F80346FB65684B1A68684BC6
:100600001B681046194604F04FF80346BB65634B60
:100610001A68644B1B681046194604F045F80346F7
:100620007B655D4B1A685C4B1B681046194604F0ED
:100630003BF803463B65584B1A68594B1B681046FC
:10064000194604F031F80346FB64534B1A68554BC6
:100650001B681046194604F027F80346BB64504B4C
:100660001A684F4B1B681046194604F01DF80346E4
:100670007B644B4B1A684B4B1B681046194604F0C1
:1006800013F803463B64474B1A68464B1B681046F9
:10069000194604F009F80346FB63D7F8C000396E29
:1006A00004F002F803461C463E4B1B681846D7F878
:1006B000841003F0F9FF03462046194603F0EAFED2
:1006C00003461C46364B1B681846D7F8801003F0CB
:1006D000EBFF03462046194603F0DEFE03461C46A8
:1006E000D7F8C000396D03F0DFFF034620461946F6
:1006F00003F0D2FE03461C46786FD7F8C41003F00F
:10070000D3FF03461A46264B1B681046194603F0D2
:10071000CBFF03462046194603F0BEFE03461C46A7
:10072000786FD7F8C81003F0BFFF03461A461D4B79
:100730001B681046194603F0B7FF034620461946CA
:1007400003F0AAFE03461C46D7F8C000796C03F0FC
:10075000ABFF03462046194603F09CFE03461C46A9
:10076000D7F8C000F96B03F09FFF034620461946F7
:1007700003F090FE0346BB630A4B1B681846D7F88C
:10078000881003F091FF03461C46D7F8C400396E69
:1007900003F08AFF034607E05C0400200400002009
:1007A00060040020640400202046194603F074FE13
:1007B00003461C46A04B1B681846D7F8801003F070
:1007C00073FF03462046194603F064FE03461C46A9
:1007D0009A4B1B681846F96F03F066FF03462046E4
:1007E000194603F059FE03461C46D7F8C400396D7C
:1007F00003F05AFF03462046194603F04BFE03461A
:100800001C46D7F8C400796C03F04EFF034620461F
:10081000194603F041FE03461C46386FD7F8C8104E
:1008200003F042FF03461A46854B1B6810461946E3
:1008300003F03AFF03462046194603F02DFE034617
:100840001C46D7F8C400F96B03F02EFF0346204680
:10085000194603F01FFE03467B63B86BB96B03F0C8
:1008600023FF03461C46786B796B03F01DFF03469C
:100870002046194603F010FE0346184603F0C8FA56
:1008800002460B461046194602F03AFB02460B465A
:100890001046194603F0AAFD03463B63D7F888309B
:1008A00083F00042654B1B681046194603F0FCFEBE
:1008B00003461C46604B1B681846D7F8841003F0AB
:1008C000F3FE03462046194603F0E6FD03461C46A8
:1008D000D7F8C800396E03F0E7FE034620461946F4
:1008E00003F0DAFD03461C46554B1B681846F96FAA
:1008F00003F0DAFE03462046194603F0CDFD034619
:100900001C46D7F8C800396D03F0CEFE03462046DA
:10091000194603F0BFFD03461C46386FD7F8C410D4
:1009200003F0C2FE03461A46454B1B6810461946A3
:1009300003F0BAFE03462046194603F0ADFD034618
:100940001C46D7F8C800796C03F0AEFE034620467B
:10095000194603F09FFD03461C46D7F8C800F96B03
:1009600003F0A2FE03462046194603F095FD034618
:10097000FB623B6B1846194603F08EFD0346BB62D3
:10098000FB6A1846194603F087FD03467B623B6FFE
:1009900083F00044BB6C1846194603F07DFD034606
:1009A0001846B96E03F076FD03461846396803F021
:1009B00071FD03462046194603F076FE03461C46A9
:1009C000FB6D1846194603F067FD03461846796E1D
:1009D00003F062FD03461846D7F8B81003F05AFD3D
:1009E00003461846796F03F05FFE0346204619461A
:1009F00003F052FD03461C46104B1B681846F96A6B
:100A000003F052FE03461D464FF07C50796C03F014
:100A100041FD03461846F96B03F03CFD03461846BA
:100A2000396B03F041FE03461E46B86CB96D03F006
:100A300031FD0346184605E05C04002060040020F8
:100A400064040020F96A03F02FFE0346304619467D
:100A500003F022FD03461846D7F8C01003F01AFD34
:100A600003462846194603F01FFE03462046194652
:100A700003F010FD03461C463B6B83F000429F4B86
:100A80001B681046194603F00FFE03461D469C4B9B
:100A90001B681846F96A03F007FE03462846194604
:100AA00003F0FAFC03461D46F86C796D03F0F2FC86
:100AB00003461846396B03F0F7FD03461E46F86DF2
:100AC000396C03F0E9FC03461846F96A03F0ECFDC3
:100AD00003463046194603F0DFFC03461846D7F8B4
:100AE000C41003F0D7FC03462846194603F0DCFD8A
:100AF00003462046194603F0CFFC03461C46814BB3
:100B00001B681846396B03F0CFFD03461D46B86DD0
:100B1000B96C03F0C1FC03461846396B03F0C4FD01
:100B200003461E464FF07C50396D03F0B3FC03467C
:100B30001846796C03F0AEFC03461846F96A03F0D8
:100B4000B3FD03463046194603F0A6FC034618469B
:100B5000D7F8C81003F09EFC03462846194603F058
:100B6000A3FD03462046194603F096FC03463B626C
:100B7000BB6C1846194603F08FFC03461846B96E45
:100B800003F088FC03461846396803F083FC0346EB
:100B90001846F96E03F088FD03461C46FB6D1846A7
:100BA000194603F079FC03461846796E03F074FC8D
:100BB00003461846D7F8B81003F06CFC03461846F5
:100BC000B96F03F071FD03462046194603F064FC3B
:100BD00003461C464A4B1B6818464FF0814103F000
:100BE00063FD03461D463B6D1846194603F054FC51
:100BF00003464FF07E50194603F04CFC03461E4658
:100C00007B6C1846194603F047FC034630461946EC
:100C100003F040FC03461846D7F8BC1003F03AFC3A
:100C200003462846194603F03FFD03462046194671
:100C300003F030FC03461C46304B1B681846F96A2B
:100C400003F032FD03461D464FF07C50796C03F0F3
:100C500021FC03461846F96B03F01CFC03461846BA
:100C6000396B03F021FD03461E46B86CB96D03F0E5
:100C700011FC03461846F96A03F016FD0346304698
:100C8000194603F009FC03461846D7F8C01003F0D4
:100C900001FC03462846194603F006FD034620469C
:100CA000194603F0F9FB03461C46164B1B68184611
:100CB000396B03F0F9FC03461D46134B1B681846BD
:100CC000F96A03F0F1FC03462846194603F0E4FBF9
:100CD00003461D46F86C796D03F0DCFB03461846AD
:100CE000396B03F0E1FC03461E46F86D396C03F0E6
:100CF000D3FB03461846F96A08E000BF64040020ED
:100D00005C040020600400200400002003F0CCFC00
:100D100003463046194603F0BFFB03461846D7F892
:100D2000C41003F0B7FB03462846194603F0BCFC89
:100D300003462046194603F0AFFB03461C469F4B73
:100D40001B681846396B03F0AFFC03461D469C4BED
:100D50001B681846796A03F0A7FC03462846194623
:100D600003F098FB03461D46B86DB96C03F094FB85
:100D700003461846396B03F097FC03461E464FF0B6
:100D80007C50396D03F086FB03461846796C03F0FE
:100D900081FB03461846F96A03F086FC0346304699
:100DA000194603F079FB03461846D7F8C81003F03C
:100DB00071FB03462846194603F076FC034620469D
:100DC000194603F069FB0346FB61BB6F83F00044E7
:100DD000BB6C1846194603F05FFB03461846B96E14
:100DE00003F058FB03461846396803F053FB0346EB
:100DF0002046194603F058FC03461C46FB6D184676
:100E0000194603F049FB03461846796E03F044FB8C
:100E100003461846D7F8B81003F03CFB03461846C3
:100E2000F96E03F041FC03462046194603F034FBFB
:100E300003461C46634B1B6818464FF0814103F084
:100E400033FC03461D463B6D1846194603F024FB50
:100E500003464FF07E50194603F01CFB03461E4626
:100E60007B6C1846194603F017FB034630461946BB
:100E700003F010FB03461846D7F8BC1003F00AFB3A
:100E800003462846194603F00FFC03462046194640
:100E900003F000FB03461C46BB6A83F00042494B4B
:100EA0001B681046194603F0FFFB03461D46464BE0
:100EB0001B681846F96A03F0F7FB034628461946F3
:100EC00003F0E8FA03461D464FF07C50796C03F0BE
:100ED000E1FA03461846F96B03F0DCFA03461846BC
:100EE000396B03F0E1FB03461E46B86CB96D03F0A5
:100EF000D1FA03461846F96A03F0D6FB034630469A
:100F0000194603F0C9FA03461846D7F8C01003F093
:100F1000C1FA03462846194603F0C6FB034620469D
:100F2000194603F0B9FA03461C46254B1B681846C0
:100F3000396B03F0B9FB03461D46204B1B6818466E
:100F4000F96A03F0B1FB03462846194603F0A4FAF8
:100F500003461D46F86C796D03F09CFA034618466B
:100F6000396B03F0A1FB03461E46F86D396C03F0A4
:100F700093FA03461846F96A03F096FB0346304697
:100F8000194603F089FA03461846D7F8C41003F04F
:100F900081FA03462846194603F086FB034620469D
:100FA000194603F079FA03461C46074B1B6818469E
:100FB000396B03F079FB03461D4607E0640400200B
:100FC0005C04002060040020040000209F4B1B688C
:100FD0001846796A03F068FB03462846194603F071
:100FE00059FA03461D46B86DB96C03F055FA03462D
:100FF0001846396B03F058FB03461E464FF07C50F1
:10100000396D03F047FA03461846796C03F042FA4B
:1010100003461846F96A03F047FB03463046194673
:1010200003F03AFA03461846D7F8C81003F032FA2C
:1010300003462846194603F037FB03462046194667
:1010400003F02AFA0346BB61BB6C1846194603F04D
:1010500023FA03461846B96E03F01CFA03461846F5
:10106000396803F017FA03461846796F03F01CFB42
:1010700003461C46FB6D1846194603F00DFA03465D
:101080001846796E03F008FA03461846D7F8B810E8
:1010900003F000FA03461846396F03F005FB0346D8
:1010A0002046194603F0F8F903461C46BB6A83F054
:1010B0000042674B1B681046194603F0F5FA0346D9
:1010C0001D46644B1B681846F96A03F0EDFA0346A7
:1010D0002846194603F0E0F903461D464FF07C50C0
:1010E000796C03F0D7F903461846F96B03F0D2F98F
:1010F00003461846396B03F0D7FA03461E46B86C10
:10110000B96D03F0C7F903461846F96A03F0CCFA43
:1011100003463046194603F0BFF903461846D7F890
:10112000C01003F0B7F903462846194603F0BCFA8D
:1011300003462046194603F0AFF903461C463B6BB5
:1011400083F00042444B1B681046194603F0ACFA8A
:1011500003461D463D4B1B681846F96A03F0A4FA86
:1011600003462846194603F097F903461D46F86CD6
:10117000796D03F08FF903461846396B03F094FA42
:1011800003461E46F86D396C03F086F9034618468F
:10119000F96A03F089FA03463046194603F07CF9F0
:1011A00003461846D7F8C41003F074F903462846DE
:1011B000194603F079FA03462046194603F06CF904
:1011C00003461C46234B1B681846396B03F06CFA28
:1011D00003461D46B86DB96C03F05EF90346184628
:1011E000396B03F061FA03461E464FF07C50396DAF
:1011F00003F050F903461846796C03F04BF90346A7
:101200001846F96A03F050FA03463046194603F0CF
:1012100043F903461846D7F8C81003F03BF90346D4
:101220002846194603F040FA03462046194603F0C3
:1012300033F903467B61386A396A03F035FA0346AD
:101240001C46F869F96903F02FFA07E060040020F2
:10125000640400205C0400200400002003462046B3
:10126000194603F019F903461C46B869B96903F039
:101270001BFA03462046194603F00EF903461C46A6
:101280007869796903F010FA03462046194603F09D
:1012900003F90346184600F0C9FCC7F88C00386A09
:1012A000D7F88C1003F000FA03463B62F869D7F8D0
:1012B0008C1003F0F9F90346FB61B869D7F88C107C
:1012C00003F0F2F90346BB617869D7F88C1003F09C
:1012D000EBF903467B61774B1B681846396A03F0CC
:1012E000E3F90346D7F89C00194603F0D3F8034608
:1012F000C7F89C306F4B1B681846F96903F0D4F9A6
:101300000346D7F89800194603F0C4F80346C7F817
:101310009830684B1B681846B96903F0C5F9034655
:10132000D7F89400194603F0B5F80346C7F894308F
:10133000604B1B681846796903F0B6F90346D7F885
:101340009000194603F0A6F80346C7F89030D7F886
:101350009C004FF06C5103F0A7F903461A46564B18
:101360001B681046194603F097F803461A46524B7D
:101370001A60D7F898004FF06C5103F095F90346C6
:101380001A464E4B1B681046194603F085F8034673
:101390001A464A4B1A60D7F894004FF06C5103F08C
:1013A00083F903461A46464B1B681046194603F05C
:1013B00073F803461A46424B1A60D7F890004FF074
:1013C0006C5103F071F903461A463E4B1B681046F8
:1013D000194603F061F803461A463A4B1A60364B39
:1013E0001A68354B1B681046194603F05DF9034631
:1013F0001C46324B1A68314B1B681046194603F0E5
:1014000053F903462046194603F046F803461C46A6
:101410002B4B1A682A4B1B681046194603F044F9F7
:1014200003462046194603F037F803461C46254B71
:101430001A68244B1B681046194603F035F9034619
:101440002046194603F028F80346184600F0EEFB44
:10145000C7F88C00184B1B681846D7F88C1003F09F
:1014600023F903461A46144B1A60144B1B6818469E
:10147000D7F88C1003F018F903461A460F4B1A6080
:101480000F4B1B681846D7F88C1003F00DF9034674
:101490001A460B4B1A600B4B1B681846D7F88C107A
:1014A00003F002F903461A46064B1A60A437BD46FC
:1014B000F0BD00BF00000020040000205C040020FC
:1014C000600400206404002090B59BB000AFF86079
:1014D000B9607A603B609D4B1B6883F000431846FF
:1014E000F96803F0E1F803461C46994B1B6818465F
:1014F000B96803F0D9F803462046194602F0CAFF3E
:1015000003461C46934B1B681846796803F0CCF8D9
:1015100003462046194602F0BDFF034618464FF029
:101520007C5103F0C1F803467B668B4B1B68184661
:10153000F96803F0B9F803461C46854B1B6818464A
:10154000796803F0B1F803462046194602F0A4FF7B
:1015500003461C467F4B1B681846B96803F0A4F885
:1015600003462046194602F095FF034618464FF001
:101570007C5103F099F803463B66774B1B6818468D
:10158000B96803F091F803461C46704B1B68184677
:10159000796803F089F803462046194602F07AFF7D
:1015A00003461C466B4B1B681846F96803F07CF831
:1015B00003462046194602F06FFF034618464FF0D7
:1015C0007C5103F071F80346FB65634B1B681846BA
:1015D000796803F069F803461C465C4B1B681846A3
:1015E000B96803F061F803462046194602F054FF3B
:1015F00003461C46564B1B681846F96803F054F81E
:1016000003462046194602F045FF034618464FF0B0
:101610007C5103F049F80346BB6538684FF0000180
:1016200003F0D6F90346002B10D0B86F4FF000013D
:1016300003F0CEF90346002B08D0F86F4FF00001FD
:1016400003F0C6F90346002B40F03C823868396845
:1016500003F02AF803461C46B86FB96F03F024F86C
:1016600003462046194602F017FF03461C46F86F52
:10167000F96F03F019F803462046194602F00CFFF3
:101680000346184600F0D2FA78653868796D03F0A1
:101690000BF803463B60B86F796D03F005F803461D
:1016A000BB67F86F796D02F0FFFF0346FB672A4BBB
:1016B0001B681846194602F0EFFE03463B65234BB4
:1016C0001B681846194602F0E7FE0346FB64204BF0
:1016D0001B681846194602F0DFFE0346BB641D4B2B
:1016E0001B681846194602F0D7FE03467B641A4B66
:1016F0001B6818464FF0814102F0D6FF03463B6459
:10170000124B1B6818464FF0814102F0CDFF034693
:10171000FB630F4B1B6818464FF0814102F0C4FF7A
:101720000346BB63094B1B6818464FF0824102F029
:10173000BBFF03467B63064B1B6818464FF0824194
:1017400002F0B2FF03463B6308E000BF5C040020E8
:101750006004002064040020040000209A4B1A68F2
:10176000994B1B681046194602F09EFF0346FB6228
:10177000964B1A68954B1B681046194602F094FF69
:101780000346BB62924B1A68914B1B681046194680
:1017900002F08AFF03467B628E4B1A688D4B1B68F2
:1017A0001046194602F080FF03463B62386C796AA6
:1017B00002F07AFF03461C46B86C396802F074FFE9
:1017C00003462046194602F067FE03461C46386C65
:1017D000B96A02F069FF03462046194602F05CFE32
:1017E00003461C46F86CB96F02F05EFF03462046C4
:1017F000194602F04FFE0346FB61F86B396A02F0AE
:1018000053FF03461C46786C396802F04DFF0346CF
:101810002046194602F03EFE03461C46F86A4FF089
:10182000814102F041FF03461A46684B1B6810468F
:10183000194602F039FF03462046194602F02CFEF5
:1018400003461C46386DB96F02F02EFF0346204652
:10185000194602F01FFE03461846F96B02F01AFE05
:1018600003461C46786BB96A02F01EFF0346204609
:10187000194602F011FE03461C46786B796A02F0A5
:1018800013FF03462046194602F006FE03461C4697
:10189000F86BF96F02F008FF03462046194602F084
:1018A000FBFD0346BB61F86A4FF0814102F0FCFE8C
:1018B00003461A46464B1B681046194602F0F4FED2
:1018C00003461C46386D396802F0EEFE034620469A
:1018D000194602F0E1FD03461C46B86B396A02F076
:1018E000E3FE03462046194602F0D6FD03461C4699
:1018F000786CB96F02F0D8FE03462046194602F014
:10190000C9FD03461846B96B02F0C4FD03461C46E8
:10191000386BB96A02F0C8FE03462046194602F049
:10192000BBFD03461C46386B796A02F0BDFE0346D8
:101930002046194602F0B0FD03461C46B86BF96F0D
:1019400002F0B2FE03462046194602F0A5FD03460A
:101950007B61B86A4FF0814102F0A6FE03461A4649
:101960001C4B1B681046194602F09EFE03461C469F
:10197000F86C396802F098FE03462046194602F0DA
:1019800089FD03461C46786A4FF0814102F08CFEC7
:1019900003461A460F4B1B681046194602F084FE98
:1019A00003462046194602F077FD03461C46B86CF4
:1019B000B96F02F079FE03462046194602F06AFD2F
:1019C00003463B6108E000BF040000205C040020E7
:1019D0006004002064040020F869F96902F064FEE4
:1019E00003461C46B869B96902F05EFE034620460C
:1019F000194602F051FD03461C467869796902F0E8
:101A000053FE03462046194602F046FD03461C4697
:101A10003869396902F048FE03462046194602F04B
:101A20003BFD0346184600F001F97865F869796DC9
:101A300002F03AFE0346FB61B869796D02F034FEAC
:101A40000346BB617869796D02F02EFE03467B6127
:101A50003869796D02F028FE03463B616E4B1B68C6
:101A60001846F96902F020FE0346786E194602F026
:101A700011FD03467B66684B1B681846B96902F086
:101A800013FE0346386E194602F004FD03463B661A
:101A9000614B1B681846796902F006FE0346F86D33
:101AA000194602F0F7FC0346FB655B4B1B681846C2
:101AB000396902F0F9FD0346B86D194602F0EAFCF7
:101AC0000346BB65786E4FF06C5102F0EDFD0346A6
:101AD0001A46524B1B681046194602F0DDFC0346BD
:101AE0001A464E4B1A60386E4FF06C5102F0DCFD16
:101AF00003461A464A4B1B681046194602F0CCFCB6
:101B000003461A46464B1A60F86D4FF06C5102F0CE
:101B1000CBFD03461A46434B1B681046194602F09C
:101B2000BBFC03461A463F4B1A60B86D4FF06C5130
:101B300002F0BAFD03461A463B4B1B681046194695
:101B400002F0AAFC03461A46374B1A60334B1A6858
:101B5000324B1B681046194602F0A6FD03461C4690
:101B60002F4B1A682E4B1B681046194602F09CFD3D
:101B700003462046194602F08FFC03461C46294BBB
:101B80001A68284B1B681046194602F08DFD034663
:101B90002046194602F080FC03461C46224B1A6878
:101BA000214B1B681046194602F07EFD0346204675
:101BB000194602F071FC0346184600F037F87865C4
:101BC000164B1B681846796D02F06EFD03461A46E7
:101BD000124B1A60124B1B681846796D02F064FDB7
:101BE00003461A460E4B1A600E4B1B681846796D59
:101BF00002F05AFD03461A460A4B1A600A4B1B684C
:101C00001846796D02F050FD03461A46064B1A60DD
:101C10006C37BD4690BD00BF0000002004000020CE
:101C20005C040020600400206404002080B586B0BD
:101C300000AF786078684FF07C5102F035FD0346C4
:101C40007B617B683B6107F110031B68FB60FB68ED
:101C50005A10134B9B1AFB6007F10C031B683B6186
:101C60003B691846796902F01FFD03461A463B6935
:101C70001046194602F018FD03464FF07F501946F2
:101C800002F008FC03461A463B691046194602F06A
:101C90000BFD03463B613B6918461837BD4680BDC6
:101CA000DF59375F2DE9F04F8FB006AF00F0CEFD62
:101CB00000F0F8FD00F0C8F90820012100F09AFCBE
:101CC0004FF47043BB6001233B730023BB730323BA
:101CD0007B730023FB7307F108032548194600F0C6
:101CE000C5FC2448D221002200F0F4F9214820212B
:101CF00000F034FA1F480F2100F030FA1D4800F0C0
:101D000081FA1C483021002200F0E4F91948202112
:101D100000F024FA1748272100F020FA154800F0B7
:101D200071FA14483C21002200F0D4F91148022134
:101D300000F014FA0F48002100F010FA0D4800F0EE
:101D400061FA0B484FF4704100F01EFD0023FB6167
:101D500002E0FB690133FB61FA69074B9A42F8D94B
:101D600003484FF4704100F01DFD0023FB6108E0C3
:101D7000000C0240005400403F420F00FB69013359
:101D8000FB61FA699B4B9A42F8D900F047FA00F0E0
:101D9000A1FA00F003FB984B1B68184602F030FCD8
:101DA0000346184600F056FB8046944B1B681846C5
:101DB00002F026FC0346184600F04CFB0646904B0A
:101DC0001B68184602F01CFC0346184600F042FB54
:101DD00005468C4B1B68184602F012FC04468A4BE1
:101DE0001B68184602F00CFC7860884B1B6818468C
:101DF00002F006FC8346864B1B68184602F000FC86
:101E00008246844B1B68184602F0FAFB8146824BDF
:101E10001B68184602F0F4FB03467A680092CDF87E
:101E200004B0CDF808A0CDF80C900493404631469C
:101E30002A462346FEF7DAF9784B1A68774B1B6877
:101E40001046194602F030FC0346BB61744B1A6819
:101E5000734B1B681046194602F026FC03467B6153
:101E6000704B1A686F4B1B681046194602F01CFC39
:101E700003463B616A4B1A686A4B1B681046194659
:101E800002F012FC03461C46674B1A68634B1B6842
:101E90001046194602F008FC03462046194602F097
:101EA000FBFA03461846194602F0F6FA03461846AE
:101EB00001F0AEFF04460D46B869796902F0ECFA0C
:101EC00003461846194602F0E7FA03464FF07E50E3
:101ED000194602F0DFFA0346184601F099FF024660
:101EE0000B462046294601F009F802460B461046EB
:101EF000194602F07BFA0346184600F0BBFA024688
:101F00004A4B1A60454B1A68464B1B6810461946E7
:101F100002F0CAFB03461C46434B1A68404B1B6841
:101F20001046194602F0C0FB03462046194602F04F
:101F3000B1FA03461846194602F0AEFA03461846AF
:101F400001F066FF02460B461046194600F082FF7C
:101F500002460B461046194602F048FA034683F043
:101F60000043184600F086FA0246314B1A602B4BAC
:101F70001A682B4B1B681046194602F095FB034666
:101F80001C46294B1A68274B1B681046194602F05D
:101F90008BFB03462046194602F07EFA034618469C
:101FA000194602F079FA0346184601F031FF04465B
:101FB0000D467869396902F06FFA034618461946EA
:101FC00002F06AFA03464FF07E50194602F062FAB8
:101FD0000346184601F01CFF02460B4620462946E0
:101FE00000F08CFF02460B461046194602F0FEF93F
:101FF00020E000BF3F420F00880400206C04002056
:10200000800400207C0400208C0400207004002048
:102010009004002074040020840400205C0400204C
:1020200060040020640400200400002078040020E4
:10203000940400200346184600F01CFA0246014BA7
:102040001A607EE66804002080B586B000AF4FF4C9
:102050000010012100F0ECFA0220012100F0CAFA80
:10206000C0233B6102233B7502237B750123BB75B3
:102070000123FB7507F110031348194600F0F6FA27
:1020800011480621042200F09BFB0F48072104227F
:1020900000F096FB0D4B3B600023BB804BF6FF73BB
:1020A000FB8000233B8100237B814FF48043BB8175
:1020B0003B460748194600F0EBFC0548012100F0BB
:1020C000A9FD1837BD4680BD00040240A08601006E
:1020D0000054004080B582B000AF786013460A46D5
:1020E000FA70BB7000BF78684FF4003100F07EFEDC
:1020F0000346002BF7D17868012100F0ABFD00BF4B
:102100007868134900F042FE0346002BF8D0FA78B5
:10211000BB78786811461A4600F0DCFDBB78002BCE
:1021200008D100BF78680B4900F030FE0346002B51
:10213000F8D00AE0BB78012B07D100BF78680649C8
:1021400000F024FE0346002BF8D00837BD4680BDC2
:1021500001000300820007000200030080B582B086
:1021600000AF78600B46FB70FB787868194600F08A
:10217000EFFD00BF7868044900F008FE0346002B1D
:10218000F8D00837BD4680BD8000070080B584B018
:1021900000AF78607868012100F0BAFD00BF786870
:1021A000074900F0F3FD0346002BF8D0786800F0F3
:1021B000DFFD0346FB73FB7B18461037BD4680BD31
:1021C0004000030080B584B000AF786078680021DB
:1021D00000F09EFD7868012100F05CFD00BF78688A
:1021E000074900F0D3FD0346002BF8D0786800F0D3
:1021F000BFFD0346FB73FB7B18461037BD4680BD11
:102200004000030080B582B000AF7860786801219B
:1022100000F040FD0837BD4680BD00BF80B582B0EC
:1022200000AF2848D2210022FFF754FF2548A821FB
:10223000FFF794FF2348FFF7E5FF2248D221012250
:10224000FFF748FF1F48FFF7A1FF0346FB711D483A
:10225000FFF79CFF0346BB711A48FFF797FF034641
:102260007B711848FFF792FF03463B711548FFF753
:102270008DFF0346FB701348FFF7A4FF0346BB70B6
:10228000BB791B029AB2FB799BB213439BB21AB281
:102290000D4B1A603B791B029AB27B799BB21343B8
:1022A0009BB21AB2094B1A60BB781B029AB2FB7838
:1022B0009BB213439BB21AB2054B1A600837BD4656
:1022C00080BD00BF00540040880400206C04002042
:1022D0008004002080B582B000AF2C48302100225D
:1022E000FFF7F8FE2948A821FFF738FF2748FFF736
:1022F00089FF264830210122FFF7ECFE2348FFF733
:1023000045FF0346FB712148FFF740FF0346BB71C1
:102310001E48FFF73BFF03467B711C48FFF736FF63
:1023200003463B711948FFF731FF0346FB7017481E
:10233000FFF748FF0346BB70BB791B029AB2FB79DB
:102340009BB213439BB21BB21B119BB21AB2104B30
:102350001A603B791B029AB27B799BB213439BB202
:102360001BB21B119BB21AB20A4B1A60BB781B023C
:102370009AB2FB789BB213439BB21BB21B119BB268
:102380001AB2054B1A600837BD4680BD00540040A4
:102390007C0400208C0400207004002080B582B0F2
:1023A00000AF28483C210022FFF794FE2548032176
:1023B000FFF7D4FE2348FFF725FF22483C210122E6
:1023C000FFF788FE1F48FFF7E1FE0346FB711D483B
:1023D000FFF7DCFE0346BB711A48FFF7D7FE034642
:1023E0007B711848FFF7D2FE03463B711548FFF793
:1023F000CDFE0346FB701348FFF7E4FE0346BB70B7
:10240000FB791B029AB2BB799BB213439BB21AB2FF
:102410000D4B1A60FB781B029AB2BB789BB2134338
:102420009BB21AB2094B1A607B791B029AB23B79B4
:102430009BB213439BB21AB2054B1A600837BD46D4
:1024400080BD00BF005400409004002074040020B0
:102450008404002080B582B000AF786078680449B9
:1024600002F022F9034618460837BD4680BD00BF7A
:1024700035FA8E3C80B582B000AF78607868064946
:1024800002F012F903461846044902F0C1F9034666
:1024900018460837BD4680BD00003443DB0F494075
:1024A00080B489B000AF78600023BB6100237B61FA
:1024B0000023FB6102233B610023FB600223BB601E
:1024C000484B9B6803F00C03BB61BB69042B07D02E
:1024D000082B09D0002B3FD17B68434A1A603FE0AC
:1024E0007B68424A1A603BE03E4B5B6803F4800322
:1024F0009B0DFB603B4B5B6803F03F03BB60FB68DD
:10250000002B0DD0394ABB68B2FBF3F2354B59684A
:1025100047F6C0730B409B0903FB02F3FB610CE021
:10252000314ABB68B2FBF3F22E4B596847F6C073D1
:102530000B409B0903FB02F3FB612A4B5B6803F42E
:1025400040331B0C01335B003B61FA693B69B2FB12
:10255000F3F27B681A6003E07B68234A1A6000BFCD
:10256000204B9B6803F0F003BB61BB691B09BB6197
:102570001F4ABB6913441B78DBB27B617B681A6816
:102580007B69DA407B685A60164B9B6803F4E05322
:10259000BB61BB699B0ABB61154ABB6913441B78CD
:1025A000DBB27B617B685A687B69DA407B689A6042
:1025B0000C4B9B6803F46043BB61BB695B0BBB6165
:1025C0000B4ABB6913441B78DBB27B617B685A689A
:1025D0007B69DA407B68DA602437BD465DF8047BAE
:1025E000704700BF003802400024F40000127A0057
:1025F0000800002080B483B000AF78600B46FB7009
:10260000FB78002B06D0094B084A116B7A680A4305
:102610001A6306E0054B054A116B7A68D2430A40FB
:102620001A630C37BD465DF8047B704700380240E2
:1026300080B483B000AF78600B46FB70FB78002B52
:1026400006D0094B084A116C7A680A431A6406E0FE
:10265000054B054A116C7A68D2430A401A640C375C
:10266000BD465DF8047B70470038024080B487B0F7
:1026700000AF7860396000237B6100233B61002359
:10268000FB6000237B6176E07B69012202FA03F3A1
:102690003B613B681A683B691340FB60FA683B6921
:1026A0009A4265D17B681A687B695B00032101FA55
:1026B00003F3DB431A407B681A607B681A683B6847
:1026C0001B7919467B695B0001FA03F31A437B68A7
:1026D0001A603B681B79012B03D03B681B79022BE6
:1026E0002ED17B689A687B695B00032101FA03F3B2
:1026F000DB431A407B689A607B689A683B685B7929
:1027000019467B695B0001FA03F31A437B689A6000
:102710007B685A687B699BB2012101FA03F3DB43B2
:102720001A407B685A607B685A683B689B791946F7
:102730007B699BB201FA03F39BB21A437B685A6030
:102740007B68DA687B699BB25B00032101FA03F3C3
:10275000DB431A407B68DA607B68DA683B68DB79C8
:1027600019467B695B0001FA03F31A437B68DA6060
:102770007B6901337B617B690F2B85D91C37BD4693
:102780005DF8047B704700BF80B483B000AF786011
:102790000B467B807B687A881A830C37BD465DF8D0
:1027A000047B704780B483B000AF78600B467B80B9
:1027B0007B687A885A830C37BD465DF8047B704786
:1027C00080B485B000AF786013460A467A807B708B
:1027D0000023FB600023BB607A787B8803F007034B
:1027E0009B0002FA03F3FB607B88DB089BB21A466E
:1027F0007B88DB089BB219467B68083153F82110AF
:102800007B8803F007039B000F2000FA03F3DB43F0
:1028100019407B68083243F822107B88DB089BB2A2
:102820001A467B68083253F82220FB681343BB60CA
:102830007B88DB089BB21A467B680832B96843F88C
:1028400022101437BD465DF8047B704780B500AF99
:10285000114B114A126842F001021A600E4B00221D
:102860009A600D4A0C4B1B6823F0847323F4803369
:102870001360094B094A5A60074B074A126822F451
:1028800080221A60044B0022DA6000F087F8044BC3
:102890004FF000629A6080BD003802401030002482
:1028A00000ED00E080B487B000AF00233B6100235F
:1028B0007B610223FB600023BB6002237B60324B01
:1028C0009B6803F00C033B613B69042B07D0082B8A
:1028D00009D0002B3FD12D4B2D4A1A603FE02B4BE6
:1028E0002C4A1A603BE0284B5B6803F480039B0D85
:1028F000BB60254B5B6803F03F037B60BB68002B2C
:102900000DD0244A7B68B2FBF3F21F4B596847F69F
:10291000C0730B409B0903FB02F37B610CE01C4A74
:102920007B68B2FBF3F2184B596847F6C0730B4053
:102930009B0903FB02F37B61134B5B6803F4403399
:102940001B0C01335B00FB607A69FB68B2FBF3F29E
:102950000E4B1A6003E00D4B0D4A1A6000BF0A4B84
:102960009B6803F0F0031B090B4AD35CDBB23B61AD
:10297000064B1A683B69DA40044B1A601C37BD46A7
:102980005DF8047B704700BF00380240180000204B
:102990000024F40000127A001C00002080B483B0F0
:1029A00000AF00237B6000233B60354B344A126844
:1029B00042F480321A60324B1B6803F400333B60F0
:1029C0007B6801337B603B68002B03D17B68B3F5E8
:1029D000A06FF0D12A4B1B6803F40033002B02D008
:1029E00001233B6001E000233B603B68012B42D1A7
:1029F000234B234A126C42F080521A64214B214A25
:102A0000126842F480421A601D4B1D4A92689A6017
:102A10001B4B1B4A926842F400429A60184B184ABA
:102A2000926842F4A0529A60154B174A5A60144BB0
:102A3000134A126842F080721A6000BF104B1B6884
:102A400003F00073002BF9D0104B40F205621A60BE
:102A50000B4B0B4A926822F003029A60084B084A1B
:102A6000926842F002029A6000BF054B9B6803F037
:102A70000C03082BF9D10C37BD465DF8047B704779
:102A8000003802400070004008544007003C0240FB
:102A900080B58AB000AF786039600023FB840023E2
:102AA0007B840423BB84574BFB617B689B88FB843E
:102AB000FB8C23F03F03FB8407F10C031846FFF760
:102AC000EFFC7B69FB61FA694F4BA3FB02139B0C84
:102AD0007B84FA8C7B8C1343FB847B68FA8C9A8012
:102AE0007B681B889BB223F001039AB27B681A8033
:102AF0000023FB843B681A68444B9A4215D83B6814
:102B00001B685B00FA69B2FBF3F3BB84BB8C032B3D
:102B100001D80423BB84FA8CBB8C1343FB847B8CCD
:102B200001339AB27B681A8440E03B68DA884BF63E
:102B3000FF739A4209D13B681A6813465B0013443D
:102B4000FA69B2FBF3F3BB840EE03B681A681346E4
:102B50009B0013449A001344FA69B2FBF3F3BB845D
:102B6000BB8C43F48043BB84BB8CC3F30B03002BAF
:102B700003D1BB8C43F00103BB84BA8CFB8C1343A1
:102B80009BB26FEA43436FEA5343FB847B8C4FF461
:102B9000967202FB03F31E4A82FB03129211DB17AB
:102BA000D31A9BB201339AB27B681A847B68FA8C81
:102BB0009A837B681B889BB243F001039AB27B68BF
:102BC0001A807B681B88FB84FB8C23F4816323F0D1
:102BD0000203FB843B689A883B685B8913439AB283
:102BE000FB8C1343FB847B68FA8C1A803B689A89C0
:102BF0003B681B8913439AB27B681A812837BD460C
:102C000080BD00BF00127A0083DE1B43A086010056
:102C1000D34D621080B483B000AF78600B46FB7078
:102C2000FB78002B08D07B681B889BB243F0010324
:102C30009AB27B681A8007E07B681B889BB223F0FE
:102C400001039AB27B681A800C37BD465DF8047B9D
:102C5000704700BF80B483B000AF78600B46FB7054
:102C6000FB78002B08D07B681B889BB243F48073F1
:102C70009AB27B681A8007E07B681B889BB223F4BA
:102C800080739AB27B681A800C37BD465DF8047B6E
:102C9000704700BF80B483B000AF78600B46FB7014
:102CA000FB78002B08D07B681B889BB243F4007331
:102CB0009AB27B681A8007E07B681B889BB223F47A
:102CC00000739AB27B681A800C37BD465DF8047BAE
:102CD000704700BF80B483B000AF786013460A46E7
:102CE000FA70BB70BB78002B04D0FB7843F0010373
:102CF000FB7003E0FB7823F00103FB70FB789AB2D2
:102D00007B681A820C37BD465DF8047B704700BFB4
:102D100080B483B000AF78600B46FB70FB78002B6B
:102D200008D07B681B889BB243F480639AB27B68AF
:102D30001A8007E07B681B889BB223F480639AB2F9
:102D40007B681A800C37BD465DF8047B704700BF76
:102D500080B483B000AF78600B46FB70FB789AB20A
:102D60007B681A820C37BD465DF8047B704700BF54
:102D700080B483B000AF78607B681B8A9BB2DBB203
:102D800018460C37BD465DF8047B704780B487B0A9
:102D900000AF7860396000233B610023FB600023B3
:102DA000BB600023FB757B689B8A9BB2FB607B68E2
:102DB0001B8B9BB2BB60BB681B04BB60FA68BB6823
:102DC000134323F07F433B613A693B681A403B68F9
:102DD0009A4202D10123FB7501E00023FB75FB7DC4
:102DE00018461C37BD465DF8047B704780B487B039
:102DF00000AF786039600023FB7500233B6100233E
:102E0000FB607B68FB603B681B0F3B613B6823F00A
:102E10007F433B603B69002B03D0FB681433FB60AE
:102E200005E03B681B0C3B60FB681833FB60FB68EC
:102E30001A683B681340002B02D00123FB7501E0A8
:102E40000023FB75FB7D18461C37BD465DF8047BEF
:102E5000704700BF2DE9F041DFF89C808AB004463E
:102E60000D4600F0A5F898F90030013306460F46EC
:102E700004D02046294600F037FE20B930463946B6
:102E80000AB0BDE8F0812046294600F029FE002264
:102E9000164B01F0A1FA0028F0D00123144A009348
:102EA0001448019200230893CDE90445CDE9024579
:102EB00000F044FE98F90030022BCDE906010AD05B
:102EC000684600F039FE30B1089B4BB9DDE90601D8
:102ED0000AB0BDE8F08101F0ADFD21230360F3E706
:102EE00001F0A8FD089B0360F0E700BF0000F03F81
:102EF000404A0008444A00082C00002000F090BA24
:102F00002DE9F047DFF8A0A08AB004460D4600F096
:102F10007FFB9AF90030013306460F460FD020465A
:102F2000294600F0E1FD50B14FF000084FF00009D4
:102F300042464B462046294601F030FA20B9304639
:102F400039460AB0BDE8F087164B9AF80060019345
:102F500001220023CDE90445CDE902450092089302
:102F600066B9CDE90689684600F0E6FD80B1089BA8
:102F70009BB9DDE906010AB0BDE8F0874046494645
:102F800042464B4601F0C2F8022ECDE90601EAD1D5
:102F900001F050FD21230360E9E701F04BFD089BA0
:102FA0000360E6E7484A00082C000020000000000B
:102FB0002DE9F04FAE4B21F00048984587B004460C
:102FC0000D460F4611DD08F1404808F5801858EA13
:102FD000000820D002460B4600F0BAFD02460B4620
:102FE00001F094F807B0BDE8F08FA24B984529DCBA
:102FF000B8F1795F80F2698181A3D3E9002300F001
:10300000A9FD00229C4B01F0E7F9D8B120462946E2
:1030100007B0BDE8F08F7CA3D3E9002300F04CFF9C
:103020007BA3D3E9002306460F462046294600F03D
:1030300043FF02460B463046394600F08BFD07B091
:10304000BDE8F08F2046294600F04AFD02460B46B7
:103050000020894900F07CFD0022884B00F02CFF05
:103060006DA3D3E9002304460D4600F025FF6CA3B1
:10307000D3E9002300F06EFD22462B4600F01CFF32
:1030800069A3D3E9002300F063FD22462B4600F03C
:1030900013FF67A3D3E9002300F05CFD22462B4613
:1030A00000F00AFF64A3D3E9002300F051FD22469B
:1030B0002B4600F001FF62A3D3E9002300F04AFD94
:1030C00022462B4600F0F8FE5FA3D3E90023CDE9AA
:1030D00000012046294600F0EFFE5DA3D3E900235E
:1030E00000F036FD22462B4600F0E6FE5AA3D3E957
:1030F000002300F02FFD22462B4600F0DDFE58A3F2
:10310000D3E9002300F024FD22462B4600F0D4FE34
:10311000594B002200F01EFDCDE902012046294650
:1031200000F076FA564B984582468B4600F3AA800B
:1031300002460B4600F00EFDDDE90223CDE9040155
:10314000DDE9000100F0E2FF02460B46DDE9040183
:1031500000F0B2FE4FF00008CDE9000142465B46A8
:103160004046594600F0A8FE02460B462046294636
:1031700000F0EEFC424604460D465B46504659467A
:1031800000F0E8FC02460B462046294600F0BEFF50
:1031900002460B4600F0DEFC02460B461CA1D1E9BC
:1031A000000100F0D5FC02460B46DDE9000100F00D
:1031B000CFFC424604460D465B464046594600F069
:1031C000C9FC02460B4628A1D1E9000100F0C0FC71
:1031D00002460B462046294600F0BAFC02460B4642
:1031E00021A1D1E9000100F0B3FC02460B46002FFB
:1031F00040F3DE801046194607B0BDE8F08F00BFEF
:103200009C7500883CE4377E182D4454FB21F93F1F
:10321000075C143326A6913C09F7FD0DE13D023F02
:1032200088B20175E0EF493F3B8F68B52882A43F23
:103230005544880E55C1C93F7D6FEB0312D6D43F6C
:10324000555555555555C53F82922EB1C5B8B33F1A
:1032500059018D1B6C06E63FC88A599CE52A00403F
:103260004B2D8A1C273A0340182D4454FB21E93F7B
:10327000FFFFEF3FFFFFDF3F0000F03F0000E03FB8
:103280003233EF3FDDE90223DDE9000100F03EFFCC
:1032900002460B465046594600F00EFE52465B462B
:1032A00000F058FC02460B4600F054FC42A3D3E960
:1032B000002300F04DFC02460B4641A1D1E900017C
:1032C00000F046FC02460B4691E702460B4600F032
:1032D000F3FD3DA3D3E9002306460F4600F0ECFDC5
:1032E0003BA3D3E9002300F035FC32463B4600F017
:1032F000E3FD39A3D3E9002300F02AFC32463B4624
:1033000000F0DAFD36A3D3E9002300F023FC3246B7
:103310003B4600F0D1FD34A3D3E9002300F018FCB4
:1033200032463B4600F0C8FD31A3D3E9002300F04C
:1033300011FC32463B4600F0BFFD2FA3D3E900232A
:10334000804689463046394600F0B6FD2CA3D3E9C5
:10335000002300F0FDFB32463B4600F0ADFD2AA302
:10336000D3E9002300F0F6FB32463B4600F0A4FD13
:1033700027A3D3E9002300F0EBFB32463B4600F0E5
:103380009BFD0022244B00F0E5FB02460B46404625
:10339000494600F0BBFE02460B462046294600F097
:1033A0008BFD22462B4600F0D5FB07B0BDE8F08F21
:1033B000104603F1004115E6075C143326A6913C44
:1033C000182D4454FB21F93F09F7FD0DE13D023F63
:1033D00088B20175E0EF493F3B8F68B52882A43F72
:1033E0005544880E55C1C93F7D6FEB0312D6D43FBB
:1033F000555555555555C53F82922EB1C5B8B33F69
:1034000059018D1B6C06E63FC88A599CE52A00408D
:103410004B2D8A1C273A03400000F03FAFF3008099
:103420002DE9F047C2F1000949EA020923F00048FA
:10343000DFF8D4C148EAD97982B0E14514461D4687
:10344000CDE900010F4647D8C0F1000A4AEA000A58
:1034500021F0004949EADA7AE2453DD803F1404CCF
:103460000CF5801C5CEA020C4CD04FEAA37A0AF0FF
:10347000020A4AEAD17A59EA000136D058EA040130
:103480003AD06149884551D05F49894534D0C8EB6D
:1034900009084FEA2858B8F13C0F43DC002D70DBD7
:1034A000DDE9000100F032FE00F01AFB00F070F9D7
:1034B000BAF1010F62D0BAF1020F52D0BAF1000F87
:1034C00010D03FA3D3E9002300F042FB3EA3D3E991
:1034D000002300F03DFB05E010461946DDE900231E
:1034E00000F038FB02B0BDE8F087BAF1030FC5D891
:1034F000DFE80AF00D0D1410002F2EDB34A1D1E906
:103500000001EFE702B0BDE8F04700F041B9DDE9A6
:103510000001E7E730A1D1E90001E3E72AA1D1E901
:103520000001DFE72AA1D1E90001C1E7C1452ED0A2
:10353000BAF1030FA8D801A151F82AF055350008B7
:103540004D3500081D3500081535000800204FF0E6
:103550000041C7E700200021C4E721A1D1E9000113
:10356000C0E717A3D3E9002300F0F2FA02460B46A6
:1035700015A1D1E9000100F0EBFAB3E701F1004138
:10358000B0E718F13C0F8BDA0020002190E7BAF188
:10359000030FB1D8DFE80AF006020E0A12A1D1E942
:1035A00000019FE712A1D1E900019BE712A1D1E937
:1035B000000197E712A1D1E9000193E7AFF3008082
:1035C000075C143326A6A13C182D4454FB21094066
:1035D000182D4454FB21F93F182D4454FB2109C0F8
:1035E000182D4454FB21F9BF182D4454FB21E9BF89
:1035F000182D4454FB21E93FD221337F7CD902C0EE
:10360000D221337F7CD902400000F07FAFF30080ED
:1036100021F0004C2DE9F8434FEA1C5CDFF86C8187
:103620004FEA0C5CC44506460F460B46024600F0C6
:103630008F8000296FDD0F1578D0A7F2FF37C3F315
:103640001303F90743F4801360D4D10F4FF0000C3B
:1036500001EB43037F105200654616204FF4001122
:103660006C189C424FEAD2764FEA420202DC1B1BE6
:1036700065188C44013806EB43034FEA5101EFD142
:10368000804620264FF0004109E023D0D40F013EB0
:103690004FEA510104EB43034FEA42021ED0AB4212
:1036A00001EB0804F1DD04F00049B9F1004F04EB2F
:1036B000010809D0A9465B1B944288BF03F1FF3380
:1036C000121B08444D46E1E7B8F1000FF2DB05F1AB
:1036D0000109F0E79442E6D91D46D7E71A4304D022
:1036E000431C41D000F00103184446084FEA6C0324
:1036F0001CF0010F03F17F5303F5001318BF46F0D0
:10370000004603EB07513046BDE8F883D10F01EBCB
:103710004303520099E721F00043034322D051BBF9
:103720000F46D30A153F5205002BFAD013F480112F
:103730001DD15B00D80201F10101FAD5C1F10100F0
:10374000C1F1200422FA04F4234307448A4074E7B9
:1037500002460B4600F0B0FB32463B4600F0FAF959
:10376000BDE8F883BDE8F8830CF1010CBEE7202426
:1037700001200021E6E702460B4600F0E9F9024687
:103780000B4600F0C3FCBDE8F88300BF0000F07FEB
:103790002DE9F04FB64B21F000469E4283B004461F
:1037A0000D4689460FDDB3498E4200F3B38000F029
:1037B000AE80B9F1000F40F3EF8091A1D1E9000193
:1037C00003B0BDE8F08FAC4B9E4200F3BD80A3F187
:1037D000DE739E4240F3A7804FF0FF3C22462B460B
:1037E00020462946CDF804C000F066FB02460B4691
:1037F00082468B4600F060FB83A3D3E90023064694
:103800000F4600F059FB82A3D3E9002300F0A2F990
:1038100032463B4600F050FB7FA3D3E9002300F083
:1038200099F932463B4600F047FB7DA3D3E90023DC
:1038300000F090F932463B4600F03EFB7AA3D3E914
:10384000002300F087F932463B4600F035FB78A3B1
:10385000D3E9002300F07EF952465B4600F02CFBD2
:1038600075A3D3E9002382468B463046394600F0E3
:1038700023FB73A3D3E9002300F06AF932463B46E9
:1038800000F01AFB70A3D3E9002300F061F932467F
:103890003B4600F011FB6EA3D3E9002300F058F97A
:1038A00032463B4600F008FB6BA3D3E9002300F04F
:1038B0004FF932463B4600F0FFFADDF804C0BCF198
:1038C000FF3F02460B466BD0504659464FEACC06A6
:1038D00000F040F922462B4600F0EEFA674F684BA5
:1038E00037441E44D6E9002300F032F922462B4625
:1038F00000F02EF902460B46D7E9000100F028F946
:10390000B9F1000F0CDA01F10045294608E0002862
:103910003FF44FAF2046294622462B4600F01AF9C5
:1039200003B0BDE8F08F4EA3D3E9002300F012F9F5
:103930000022544B00F050FD00283FF44DAF2046CC
:10394000294603B0BDE8F08F00F0CAF84E4B9E4206
:1039500004460D4633DCA3F550239E4200F3A580B8
:1039600002460B4600F0F6F80022464B00F0F0F855
:10397000002206460F46204629464FF0804300F0BD
:10398000E9F802460B463046394600F0BFFB4FF0DF
:10399000000C04460D4621E733A1D1E90001BFE741
:1039A0005046594600F0D6F822462B4600F084FADD
:1039B00002460B462046294600F0CAF8B0E7334BD2
:1039C0009E4267DC0022324B00F0C2F8002206461D
:1039D0000F46204629462E4B00F06EFA0022294B56
:1039E00000F0B8F802460B463046394600F08EFB30
:1039F0004FF0020C04460D46F0E600BFAFF3008026
:103A0000182D4454FB21F93F11DA22E33AAD903FDF
:103A1000EB0D76244B7BA93F513DD0A0660DB13F05
:103A20006E204CC5CD45B73FFF8300922449C23F6D
:103A30000D5555555555D53F2F6C6A2C44B4A2BF32
:103A40009AFDDE522DDEAD3F6D9A74AFF2B0B33FFA
:103A5000711623FEC671BC3FC4EB98999999C93F72
:103A60009C7500883CE4377E182D4454FB21F9BF37
:103A7000FFFF0F440000F07FFFFFDB3F704A0008AC
:103A8000504A00080000F03FFFFFF23FFF7F034075
:103A90000000F83F02460B4600200F4900F036FBBD
:103AA0004FF0030C04460D4698E600220B4B00F045
:103AB0004FF8002206460F4620462946074B00F0E5
:103AC00049F802460B463046394600F01FFB4FF0DE
:103AD000010C04460D4681E60000F0BF0000F03FF7
:103AE00021F00041704700BF31F0004310B408D00E
:103AF0000F4AA3F5801494420AD804205DF8044BC1
:103B0000704700280CBF022003205DF8044B70476B
:103B1000B3F5801F01D20320F7E7064A934201D094
:103B20000020F2E7D0F1010038BF0020EDE700BF30
:103B3000FFFFDF7F0000F07F002070470020014979
:103B4000704700BF0000F87F81F0004102E000BF35
:103B500083F0004330B54FEA41044FEA430594EA4D
:103B6000050F08BF90EA020F1FBF54EA000C55EA88
:103B7000020C7FEA645C7FEA655C00F0E2804FEA59
:103B80005454D4EB5555B8BF6D420CDD2C4480EA3B
:103B9000020281EA030382EA000083EA010180EA6B
:103BA000020281EA0303362D88BF30BD11F0004FB9
:103BB0004FEA01314FF4801C4CEA113102D04042EF
:103BC00061EB410113F0004F4FEA03334CEA13332A
:103BD00002D0524263EB430394EA050F00F0A78042
:103BE000A4F10104D5F1200E0DDB02FA0EFC22FA3D
:103BF00005F2801841F1000103FA0EF2801843FA31
:103C000005F359410EE0A5F120050EF1200E012A21
:103C100003FA0EFC28BF4CF0020C43FA05F3C0185F
:103C200051EBE37101F0004507D54FF0000EDCF1D8
:103C3000000C7EEB00006EEB0101B1F5801F1BD381
:103C4000B1F5001F0CD349085FEA30004FEA3C0C85
:103C500004F101044FEA445212F5800F80F09A807B
:103C6000BCF1004F08BF5FEA500C50F1000041EB7F
:103C7000045141EA050130BD5FEA4C0C404141EB83
:103C8000010111F4801FA4F10104E9D191F0000FAA
:103C900004BF01460020B1FA81F308BF2033A3F12D
:103CA0000B03B3F120020CDA0C3208DD02F1140C24
:103CB000C2F10C0201FA0CF021FA02F10CE002F15F
:103CC0001402D8BFC2F1200C01FA02F120FA0CFC58
:103CD000DCBF41EA0C019040E41AA2BF01EB0451A1
:103CE000294330BD6FEA04041F3C1CDA0C340EDC9F
:103CF00004F11404C4F1200220FA04F001FA02F3E2
:103D000040EA030021FA04F345EA030130BDC4F19F
:103D10000C04C4F1200220FA02F001FA04F340EA94
:103D20000300294630BD21FA04F0294630BD94F045
:103D3000000F83F4801306BF81F480110134013D2C
:103D40004EE77FEA645C18BF7FEA655C29D094EA9D
:103D5000050F08BF90EA020F05D054EA000C04BF1B
:103D60001946104630BD91EA030F1EBF0021002006
:103D700030BD5FEA545C05D14000494128BF41F0A5
:103D8000004130BD14F580043CBF01F5801130BD09
:103D900001F0004545F0FE4141F470014FF0000094
:103DA00030BD7FEA645C1ABF194610467FEA655C45
:103DB0001CBF0B46024650EA013406BF52EA0335E7
:103DC00091EA030F41F4002130BD00BF90F0000FD5
:103DD00004BF0021704730B54FF4806404F1320411
:103DE0004FF000054FF0000150E700BF90F0000FCA
:103DF00004BF0021704730B54FF4806404F13204F1
:103E000010F0004548BF40424FF000013EE700BFC0
:103E100042004FEAE2014FEA31014FEA02701FBF50
:103E200012F07F4393F07F4F81F06051704792F022
:103E3000000F14BF93F07F4F704730B54FF460749C
:103E400001F0004521F0004120E700BF50EA0102E7
:103E500008BF704730B54FF000050AE050EA010294
:103E600008BF704730B511F0004502D5404261EB04
:103E700041014FF4806404F132045FEA915C3FF445
:103E8000DCAE4FF003025FEADC0C18BF03325FEADE
:103E9000DC0C18BF033202EBDC02C2F1200300FA93
:103EA00003FC20FA02F001FA03FE40EA0E0021FAB8
:103EB00002F11444C1E600BF70B54FF0FF0C4CF4A2
:103EC000E06C1CEA11541DBF1CEA135594EA0C0F58
:103ED00095EA0C0F00F0DEF82C4481EA030621EA93
:103EE0004C5123EA4C5350EA013518BF52EA0335CE
:103EF00041F4801143F4801338D0A0FB02CE4FF080
:103F00000005E1FB02E506F00042E0FB03E54FF0AF
:103F10000006E1FB03569CF0000F18BF4EF0010EA7
:103F2000A4F1FF04B6F5007F64F5407404D25FEAA3
:103F30004E0E6D4146EB060642EAC62141EA555156
:103F40004FEAC52040EA5E504FEACE2EB4F1FD0C98
:103F500088BFBCF5E06F1ED8BEF1004F08BF5FEA16
:103F6000500E50F1000041EB045170BD06F00046C8
:103F700046EA010140EA020081EA0301B4EB5C0475
:103F8000C2BFD4EB0C0541EA045170BD41F480116D
:103F90004FF0000E013C00F3AB8014F1360FDEBF92
:103FA000002001F0004170BDC4F10004203C35DA6E
:103FB0000C341BDC04F11404C4F1200500FA05F3F1
:103FC00020FA04F001FA05F240EA020001F0004292
:103FD00021F0004110EBD37021FA04F642EB060108
:103FE0005EEA430E08BF20EAD37070BDC4F10C0432
:103FF000C4F1200500FA04F320FA05F001FA04F2F6
:1040000040EA020001F0004110EBD37041F10001E1
:104010005EEA430E08BF20EAD37070BDC4F12005EC
:1040200000FA05F24EEA020E20FA04F301FA05F254
:1040300043EA020321FA04F001F0004121FA04F2FC
:1040400020EA020000EBD3705EEA430E08BF20EACC
:10405000D37070BD94F0000F0FD101F00046400006
:1040600041EB010111F4801F08BF013CF7D041EA88
:10407000060195F0000F18BF704703F0004652008C
:1040800043EB030313F4801F08BF013DF7D043EA5D
:104090000603704794EA0C0F0CEA135518BF95EA13
:1040A0000C0F0CD050EA410618BF52EA4306D1D19A
:1040B00081EA030101F000414FF0000070BD50EAB9
:1040C000410606BF1046194652EA430619D094EA43
:1040D0000C0F02D150EA013613D195EA0C0F05D12D
:1040E00052EA03361CBF104619460AD181EA030181
:1040F00001F0004141F0FE4141F470014FF0000039
:1041000070BD41F0FE4141F4780170BD70B54FF0D3
:10411000FF0C4CF4E06C1CEA11541DBF1CEA135553
:1041200094EA0C0F95EA0C0F00F0A7F8A4EB050435
:1041300081EA030E52EA03354FEA013100F088802C
:104140004FEA03334FF0805545EA131343EA1263F5
:104150004FEA022245EA111545EA10654FEA0026AA
:104160000EF000419D4208BF964244F1FD0404F563
:10417000407402D25B084FEA3202B61A65EB0305BF
:104180005B084FEA32024FF480104FF4002CB6EB7C
:10419000020E75EB030E22BFB61A754640EA0C00FC
:1041A0005B084FEA3202B6EB020E75EB030E22BF3C
:1041B000B61A754640EA5C005B084FEA3202B6EB7D
:1041C000020E75EB030E22BFB61A754640EA9C003C
:1041D0005B084FEA3202B6EB020E75EB030E22BF0C
:1041E000B61A754640EADC0055EA060E18D04FEACA
:1041F000051545EA16754FEA06164FEAC30343EA6A
:1042000052734FEAC2025FEA1C1CC0D111F4801F36
:104210000BD141EA00014FF000004FF0004CB6E72F
:1042200011F4801F04BF01430020B4F1FD0C88BFCE
:10423000BCF5E06F3FF6AFAEB5EB030C04BFB6EBD9
:10424000020C5FEA500C50F1000041EB045170BDCC
:104250000EF0004E4EEA113114EB5C04C2BFD4EBF9
:104260000C0541EA045170BD41F480114FF0000E7D
:10427000013C90E645EA060E8DE60CEA135594EAF9
:104280000C0F08BF95EA0C0F3FF43BAF94EA0C0FFC
:104290000AD150EA01347FF434AF95EA0C0F7FF471
:1042A00025AF104619462CE795EA0C0F06D152EAC5
:1042B00003353FF4FDAE1046194622E750EA4106A9
:1042C00018BF52EA43067FF4C5AE50EA41047FF4BA
:1042D0000DAF52EA43057FF4EBAE12E74FF0FF3C1F
:1042E00006E000BF4FF0010C02E000BF4FF0010CF0
:1042F0004DF804CD4FEA410C7FEA6C5C4FEA430C69
:1043000018BF7FEA6C5C1BD001B050EA410C0CBFB7
:1043100052EA430C91EA030F02BF90EA020F002019
:10432000704710F1000F91EA030F58BF994208BF80
:1043300090422CBFD8176FEAE37040F0010070473D
:104340004FEA410C7FEA6C5C02D150EA013C07D194
:104350004FEA430C7FEA6C5CD6D152EA033CD3D0DF
:104360005DF8040B704700BF8446104662468C46D9
:104370001946634600E000BF01B5FFF7B7FF00280C
:1043800048BF10F1000F01BD4DF808EDFFF7F4FF35
:104390000CBF012000205DF808FB00BF4DF808EDC0
:1043A000FFF7EAFF34BF012000205DF808FB00BFE3
:1043B0004DF808EDFFF7E0FF94BF012000205DF805
:1043C00008FB00BF4DF808EDFFF7CEFF94BF0120BA
:1043D00000205DF808FB00BF4DF808EDFFF7C4FFB3
:1043E00034BF012000205DF808FB00BF4FEA410206
:1043F000B2F1E04324BFB3F5001CDCF1FE5C0DD943
:1044000001F0004C4FEAC0024CEA5070B2F1004F8C
:1044100040EB830008BF20F00100704711F0804F8F
:1044200021D113F13872BCBF01F00040704741F454
:1044300080114FEA5252C2F11802C2F1200C10FA58
:104440000CF320FA02F018BF40F001004FEAC1233C
:104450004FEAD32303FA0CFC40EA0C0023FA02F3E0
:104460004FEA4303CCE77FEA625307D150EA0133B6
:104470001EBF4FF0FE4040F44000704701F0004086
:1044800040F0FE4040F40000704700BF80F0004064
:1044900002E000BF81F0004142001FBF5FEA41031C
:1044A00092EA030F7FEA226C7FEA236C6AD04FEA1C
:1044B0001262D2EB1363C1BFD21841404840414061
:1044C000B8BF5B42192B88BF704710F0004F40F413
:1044D000000020F07F4018BF404211F0004F41F42F
:1044E000000121F07F4118BF494292EA030F3FD0FB
:1044F000A2F1010241FA03FC10EB0C00C3F120030E
:1045000001FA03F100F0004302D5494260EB40009C
:10451000B0F5000F13D3B0F1807F06D340084FEA07
:10452000310102F10102FE2A51D2B1F1004F40EBFC
:10453000C25008BF20F0010040EA03007047490064
:1045400040EB000010F4000FA2F10102EDD1B0FA2F
:1045500080FCACF1080CB2EB0C0200FA0CF0AABF24
:1045600000EBC25052421843BCBFD04018437047C2
:1045700092F0000F81F4000106BF80F400000132C8
:10458000013BB5E74FEA41037FEA226C18BF7FEA9F
:10459000236C21D092EA030F04D092F0000F08BFE1
:1045A0000846704790EA010F1CBF0020704712F0C8
:1045B0007F4F04D1400028BF40F00040704712F107
:1045C00000723CBF00F50000704700F0004343F06C
:1045D000FE4040F4000070477FEA226216BF0846A2
:1045E0007FEA23630146420206BF5FEA412390EA65
:1045F000010F40F4800070474FF0000304E000BF5B
:1046000010F0004348BF40425FEA000C08BF70470B
:1046100043F0964301464FF000001CE050EA0102CF
:1046200008BF70474FF000030AE000BF50EA0102E4
:1046300008BF704711F0004302D5404261EB4101D1
:104640005FEA010C02BF84460146002043F0B643F6
:1046500008BFA3F18053A3F50003BCFA8CF2083A1B
:10466000A3EBC25310DB01FA02FC634400FA02FC24
:10467000C2F12002BCF1004F20FA02F243EB02002B
:1046800008BF20F00100704702F1200201FA02FC8D
:10469000C2F1200250EA4C0021FA02F243EB020080
:1046A00008BF20EADC7070474FF0FF0C1CEAD052C4
:1046B0001EBF1CEAD15392EA0C0F93EA0C0F6FD085
:1046C0001A4480EA010C400218BF5FEA41211ED063
:1046D0004FF0006343EA501043EA5111A0FB01314F
:1046E0000CF00040B1F5000F3EBF490041EAD37124
:1046F0005B0040EA010062F17F02FD2A1DD8B3F1A0
:10470000004F40EBC25008BF20F00100704790F00E
:10471000000F0CF0004C08BF49024CEA502040EA60
:1047200051207F3AC2BFD2F1FF0340EAC250704726
:1047300040F400004FF00003013A5DDC12F1190F64
:10474000DCBF00F000407047C2F10002410021FAD6
:1047500002F1C2F1200200FA02FC5FEA310040F1EE
:10476000000053EA4C0308BF20EADC70704792F067
:10477000000F00F0004C02BF400010F4000F013A9F
:10478000F9D040EA0C0093F0000F01F0004C02BF9A
:10479000490011F4000F013BF9D041EA0C018FE709
:1047A0000CEAD15392EA0C0F18BF93EA0C0F0AD00F
:1047B00030F0004C18BF31F0004CD8D180EA010035
:1047C00000F00040704790F0000F17BF90F0004FCE
:1047D000084691F0000F91F0004F14D092EA0C0FB0
:1047E00001D142020FD193EA0C0F03D14B0218BF43
:1047F000084608D180EA010000F0004040F0FE4089
:1048000040F40000704740F0FE4040F44000704724
:104810004FF0FF0C1CEAD0521EBF1CEAD15392EAA3
:104820000C0F93EA0C0F69D0A2EB030280EA010C93
:1048300049024FEA402037D04FF0805343EA11112C
:1048400043EA10130CF000408B4238BF5B0042F18A
:104850007D024FF4000C8B4224BF5B1A40EA0C002F
:10486000B3EB510F24BFA3EB510340EA5C00B3EB61
:10487000910F24BFA3EB910340EA9C00B3EBD10F4F
:1048800024BFA3EBD10340EADC001B0118BF5FEAA1
:104890001C1CE0D1FD2A3FF650AF8B4240EBC250CA
:1048A00008BF20F0010070470CF0004C4CEA50208B
:1048B0007F32C2BFD2F1FF0340EAC250704740F4DA
:1048C00000004FF00003013A37E792F0000F00F0CC
:1048D000004C02BF400010F4000F013AF9D040EA4A
:1048E0000C0093F0000F01F0004C02BF490011F4DE
:1048F000000F013BF9D041EA0C0195E70CEAD153D6
:1049000092EA0C0F08D142027FF47DAF93EA0C0FBC
:104910007FF470AF084676E793EA0C0F04D14B02A0
:104920003FF44CAF08466EE730F0004C18BF31F052
:10493000004CCAD130F000427FF45CAF31F000434C
:104940007FF43CAF5FE700BF4FF0FF3C06E000BFE5
:104950004FF0010C02E000BF4FF0010C4DF804CD08
:104960004FEA40024FEA41037FEA226C18BF7FEA18
:10497000236C11D001B052EA530C18BF90EA010F1A
:1049800058BFB2EB030088BFC81738BF6FEAE170A9
:1049900018BF40F0010070477FEA226C02D15FEA45
:1049A000402C05D17FEA236CE4D15FEA412CE1D0B1
:1049B0005DF8040B704700BF844608466146FFE778
:1049C0000FB5FFF7C9FF002848BF10F1000F0FBD5A
:1049D0004DF808EDFFF7F4FF0CBF012000205DF853
:1049E00008FB00BF4DF808EDFFF7EAFF34BF0120D8
:1049F00000205DF808FB00BF4DF808EDFFF7E0FF71
:104A000094BF012000205DF808FB00BF4DF808EDC1
:104A1000FFF7D2FF94BF012000205DF808FB00BF24
:104A20004DF808EDFFF7C8FF34BF012000205DF806
:104A300008FB00BF014B1868704700BF58040020F6
:104A40006173696E000000007371727400000000F1
:104A5000E2652F227F2B7A3C075C143326A6813C2B
:104A6000BDCBF07A8807703C075C143326A6913CD6
:104A70004FBB610567ACDD3F182D4454FB21E93F76
:104A80009BF681D20B73EF3F182D4454FB21F93F65
:044A900043000000DF
:104A9400CDCCCC3D0000803F0000000001020304A7
:104AA4000102030406070809007A030A0000000053
:104AB40000000000010203040607080901000000C9
:104AC400000000001C03002084030020EC030020ED
:104AD40000000000000000000000000000000000D2
:104AE40000000000000000000000000000000000C2
:104AF40000000000904A00080000000000000000D0
:104B040000000000000000000000000000000000A1
:104B14000000000000000000000000000000000091
:104B24000000000000000000000000000000000081
:104B34000000000000000000000000000000000071
:104B44000000000000000000000000000000000061
:104B54000000000000000000000000000000000051
:104B64000000000000000000010000000000000040
:104B74000E33CDAB34126DE6ECDE05000B00000005
:104B84000000000000000000000000000000000021
:104B94000000000000000000000000000000000011
:104BA4000000000000000000000000000000000001
:104BB40000000000000000000000000000000000F1
:0C4EE40000000000000000003000002072
:0400000508000000EF
:00000001FF
