:020000040800F2
:100000004808002089010008E5010008E501000812
:10001000E5010008E5010008E50100080000000016
:10002000000000000000000000000000E5010008E2
:10003000E501000800000000E5010008E5010008F6
:10004000E5010008E5010008E5010008E5010008F8
:10005000E5010008E5010008E5010008E5010008E8
:10006000E5010008E5010008E5010008E5010008D8
:10007000E5010008E5010008E5010008E5010008C8
:10008000E5010008E5010008E5010008E5010008B8
:10009000E5010008E5010008E5010008E5010008A8
:1000A000E5010008E5010008E5010008E501000898
:1000B000E5010008E5010008E5010008E501000888
:1000C000E5010008E5010008E5010008E501000878
:1000D000E5010008E5010008E5010008E501000868
:1000E000E5010008E5010008E5010008E501000858
:1000F000E5010008E5010008E5010008E501000848
:10010000E5010008E5010008E5010008E501000837
:10011000E5010008E5010008E5010008E501000827
:10012000E5010008E5010008E5010008E501000817
:10013000E5010008E5010008E5010008E501000807
:10014000E5010008E5010008E5010008E5010008F7
:10015000E5010008E5010008E5010008E5010008E7
:10016000E5010008E5010008E5010008E5010008D7
:10017000E5010008E5010008E5010008E5010008C7
:10018000E5010008E501000880B582B000AF104B22
:100190007B60104B3B6007E03B681A1D3A607A6851
:1001A000111D796012681A603A680B4B9A42F3D3BA
:1001B0000A480B494FF000028842B8BF40F8042BB0
:1001C000FFF6FAAF00F012F80837BD4680BD00BF59
:1001D0009C100008000000202400002024000020C3
:1001E0004800002080B400AFFEE700BF80B584B0B7
:1001F00000AF00F04FFC00F079FC00F06FF8082031
:10020000012100F01BFB4FF470437B6001233B7224
:100210000023BB7203237B720023FB723B1D2C481F
:10022000194600F047FB2B48D221002200F09CF831
:100230002848202100F0DCF826480F2100F0D8F8EB
:10024000244800F029F923483021002200F08CF8DE
:100250002048202100F0CCF81E48272100F0C8F8E3
:100260001C4800F019F91B483C21002200F07CF8E2
:100270001848022100F0BCF81648002100F0B8F838
:10028000144800F009F912484FF4704100F0A0FB47
:100290000023FB6002E0FB680133FB60FA680E4B51
:1002A0009A42F8D90A484FF4704100F09FFB0023AE
:1002B000FB6002E0FB680133FB60FA68064B9A4280
:1002C000F8D900F0F5F800F04FF900F0B1F9DAE7ED
:1002D000000C0240005400403F420F0080B586B041
:1002E00000AF4FF40010012100F0C6FA02200121F6
:1002F00000F0A4FAC0233B6102233B7502237B7507
:100300000123BB750123FB7507F110031348194640
:1003100000F0D0FA11480621042200F075FB0F48C6
:100320000721042200F070FB0D4B3B600023BB80D3
:100330004BF6FF73FB8000233B8100237B814FF44E
:100340008043BB813B460748194600F0C5FC054881
:10035000012100F083FD1837BD4680BD0004024036
:10036000A08601000054004080B582B000AF7860E4
:1003700013460A46FA70BB7000BF78684FF400312C
:1003800000F058FE0346002BF7D17868012100F0F9
:1003900085FD00BF7868134900F01CFE0346002B62
:1003A000F8D0FA78BB78786811461A4600F0B6FDA6
:1003B000BB78002B08D100BF78680B4900F00AFE1B
:1003C0000346002BF8D00AE0BB78012B07D100BF11
:1003D0007868064900F0FEFD0346002BF8D0083788
:1003E000BD4680BD0100030082000700020003003B
:1003F00080B582B000AF78600B46FB70FB78786800
:10040000194600F0C9FD00BF7868044900F0E2FD1C
:100410000346002BF8D00837BD4680BD800007009A
:1004200080B584B000AF78607868012100F094FD59
:1004300000BF7868074900F0CDFD0346002BF8D0D7
:10044000786800F0B9FD0346FB73FB7B1846103754
:10045000BD4680BD4000030080B584B000AF786029
:100460007868002100F078FD7868012100F036FD01
:1004700000BF7868074900F0ADFD0346002BF8D0B7
:10048000786800F099FD0346FB73FB7B1846103734
:10049000BD4680BD4000030080B582B000AF7860EB
:1004A0007868012100F01AFD0837BD4680BD00BF05
:1004B00080B582B000AF2848D2210022FFF754FF58
:1004C0002548A821FFF794FF2348FFF7E5FF2248BE
:1004D000D2210122FFF748FF1F48FFF7A1FF034683
:1004E000FB711D48FFF79CFF0346BB711A48FFF7DD
:1004F00097FF03467B711848FFF792FF03463B7155
:100500001548FFF78DFF0346FB701348FFF7A4FF64
:100510000346BB70BB791B029AB2FB799BB21343B3
:100520009BB21AB20D4B1A603B791B029AB27B79CF
:100530009BB213439BB21AB2094B1A60BB781B02E1
:100540009AB2FB789BB213439BB21AB2054B1A6066
:100550000837BD4680BD00BF005400403C0000206D
:10056000240000203400002080B582B000AF2C4869
:1005700030210022FFF7F8FE2948A821FFF738FFB5
:100580002748FFF789FF264830210122FFF7ECFEBC
:100590002348FFF745FF0346FB712148FFF740FF63
:1005A0000346BB711E48FFF73BFF03467B711C48A7
:1005B000FFF736FF03463B711948FFF731FF03464B
:1005C000FB701748FFF748FF0346BB70BB791B025F
:1005D0009AB2FB799BB213439BB21BB21B119BB225
:1005E0001AB2104B1A603B791B029AB27B799BB20C
:1005F00013439BB21BB21B119BB21AB20A4B1A6077
:10060000BB781B029AB2FB789BB213439BB21BB21E
:100610001B119BB21AB2054B1A600837BD4680BD4C
:10062000005400403000002040000020280000203E
:1006300080B582B000AF28483C210022FFF794FE2D
:1006400025480321FFF7D4FE2348FFF725FF224862
:100650003C210122FFF788FE1F48FFF7E1FE034619
:10066000FB711D48FFF7DCFE0346BB711A48FFF71C
:10067000D7FE03467B711848FFF7D2FE03463B7155
:100680001548FFF7CDFE0346FB701348FFF7E4FE65
:100690000346BB70FB791B029AB2BB799BB2134332
:1006A0009BB21AB20D4B1A60FB781B029AB2BB7850
:1006B0009BB213439BB21AB2094B1A607B791B029F
:1006C0009AB23B799BB213439BB21AB2054B1A60A4
:1006D0000837BD4680BD00BF0054004044000020E4
:1006E0002C0000203800002080B489B000AF786072
:1006F0000023BB6100237B610023FB6102233B617C
:100700000023FB600223BB60484B9B6803F00C0393
:10071000BB61BB69042B07D0082B09D0002B3FD14C
:100720007B68434A1A603FE07B68424A1A603BE0BC
:100730003E4B5B6803F480039B0DFB603B4B5B68A7
:1007400003F03F03BB60FB68002B0DD0394ABB6848
:10075000B2FBF3F2354B596847F6C0730B409B0967
:1007600003FB02F3FB610CE0314ABB68B2FBF3F21E
:100770002E4B596847F6C0730B409B0903FB02F3ED
:10078000FB612A4B5B6803F440331B0C01335B00B5
:100790003B61FA693B69B2FBF3F27B681A6003E0E4
:1007A0007B68234A1A6000BF204B9B6803F0F0036C
:1007B000BB61BB691B09BB611F4ABB6913441B7842
:1007C000DBB27B617B681A687B69DA407B685A60C0
:1007D000164B9B6803F4E053BB61BB699B0ABB618A
:1007E000154ABB6913441B78DBB27B617B685A688E
:1007F0007B69DA407B689A600C4B9B6803F460432A
:10080000BB61BB695B0BBB610B4ABB6913441B78C3
:10081000DBB27B617B685A687B69DA407B68DA60AF
:100820002437BD465DF8047B704700BF00380240A6
:100830000024F40000127A000000002080B483B08D
:1008400000AF78600B46FB70FB78002B06D0094B9D
:10085000084A116B7A680A431A6306E0054B054A99
:10086000116B7A68D2430A401A630C37BD465DF8B3
:10087000047B70470038024080B483B000AF7860DA
:100880000B46FB70FB78002B06D0094B084A116C15
:100890007A680A431A6406E0054B054A116C7A68C7
:1008A000D2430A401A640C37BD465DF8047B70479A
:1008B0000038024080B487B000AF78603960002310
:1008C0007B6100233B610023FB6000237B6176E0BA
:1008D0007B69012202FA03F33B613B681A683B69BA
:1008E0001340FB60FA683B699A4265D17B681A68DD
:1008F0007B695B00032101FA03F3DB431A407B6849
:100900001A607B681A683B681B7919467B695B0033
:1009100001FA03F31A437B681A603B681B79012BC9
:1009200003D03B681B79022B2ED17B689A687B69C8
:100930005B00032101FA03F3DB431A407B689A60F2
:100940007B689A683B685B7919467B695B0001FAB2
:1009500003F31A437B689A607B685A687B699BB291
:10096000012101FA03F3DB431A407B685A607B687C
:100970005A683B689B7919467B699BB201FA03F37D
:100980009BB21A437B685A607B68DA687B699BB2CA
:100990005B00032101FA03F3DB431A407B68DA6052
:1009A0007B68DA683B68DB7919467B695B0001FA92
:1009B00003F31A437B68DA607B6901337B617B69EF
:1009C0000F2B85D91C37BD465DF8047B704700BFEF
:1009D00080B483B000AF78600B467B807B687A88F8
:1009E0001A830C37BD465DF8047B704780B483B032
:1009F00000AF78600B467B807B687A885A830C371F
:100A0000BD465DF8047B704780B485B000AF786068
:100A100013460A467A807B700023FB600023BB608C
:100A20007A787B8803F007039B0002FA03F3FB60EC
:100A30007B88DB089BB21A467B88DB089BB2194691
:100A40007B68083153F821107B8803F007039B0073
:100A50000F2000FA03F3DB4319407B68083243F8A8
:100A600022107B88DB089BB21A467B68083253F859
:100A70002220FB681343BB607B88DB089BB21A46CD
:100A80007B680832B96843F822101437BD465DF818
:100A9000047B704780B500AF114B114A126842F0D9
:100AA00001021A600E4B00229A600D4A0C4B1B6823
:100AB00023F0847323F480331360094B094A5A608E
:100AC000074B074A126822F480221A60044B002266
:100AD000DA6000F087F8044B4FF000629A6080BD46
:100AE000003802401030002400ED00E080B487B0F0
:100AF00000AF00233B6100237B610223FB600023E6
:100B0000BB6002237B60324B9B6803F00C033B61AC
:100B10003B69042B07D0082B09D0002B3FD12D4B6C
:100B20002D4A1A603FE02B4B2C4A1A603BE0284BC1
:100B30005B6803F480039B0DBB60254B5B6803F08F
:100B40003F037B60BB68002B0DD0244A7B68B2FB5F
:100B5000F3F21F4B596847F6C0730B409B0903FB28
:100B600002F37B610CE01C4A7B68B2FBF3F2184B8A
:100B7000596847F6C0730B409B0903FB02F37B6186
:100B8000134B5B6803F440331B0C01335B00FB60C9
:100B90007A69FB68B2FBF3F20E4B1A6003E00D4B6F
:100BA0000D4A1A6000BF0A4B9B6803F0F0031B0953
:100BB0000B4AD35CDBB23B61064B1A683B69DA40F7
:100BC000044B1A601C37BD465DF8047B704700BFBC
:100BD00000380240100000200024F40000127A00C7
:100BE0001400002080B483B000AF00237B6000239A
:100BF0003B60354B344A126842F480321A60324B03
:100C00001B6803F400333B607B6801337B603B6807
:100C1000002B03D17B68B3F5A06FF0D12A4B1B6882
:100C200003F40033002B02D001233B6001E00023DA
:100C30003B603B68012B42D1234B234A126C42F0AC
:100C400080521A64214B214A126842F480421A6091
:100C50001D4B1D4A92689A601B4B1B4A926842F4D6
:100C600000429A60184B184A926842F4A0529A6067
:100C7000154B174A5A60144B134A126842F080729F
:100C80001A6000BF104B1B6803F00073002BF9D0F3
:100C9000104B40F205621A600B4B0B4A926822F02F
:100CA00003029A60084B084A926842F002029A6076
:100CB00000BF054B9B6803F00C03082BF9D10C37E0
:100CC000BD465DF8047B704700380240007000406C
:100CD00008544007003C024080B58AB000AF7860FD
:100CE00039600023FB8400237B840423BB84574B9F
:100CF000FB617B689B88FB84FB8C23F03F03FB84B8
:100D000007F10C031846FFF7EFFC7B69FB61FA69FA
:100D10004F4BA3FB02139B0C7B84FA8C7B8C1343FD
:100D2000FB847B68FA8C9A807B681B889BB223F0DB
:100D300001039AB27B681A800023FB843B681A681F
:100D4000444B9A4215D83B681B685B00FA69B2FBBA
:100D5000F3F3BB84BB8C032B01D80423BB84FA8C34
:100D6000BB8C1343FB847B8C01339AB27B681A845F
:100D700040E03B68DA884BF6FF739A4209D13B6842
:100D80001A6813465B001344FA69B2FBF3F3BB84A1
:100D90000EE03B681A6813469B0013449A00134404
:100DA000FA69B2FBF3F3BB84BB8C43F48043BB848E
:100DB000BB8CC3F30B03002B03D1BB8C43F00103AB
:100DC000BB84BA8CFB8C13439BB26FEA43436FEA3C
:100DD0005343FB847B8C4FF4967202FB03F31E4A51
:100DE00082FB03129211DB17D31A9BB201339AB222
:100DF0007B681A847B68FA8C9A837B681B889BB219
:100E000043F001039AB27B681A807B681B88FB84DD
:100E1000FB8C23F4816323F00203FB843B689A88F4
:100E20003B685B8913439AB2FB8C1343FB847B685A
:100E3000FA8C1A803B689A893B681B8913439AB2E3
:100E40007B681A812837BD4680BD00BF00127A003A
:100E500083DE1B43A0860100D34D621080B483B0B3
:100E600000AF78600B46FB70FB78002B08D07B68E6
:100E70001B889BB243F001039AB27B681A8007E09B
:100E80007B681B889BB223F001039AB27B681A80AF
:100E90000C37BD465DF8047B704700BF80B483B05B
:100EA00000AF78600B46FB70FB78002B08D07B68A6
:100EB0001B889BB243F480739AB27B681A8007E068
:100EC0007B681B889BB223F480739AB27B681A807C
:100ED0000C37BD465DF8047B704700BF80B483B01B
:100EE00000AF78600B46FB70FB78002B08D07B6866
:100EF0001B889BB243F400739AB27B681A8007E0A8
:100F00007B681B889BB223F400739AB27B681A80BB
:100F10000C37BD465DF8047B704700BF80B483B0DA
:100F200000AF786013460A46FA70BB70BB78002B9E
:100F300004D0FB7843F00103FB7003E0FB7823F05F
:100F40000103FB70FB789AB27B681A820C37BD46AE
:100F50005DF8047B704700BF80B483B000AF786059
:100F60000B46FB70FB78002B08D07B681B889BB27C
:100F700043F480639AB27B681A8007E07B681B8821
:100F80009BB223F480639AB27B681A800C37BD460B
:100F90005DF8047B704700BF80B483B000AF786019
:100FA0000B46FB70FB789AB27B681A820C37BD4601
:100FB0005DF8047B704700BF80B483B000AF7860F9
:100FC0007B681B8A9BB2DBB218460C37BD465DF8C6
:100FD000047B704780B487B000AF7860396000232D
:100FE0003B610023FB600023BB600023FB757B6833
:100FF0009B8A9BB2FB607B681B8B9BB2BB60BB6810
:101000001B04BB60FA68BB68134323F07F433B615A
:101010003A693B681A403B689A4202D10123FB754A
:1010200001E00023FB75FB7D18461C37BD465DF8CB
:10103000047B704780B487B000AF786039600023CC
:10104000FB7500233B610023FB607B68FB603B6812
:101050001B0F3B613B6823F07F433B603B69002BE8
:1010600003D0FB681433FB6005E03B681B0C3B605E
:10107000FB681833FB60FB681A683B681340002B61
:1010800002D00123FB7501E00023FB75FB7D1846B0
:0C1090001C37BD465DF8047B704700BFB4
:10109C000000000001020304010203040607080912
:1010AC00007A030A000000000000000001020304A3
:0410BC000607080912
:0400000508000000EF
:00000001FF
