:020000040800F2
:10000000280D002089010008E5010008E50100082D
:10001000E5010008E5010008E50100080000000016
:10002000000000000000000000000000E5010008E2
:10003000E501000800000000E5010008351D00088A
:10004000E5010008E5010008E5010008E5010008F8
:10005000E5010008E5010008E5010008E5010008E8
:10006000E5010008E5010008E5010008E5010008D8
:10007000E5010008E5010008E5010008E5010008C8
:10008000E5010008E5010008E5010008E5010008B8
:10009000E5010008E5010008E5010008E5010008A8
:1000A000E5010008E5010008E5010008E501000898
:1000B000E5010008E5010008E5010008E501000888
:1000C000E5010008E5010008E5010008E501000878
:1000D000E5010008E5010008E5010008E501000868
:1000E000E5010008E5010008E5010008E501000858
:1000F000E5010008E5010008E5010008E501000848
:10010000E5010008E5010008E5010008E501000837
:10011000E5010008E5010008E5010008E501000827
:10012000E5010008E5010008E5010008E501000817
:10013000E5010008E5010008E5010008E501000807
:10014000E5010008E5010008E5010008E5010008F7
:10015000E5010008E5010008E5010008E5010008E7
:10016000E5010008E5010008E5010008E5010008D7
:10017000E5010008E5010008E5010008E5010008C7
:10018000E5010008E501000880B582B000AF104B22
:100190007B60104B3B6007E03B681A1D3A607A6851
:1001A000111D796012681A603A680B4B9A42F3D3BA
:1001B0000A480B494FF000028842B8BF40F8042BB0
:1001C000FFF6FAAF02F040F80837BD4680BD00BF29
:1001D000344E000800000020EC040020EC04002055
:1001E0002805002080B400AFFEE700BFF0B5ABB03B
:1001F00002AFF860B9607A603B60D7F8C0004FF09A
:10020000000104F0B5FD0346002B1FD0D7F8C40051
:100210004FF0000104F0ACFD0346002B16D0D7F8D8
:10022000C8004FF0000104F0A3FD0346002B0DD0E1
:10023000D7F8B8300093D7F8BC300193F868B968A4
:100240007A683B6801F03EF901F02CB9AF4B1B68AE
:1002500083F000431846F96804F0F6FB03461C4699
:10026000AB4B1B681846B96804F0EEFB034620460A
:10027000194604F0DFFA03461C46A64B1B681846D5
:10028000796804F0E1FB03462046194604F0D2FAEF
:10029000034618464FF07C5104F0D6FB0346C7F8DE
:1002A0009C309D4B1B681846F96804F0CDFB034653
:1002B0001C46974B1B681846796804F0C5FB03463B
:1002C0002046194604F0B8FA03461C46914B1B68B9
:1002D0001846B96804F0B8FB03462046194604F0F6
:1002E000A9FA034618464FF07C5104F0ADFB0346D3
:1002F000C7F89830884B1B681846B96804F0A4FB0F
:1003000003461C46814B1B681846796804F09CFB29
:1003100003462046194604F08DFA03461C467D4BE1
:100320001B681846F96804F08FFB034620461946FF
:1003300004F082FA034618464FF07C5104F084FB27
:100340000346C7F89430744B1B681846796804F06C
:100350007BFB03461C466D4B1B681846B96804F0CE
:1003600073FB03462046194604F066FA03461C4612
:10037000674B1B681846F96804F066FB0346204685
:10038000194604F057FA034618464FF07C5104F022
:100390005BFB0346C7F8903038684FF0000104F06B
:1003A000E7FC0346002B12D0D7F8B8004FF000014D
:1003B00004F0DEFC0346002B09D0D7F8BC004FF058
:1003C000000104F0D5FC0346002B40F0C0873868DC
:1003D000396804F039FB03461C46D7F8B800D7F853
:1003E000B81004F031FB03462046194604F024FA05
:1003F00003461C46D7F8BC00D7F8BC1004F024FB19
:1004000003462046194604F017FA0346184601F041
:1004100009FCC7F88C003868D7F88C1004F014FB7E
:1004200003463B60D7F8B800D7F88C1004F00CFBFB
:100430000346C7F8B830D7F8BC00D7F88C1004F0E2
:1004400003FB0346C7F8BC30D7F8C000D7F8C0108C
:1004500004F0FAFA03461C46D7F8C400D7F8C410D3
:1004600004F0F2FA03462046194604F0E5F9034683
:100470001C46D7F8C800D7F8C81004F0E5FA0346C0
:100480002046194604F0D8F90346184601F0CAFB85
:10049000C7F88C00D7F8C000D7F88C1004F0D4FA55
:1004A0000346C7F8C030D7F8C400D7F88C1004F062
:1004B000CBFA0346C7F8C430D7F8C800D7F88C1079
:1004C00004F0C2FA0346C7F8C830134B1B6818463D
:1004D000194604F0B1F903461846D7F8C01004F0E5
:1004E000B3FA0346C7F888300B4B1B681846194609
:1004F00004F0A2F903461846D7F8C41004F0A4FA91
:100500000346C7F88430044B1B6807E0EC04002066
:10051000F0040020F40400200400002018461946CE
:1005200004F08AF903461846D7F8C81004F08CFA8C
:100530000346C7F88030984B1B681846194604F0EC
:100540007BF903461846D7F8C01004F07DFA03463D
:10055000FB67924B1B681846194604F06DF9034679
:10056000BB678D4B1B681846194604F065F90346B6
:100570007B678B4B1B681846194604F05DF90346F0
:100580003B67884B1B681846194604F055F903462B
:10059000FB66824B1B681846194604F04DF903466A
:1005A0001A467F4B1B681046194604F04DFA034665
:1005B000BB667B4B1B681846194604F03DF90346A1
:1005C0001A46784B1B681046194604F03DFA03465C
:1005D0007B66724B1A68714B1B681046194604F013
:1005E00033FA03463B666D4B1A686B4B1B6810462B
:1005F000194604F029FA0346FB65684B1A68684BF4
:100600001B681046194604F01FFA0346BB65634B8E
:100610001A68644B1B681046194604F015FA034625
:100620007B655D4B1A685C4B1B681046194604F0ED
:100630000BFA03463B65584B1A68594B1B6810462A
:10064000194604F001FA0346FB64534B1A68554BF4
:100650001B681046194604F0F7F90346BB64504B7B
:100660001A684F4B1B681046194604F0EDF9034613
:100670007B644B4B1A684B4B1B681046194604F0C1
:10068000E3F903463B64474B1A68464B1B68104628
:10069000194604F0D9F90346FB63D7F8C000396E58
:1006A00004F0D2F903461C463E4B1B681846D7F8A7
:1006B000841004F0C9F903462046194604F0BAF83C
:1006C00003461C46364B1B681846D7F8801004F0CA
:1006D000BBF903462046194604F0AEF803461C4613
:1006E000D7F8C000396D04F0AFF90346204619462B
:1006F00004F0A2F803461C46786FD7F8C41004F043
:10070000A3F903461A46264B1B681046194604F007
:100710009BF903462046194604F08EF803461C4612
:10072000786FD7F8C81004F08FF903461A461D4BAE
:100730001B681046194604F087F9034620461946FF
:1007400004F07AF803461C46D7F8C000796C04F030
:100750007BF903462046194604F06CF803461C4614
:10076000D7F8C000F96B04F06FF90346204619462C
:1007700004F060F80346BB630A4B1B681846D7F8C1
:10078000881004F061F903461C46D7F8C400396E9E
:1007900004F05AF9034607E0EC04002004000020AE
:1007A000F0040020F40400202046194604F044F828
:1007B00003461C46A04B1B681846D7F8801004F06F
:1007C00043F903462046194604F034F803461C4614
:1007D0009A4B1B681846F96F04F036F90346204619
:1007E000194604F029F803461C46D7F8C400396DB1
:1007F00004F02AF903462046194604F01BF8034684
:100800001C46D7F8C400796C04F01EF90346204654
:10081000194604F011F803461C46386FD7F8C81083
:1008200004F012F903461A46854B1B681046194618
:1008300004F00AF903462046194603F0FDFF03467B
:100840001C46D7F8C400F96B04F0FEF803462046B6
:10085000194603F0EFFF03467B63B86BB96B04F0F6
:10086000F3F803461C46786B796B04F0EDF8034609
:100870002046194603F0E0FF0346184603F070FCDB
:1008800002460B461046194602F0E4FC02460B46AF
:100890001046194603F07AFF03463B63D7F88830C9
:1008A00083F00042654B1B681046194604F0CCF8F3
:1008B00003461C46604B1B681846D7F8841004F0AA
:1008C000C3F803462046194603F0B6FF03461C460C
:1008D000D7F8C800396E04F0B7F803462046194629
:1008E00003F0AAFF03461C46554B1B681846F96FD8
:1008F00004F0AAF803462046194603F09DFF03467C
:100900001C46D7F8C800396D04F09EF8034620460F
:10091000194603F08FFF03461C46386FD7F8C41002
:1009200004F092F803461A46454B1B6810461946D8
:1009300004F08AF803462046194603F07DFF03467B
:100940001C46D7F8C800796C04F07EF803462046B0
:10095000194603F06FFF03461C46D7F8C800F96B31
:1009600004F072F803462046194603F065FF03467B
:10097000FB623B6B1846194603F05EFF0346BB6201
:10098000FB6A1846194603F057FF03467B623B6F2C
:1009900083F00044BB6C1846194603F04DFF034634
:1009A0001846B96E03F046FF03461846396803F04F
:1009B00041FF03462046194604F046F803461C460C
:1009C000FB6D1846194603F037FF03461846796E4B
:1009D00003F032FF03461846D7F8B81003F02AFF99
:1009E00003461846796F04F02FF80346204619464F
:1009F00003F022FF03461C46104B1B681846F96A99
:100A000004F022F803461D464FF07C50796C03F049
:100A100011FF03461846F96B03F00CFF0346184616
:100A2000396B04F011F803461E46B86CB96D03F03B
:100A300001FF0346184605E0EC040020F004002006
:100A4000F4040020F96A03F0FFFF0346304619461C
:100A500003F0F2FE03461846D7F8C01003F0EAFE92
:100A600003462846194603F0EFFF03462046194681
:100A700003F0E0FE03461C463B6B83F000429F4BB5
:100A80001B681046194603F0DFFF03461D469C4BCA
:100A90001B681846F96A03F0D7FF03462846194633
:100AA00003F0CAFE03461D46F86C796D03F0C2FEE2
:100AB00003461846396B03F0C7FF03461E46F86D20
:100AC000396C03F0B9FE03461846F96A03F0BCFF1F
:100AD00003463046194603F0AFFE03461846D7F8E2
:100AE000C41003F0A7FE03462846194603F0ACFFE6
:100AF00003462046194603F09FFE03461C46814BE1
:100B00001B681846396B03F09FFF03461D46B86DFE
:100B1000B96C03F091FE03461846396B03F094FF5D
:100B200003461E464FF07C50396D03F083FE0346AA
:100B30001846796C03F07EFE03461846F96A03F006
:100B400083FF03463046194603F076FE03461846F7
:100B5000D7F8C81003F06EFE03462846194603F086
:100B600073FF03462046194603F066FE03463B62C8
:100B7000BB6C1846194603F05FFE03461846B96E73
:100B800003F058FE03461846396803F053FE034647
:100B90001846F96E03F058FF03461C46FB6D1846D5
:100BA000194603F049FE03461846796E03F044FEE9
:100BB00003461846D7F8B81003F03CFE0346184623
:100BC000B96F03F041FF03462046194603F034FE97
:100BD00003461C464A4B1B6818464FF0814103F000
:100BE00033FF03461D463B6D1846194603F024FEAD
:100BF00003464FF07E50194603F01CFE03461E4686
:100C00007B6C1846194603F017FE0346304619461A
:100C100003F010FE03461846D7F8BC1003F00AFE96
:100C200003462846194603F00FFF0346204619469F
:100C300003F000FE03461C46304B1B681846F96A59
:100C400003F002FF03461D464FF07C50796C03F021
:100C5000F1FD03461846F96B03F0ECFD0346184618
:100C6000396B03F0F1FE03461E46B86CB96D03F014
:100C7000E1FD03461846F96A03F0E6FE03463046F6
:100C8000194603F0D9FD03461846D7F8C01003F003
:100C9000D1FD03462846194603F0D6FE03462046FA
:100CA000194603F0C9FD03461C46164B1B6818463F
:100CB000396B03F0C9FE03461D46134B1B681846EB
:100CC000F96A03F0C1FE03462846194603F0B4FD55
:100CD00003461D46F86C796D03F0ACFD03461846DB
:100CE000396B03F0B1FE03461E46F86D396C03F014
:100CF000A3FD03461846F96A08E000BFF40400208B
:100D0000EC040020F00400200400002003F09CFE0E
:100D100003463046194603F08FFD03461846D7F8C0
:100D2000C41003F087FD03462846194603F08CFEE5
:100D300003462046194603F07FFD03461C469F4BA1
:100D40001B681846396B03F07FFE03461D469C4B1B
:100D50001B681846796A03F077FE03462846194651
:100D600003F068FD03461D46B86DB96C03F064FDE1
:100D700003461846396B03F067FE03461E464FF0E4
:100D80007C50396D03F056FD03461846796C03F02C
:100D900051FD03461846F96A03F056FE03463046F5
:100DA000194603F049FD03461846D7F8C81003F06A
:100DB00041FD03462846194603F046FE03462046F9
:100DC000194603F039FD0346FB61BB6F83F0004415
:100DD000BB6C1846194603F02FFD03461846B96E42
:100DE00003F028FD03461846396803F023FD034647
:100DF0002046194603F028FE03461C46FB6D1846A4
:100E0000194603F019FD03461846796E03F014FDE8
:100E100003461846D7F8B81003F00CFD03461846F1
:100E2000F96E03F011FE03462046194603F004FD57
:100E300003461C46634B1B6818464FF0814103F084
:100E400003FE03461D463B6D1846194603F0F4FCAD
:100E500003464FF07E50194603F0ECFC03461E4655
:100E60007B6C1846194603F0E7FC034630461946EA
:100E700003F0E0FC03461846D7F8BC1003F0DAFC98
:100E800003462846194603F0DFFD0346204619466F
:100E900003F0D0FC03461C46BB6A83F00042494B7A
:100EA0001B681046194603F0CFFD03461D46464B0E
:100EB0001B681846F96A03F0C7FD03462846194621
:100EC00003F0B8FC03461D464FF07C50796C03F0EC
:100ED000B1FC03461846F96B03F0ACFC0346184618
:100EE000396B03F0B1FD03461E46B86CB96D03F0D3
:100EF000A1FC03461846F96A03F0A6FD03463046F6
:100F0000194603F099FC03461846D7F8C01003F0C1
:100F100091FC03462846194603F096FD03462046F9
:100F2000194603F089FC03461C46254B1B681846EE
:100F3000396B03F089FD03461D46204B1B6818469C
:100F4000F96A03F081FD03462846194603F074FC54
:100F500003461D46F86C796D03F06CFC0346184699
:100F6000396B03F071FD03461E46F86D396C03F0D2
:100F700063FC03461846F96A03F066FD03463046F3
:100F8000194603F059FC03461846D7F8C41003F07D
:100F900051FC03462846194603F056FD03462046F9
:100FA000194603F049FC03461C46074B1B681846CC
:100FB000396B03F049FD03461D4607E0F4040020A9
:100FC000EC040020F0040020040000209F4B1B686C
:100FD0001846796A03F038FD03462846194603F09F
:100FE00029FC03461D46B86DB96C03F025FC034689
:100FF0001846396B03F028FD03461E464FF07C501F
:10100000396D03F017FC03461846796C03F012FCA7
:1010100003461846F96A03F017FD034630461946A1
:1010200003F00AFC03461846D7F8C81003F002FC88
:1010300003462846194603F007FD03462046194695
:1010400003F0FAFB0346BB61BB6C1846194603F07C
:10105000F3FB03461846B96E03F0ECFB0346184653
:10106000396803F0E7FB03461846796F03F0ECFCA0
:1010700003461C46FB6D1846194603F0DDFB03468C
:101080001846796E03F0D8FB03461846D7F8B81017
:1010900003F0D0FB03461846396F03F0D5FC034636
:1010A0002046194603F0C8FB03461C46BB6A83F082
:1010B0000042674B1B681046194603F0C5FC034607
:1010C0001D46644B1B681846F96A03F0BDFC0346D5
:1010D0002846194603F0B0FB03461D464FF07C50EE
:1010E000796C03F0A7FB03461846F96B03F0A2FBEB
:1010F00003461846396B03F0A7FC03461E46B86C3E
:10110000B96D03F097FB03461846F96A03F09CFC9F
:1011100003463046194603F08FFB03461846D7F8BE
:10112000C01003F087FB03462846194603F08CFCE9
:1011300003462046194603F07FFB03461C463B6BE3
:1011400083F00042444B1B681046194603F07CFCB8
:1011500003461D463D4B1B681846F96A03F074FCB4
:1011600003462846194603F067FB03461D46F86C04
:10117000796D03F05FFB03461846396B03F064FC9E
:1011800003461E46F86D396C03F056FB03461846BD
:10119000F96A03F059FC03463046194603F04CFB4C
:1011A00003461846D7F8C41003F044FB034628460C
:1011B000194603F049FC03462046194603F03CFB60
:1011C00003461C46234B1B681846396B03F03CFC56
:1011D00003461D46B86DB96C03F02EFB0346184656
:1011E000396B03F031FC03461E464FF07C50396DDD
:1011F00003F020FB03461846796C03F01BFB034603
:101200001846F96A03F020FC03463046194603F0FD
:1012100013FB03461846D7F8C81003F00BFB034630
:101220002846194603F010FC03462046194603F0F1
:1012300003FB03467B61386A396A03F005FC034609
:101240001C46F869F96903F0FFFB07E0F004002091
:10125000F4040020EC040020040000200346204693
:10126000194603F0E9FA03461C46B869B96903F068
:10127000EBFB03462046194603F0DEFA03461C4604
:101280007869796903F0E0FB03462046194603F0CC
:10129000D3FA0346184600F0C5FCC7F88C00386A3C
:1012A000D7F88C1003F0D0FB03463B62F869D7F8FF
:1012B0008C1003F0C9FB0346FB61B869D7F88C10AA
:1012C00003F0C2FB0346BB617869D7F88C1003F0CA
:1012D000BBFB03467B61754B1B681846396A03F0FC
:1012E000B3FB0346D7F89C00194603F0A3FA034664
:1012F000C7F89C306D4B1B681846F96903F0A4FBD6
:101300000346D7F89800194603F094FA0346C7F845
:101310009830664B1B681846B96903F095FB034685
:10132000D7F89400194603F085FA0346C7F89430BD
:101330005E4B1B681846796903F086FB0346D7F8B5
:101340009000194603F076FA0346C7F89030D7F8B4
:101350009C00574903F078FB03461A46554B1B681F
:101360001046194603F068FA03461A46514B1A60B4
:10137000D7F898004E4903F067FB03461A464E4BD8
:101380001B681046194603F057FA03461A464A4BA3
:101390001A60D7F89400464903F056FB03461A46F4
:1013A000464B1B681046194603F046FA03461A4698
:1013B000424B1A60D7F890003D4903F045FB0346C5
:1013C0001A463F4B1B681046194603F035FA034690
:1013D0001A463B4B1A60374B1A68364B1B6810464F
:1013E000194603F031FB03461C46334B1A68324B57
:1013F0001B681046194603F027FB03462046194692
:1014000003F01AFA03461C462C4B1A682B4B1B6838
:101410001046194603F018FB03462046194603F010
:101420000BFA03461C46264B1A68254B1B681046D0
:10143000194603F009FB03462046194603F0FCF960
:101440000346184600F0EEFBC7F88C00194B1B68EA
:101450001846D7F88C1003F0F7FA03461A46154BD6
:101460001A60154B1B681846D7F88C1003F0ECFA7D
:1014700003461A46104B1A60104B1B681846D7F8E3
:101480008C1003F0E1FA03461A460C4B1A600C4B21
:101490001B681846D7F88C1003F0D6FA03461A4694
:1014A000074B1A60A437BD46F0BD00BF0000002006
:1014B0000AD7A33B04000020EC040020F004002025
:1014C000F404002090B59BB000AFF860B9607A607A
:1014D0003B609D4B1B6883F000431846F96803F09E
:1014E000B3FA03461C46994B1B681846B96803F0CB
:1014F000ABFA03462046194603F09CF903461C4606
:10150000934B1B681846796803F09EFA0346204601
:10151000194603F08FF9034618464FF07C5103F04B
:1015200093FA03467B668B4B1B681846F96803F0F9
:101530008BFA03461C46854B1B681846796803F0F6
:1015400083FA03462046194603F076F903461C4603
:101550007F4B1B681846B96803F076FA03462046AD
:10156000194603F067F9034618464FF07C5103F023
:101570006BFA03463B66774B1B681846B96803F065
:1015800063FA03461C46704B1B681846796803F0E3
:101590005BFA03462046194603F04CF903461C4605
:1015A0006B4B1B681846F96803F04EFA0346204659
:1015B000194603F041F9034618464FF07C5103F0F9
:1015C00043FA0346FB65634B1B681846796803F0D2
:1015D0003BFA03461C465C4B1B681846B96803F08F
:1015E00033FA03462046194603F026F903461C4603
:1015F000564B1B681846F96803F026FA0346204646
:10160000194603F017F9034618464FF07C5103F0D2
:101610001BFA0346BB6538684FF0000103F0A8FBD6
:101620000346002B10D0B86F4FF0000103F0A0FB71
:101630000346002B08D0F86F4FF0000103F098FB31
:101640000346002B40F03C823868396803F0FCF90F
:1016500003461C46B86FB96F03F0F6F903462046FF
:10166000194603F0E9F803461C46F86FF96F03F0DA
:10167000EBF903462046194603F0DEF80346184608
:1016800000F0D0FA78653868796D03F0DDF903462B
:101690003B60B86F796D03F0D7F90346BB67F86F0D
:1016A000796D03F0D1F90346FB672A4B1B68184696
:1016B000194603F0C1F803463B65234B1B681846E7
:1016C000194603F0B9F80346FB64204B1B68184623
:1016D000194603F0B1F80346BB641D4B1B6818465E
:1016E000194603F0A9F803467B641A4B1B68184699
:1016F0004FF0814103F0A8F903463B64124B1B688D
:1017000018464FF0814103F09FF90346FB630F4BEE
:101710001B6818464FF0814103F096F90346BB63FE
:10172000094B1B6818464FF0824103F08DF90346C0
:101730007B63064B1B6818464FF0824103F084F927
:1017400003463B6308E000BFEC040020F0040020E7
:10175000F4040020040000209A4B1A68994B1B687F
:101760001046194603F070F90346FB62964B1A685F
:10177000954B1B681046194603F066F90346BB6299
:10178000924B1A68914B1B681046194603F05CF99E
:1017900003467B628E4B1A688D4B1B6810461946B8
:1017A00003F052F903463B62386C796A03F04CF956
:1017B00003461C46B86C396803F046F903462046D8
:1017C000194603F039F803461C46386CB96A03F031
:1017D0003BF903462046194603F02EF803461C4603
:1017E000F86CB96F03F030F903462046194603F050
:1017F00021F80346FB61F86B396A03F025F90346CB
:101800001C46786C396803F01FF9034620461946D8
:1018100003F010F803461C46F86A4FF0814103F0CC
:1018200013F903461A46684B1B681046194603F025
:101830000BF903462046194602F0FEFF03461C46FC
:10184000386DB96F03F000F903462046194602F0DF
:10185000F1FF03461846F96B02F0ECFF03461C4605
:10186000786BB96A03F0F0F803462046194602F097
:10187000E3FF03461C46786B796A03F0E5F80346FC
:101880002046194602F0D8FF03461C46F86BF96F54
:1018900003F0DAF803462046194602F0CDFF03466E
:1018A000BB61F86A4FF0814103F0CEF803461A4657
:1018B000464B1B681046194603F0C6F803461C4603
:1018C000386D396803F0C0F803462046194602F027
:1018D000B3FF03461C46B86B396A03F0B5F80346FC
:1018E0002046194602F0A8FF03461C46786CB96FE3
:1018F00003F0AAF803462046194602F09BFF034670
:101900001846B96B02F096FF03461C46386BB96A5D
:1019100003F09AF803462046194602F08DFF03466D
:101920001C46386B796A03F08FF803462046194647
:1019300002F082FF03461C46B86BF96F03F084F88F
:1019400003462046194602F077FF03467B61B86ADA
:101950004FF0814103F078F803461A461C4B1B6890
:101960001046194603F070F803461C46F86C3968B7
:1019700003F06AF803462046194602F05BFF03466F
:101980001C46786A4FF0814103F05EF803461A4620
:101990000F4B1B681046194603F056F803462046C5
:1019A000194602F049FF03461C46B86CB96F03F0B4
:1019B0004BF803462046194602F03CFF03463B61C4
:1019C00008E000BF04000020EC040020F004002028
:1019D000F4040020F869F96903F036F803461C4660
:1019E000B869B96903F030F803462046194602F099
:1019F00023FF03461C467869796903F025F80346FE
:101A00002046194602F018FF03461C46386939691A
:101A100003F01AF803462046194602F00DFF03466C
:101A2000184600F0FFF87865F869796D03F00CF856
:101A30000346FB61B869796D03F006F80346BB61A4
:101A40007869796D03F000F803467B613869796D38
:101A500002F0FAFF03463B616C4B1B681846F969BC
:101A600002F0F2FF0346786E194602F0E3FE0346E9
:101A70007B66664B1B681846B96902F0E5FF0346B2
:101A8000386E194602F0D6FE03463B665F4B1B6874
:101A90001846796902F0D8FF0346F86D194602F03E
:101AA000C9FE0346FB65594B1B681846396902F0AD
:101AB000CBFF0346B86D194602F0BCFE0346BB657A
:101AC000786E534902F0C0FF03461A46514B1B681B
:101AD0001046194602F0B0FE03461A464D4B1A60F6
:101AE000386E4B4902F0B0FF03461A464A4B1B685A
:101AF0001046194602F0A0FE03461A46464B1A60ED
:101B0000F86D434902F0A0FF03461A46434B1B6899
:101B10001046194602F090FE03461A463F4B1A60E3
:101B2000B86D3B4902F090FF03461A463C4B1B68D8
:101B30001046194602F080FE03461A46384B1A60DA
:101B4000344B1A68334B1B681046194602F07CFF71
:101B500003461C46304B1A682F4B1B68104619462B
:101B600002F072FF03462046194602F065FE034666
:101B70001C462A4B1A68294B1B681046194602F06E
:101B800063FF03462046194602F056FE03461C46F4
:101B9000234B1A68224B1B681046194602F054FF6B
:101BA00003462046194602F047FE0346184600F059
:101BB00039F87865174B1B681846796D02F044FFB9
:101BC00003461A46134B1A60134B1B681846796D6F
:101BD00002F03AFF03461A460F4B1A600F4B1B6880
:101BE0001846796D02F030FF03461A460B4B1A6017
:101BF0000B4B1B681846796D02F026FF03461A4608
:101C0000074B1A606C37BD4690BD00BF0000002036
:101C10000AD7A33B04000020EC040020F0040020BD
:101C2000F404002080B586B000AF786078684FF08B
:101C30007C5102F009FF03467B617B683B6107F141
:101C400010031B68FB60FB685A10134B9B1AFB6068
:101C500007F10C031B683B613B691846796902F088
:101C6000F3FE03461A463B691046194602F0ECFEA5
:101C700003464FF07F50194602F0DCFD03461A463A
:101C80003B691046194602F0DFFE03463B613B69A3
:101C900018461837BD4680BDDF59375F80B483B022
:101CA00000AF03463960FB7197F90730002B0BDA60
:101CB0000D49FB7903F00F03043B3A68D2B21201DD
:101CC000D2B20B441A7609E0084997F907303A680E
:101CD000D2B21201D2B20B4483F800230C37BD46B6
:101CE0005DF8047B704700BF00ED00E000E100E01C
:101CF00080B582B000AF78607B68B3F1807F01D39C
:101D0000012311E00A4B7A6822F07F42013A5A60BF
:101D10004FF0FF300F21FFF7C1FF054B00229A6003
:101D2000034B07221A60002318460837BD4680BDC2
:101D300010E000E02DE9F04F8DB006AF00F022FC7E
:101D400000F07CFC00F0DEFC954B1B68184602F0AE
:101D5000F5F9944BD3E9002302F0A2F802460B46B2
:101D600010461946904BD3E9002302F04DFA024683
:101D70000B461046194602F0E1FC0246884B1A60F9
:101D80008A4B1B68184602F0D9F9894BD3E9002326
:101D900002F086F802460B4610461946854BD3E9F9
:101DA000002302F031FA02460B461046194602F0B3
:101DB000C5FC02467D4B1A607F4B1B68184602F03B
:101DC000BDF97E4BD3E9002302F06AF802460B46C8
:101DD000104619467A4BD3E9002302F015FA024661
:101DE0000B461046194602F0A9FC0246724B1A60D7
:101DF000744B1B68184602F0A1F9734BD3E900231A
:101E000002F04EF802460B46104619466F4BD3E9D6
:101E1000002302F0F9F902460B461046194602F07B
:101E20008DFC0246674B1A60694B1B68184602F02E
:101E300085F9684BD3E9002302F032F802460B46DD
:101E400010461946644BD3E9002302F0DDF902463F
:101E50000B461046194602F071FC02465C4B1A60B4
:101E60005E4B1B68184602F069F95D4BD3E900230D
:101E700002F016F802460B4610461946594BD3E9B4
:101E8000002302F0C1F902460B461046194602F043
:101E900055FC0246514B1A60534B1B68184602F022
:101EA0004DF9524BD3E9002301F0FAFF02460B46ED
:101EB000104619464E4BD3E9002302F0A5F902461D
:101EC0000B461046194602F039FC0246464B1A6092
:101ED000484B1B68184602F031F9474BD3E9002301
:101EE00001F0DEFF02460B4610461946434BD3E98C
:101EF000002302F089F902460B461046194602F00B
:101F00001DFC02463B4B1A603D4B1B68184602F015
:101F100015F93C4BD3E9002301F0C2FF02460B4602
:101F200010461946384BD3E9002302F06DF90246FA
:101F30000B461046194602F001FC0246304B1A606F
:101F4000174B1B68184602F02BFD0346184600F09D
:101F500035FC8046154B1B68184602F021FD0346F0
:101F6000184600F02BFC0646134B1B68184602F07F
:101F700017FD0346184600F021FC0546114B1B686F
:101F8000184602F00DFD0446114B1B68184602F07E
:101F900007FD7860114B1B68184602F001FD35E023
:101FA000180500203800002050000020FC0400200C
:101FB00040000020580000201005002048000020AC
:101FC000600000200C0500200800002020000020F8
:101FD0001C05002010000020280000200005002023
:101FE000180000203000002020050020680000209C
:101FF00080000020040500207000002088000020E0
:102000001405002078000020900000208346844BB7
:102010001B68184602F0C4FC8246824B1B681846B7
:1020200002F0BEFC8146804B1B68184602F0B8FCEB
:1020300003467A680092CDF804B0CDF808A0CDF838
:102040000C900493404631462A462346FEF7CEF8CC
:10205000764B1A68754B1B681046194602F0F4FC63
:1020600003467B61724B1A68714B1B681046194618
:1020700002F0EAFC03463B616E4B1A686D4B1B682D
:102080001046194602F0E0FC0346FB60684B1A68F4
:10209000684B1B681046194602F0D6FC03461C46E6
:1020A000654B1A68614B1B681046194602F0CCFC60
:1020B00003462046194602F0BFFB03461846194660
:1020C00002F0BAFB0346184602F04AF804460D46F1
:1020D0007869396902F0B0FB03461846194602F0E8
:1020E000ABFB03464FF07E50194602F0A3FB0346BC
:1020F000184602F035F802460B462046294601F004
:10210000A7F802460B461046194602F03FFB03466D
:10211000184600F063FB0246484B1A60434B1A68AE
:10212000444B1B681046194602F08EFC03461C46C1
:10213000414B1A683E4B1B681046194602F084FC5E
:1021400003462046194602F075FB03461846194619
:1021500002F072FB0346184602F002F802460B46F4
:102160001046194601F020F802460B461046194663
:1021700002F00CFB034683F00043184600F02EFBF0
:1021800002462F4B1A60294B1A68294B1B681046D0
:10219000194602F059FC03461C46274B1A68254B8A
:1021A0001B681046194602F04FFC034620461946AC
:1021B00002F042FB03461846194602F03DFB034677
:1021C000184601F0CDFF04460D463869F96802F063
:1021D00033FB03461846194602F02EFB03464FF028
:1021E0007E50194602F026FB0346184601F0B8FF60
:1021F00002460B462046294601F02AF802460B46C5
:102200001046194602F0C2FA0346184600F0E6FAF4
:1022100002460C4B1A601C37BD46BDE8F08F00BF6C
:10222000200500200405002014050020EC040020F7
:10223000F0040020F4040020040000200805002021
:1022400024050020F804002080B584B000AF00F021
:10225000A7FC00F0D1FC00F0ABF80820012100F051
:102260007DFB4FF470437B6001233B720023BB7204
:1022700003237B720023FB723B1D4848194600F084
:10228000A9FB4748D221002200F0D8F84448202179
:1022900000F018F94248BF2100F014F9404800F05E
:1022A00065F93F48D221002200F0C8F83C482321BC
:1022B00000F008F93A48102100F004F9384800F01D
:1022C00055F937483021002200F0B8F83448202171
:1022D00000F0F8F83248372100F0F4F8304800F008
:1022E00045F92F483021002200F0A8F82C4823217E
:1022F00000F0E8F82A48302100F0E4F8284800F01F
:1023000035F927483C21002200F098F824480021A4
:1023100000F0D8F82248202100F0D4F8204800F03E
:1023200025F91F483C21002200F088F81C480121B3
:1023300000F0C8F81A48202100F0C4F8184800F04E
:1023400015F917483C21002200F078F814480221C2
:1023500000F0B8F81248002100F0B4F8104800F07E
:1023600005F9104B1A68104BA3FB02139B09184682
:10237000FFF7BEFC0346002B00D0FEE707484FF4F2
:10238000804100F0B5FB0023FB6002E0FB680133F5
:10239000FB60FA68054B9A42F8D9EFE7000C02405F
:1023A00000540040A80000201F85EB513F420F0061
:1023B00080B586B000AF4FF40010012100F0ECFAB8
:1023C0000220012100F0CAFAC0233B6102233B75C1
:1023D00002237B750123BB750123FB7507F11003F5
:1023E0001348194600F0F6FA11480621042200F0BD
:1023F00091FB0F480721042200F08CFB0D4B3B6042
:102400000023BB804BF6FF73FB8000233B8100233E
:102410007B814FF48043BB813B460748194600F05F
:10242000E1FC0548012100F09FFD1837BD4680BD45
:1024300000040240801A06000054004080B582B0BB
:1024400000AF786013460A46FA70BB7000BF786828
:102450004FF4003100F074FE0346002BF7D178688A
:10246000012100F0A1FD00BF7868134900F038FE9B
:102470000346002BF8D0FA78BB78786811461A46E4
:1024800000F0D2FDBB78002B08D100BF78680B4963
:1024900000F026FE0346002BF8D00AE0BB78012BA3
:1024A00007D100BF7868064900F01AFE0346002BEA
:1024B000F8D00837BD4680BD010003008200070048
:1024C0000200030080B582B000AF78600B46FB705D
:1024D000FB787868194600F0E5FD00BF786804498C
:1024E00000F0FEFD0346002BF8D00837BD4680BD46
:1024F0008000070080B584B000AF78607868012163
:1025000000F0B0FD00BF7868074900F0E9FD034620
:10251000002BF8D0786800F0D5FD0346FB73FB7BF9
:1025200018461037BD4680BD4000030080B584B01A
:1025300000AF78607868002100F094FD7868012190
:1025400000F052FD00BF7868074900F0C9FD03465E
:10255000002BF8D0786800F0B5FD0346FB73FB7BD9
:1025600018461037BD4680BD4000030080B582B0DC
:1025700000AF78607868012100F036FD0837BD466D
:1025800080BD00BF80B582B000AF2848D2210022B4
:10259000FFF754FF2548A821FFF794FF2348FFF7D2
:1025A000E5FF2248D3210122FFF748FF1F48FFF72C
:1025B000A1FF0346FB711D48FFF79CFF0346BB715B
:1025C0001A48FFF797FF03467B711848FFF792FF01
:1025D00003463B711548FFF78DFF0346FB70134818
:1025E000FFF7A4FF0346BB70BB791B029AB2FB79CD
:1025F0009BB213439BB21AB20D4B1A603B791B027C
:102600009AB27B799BB213439BB21AB2094B1A6000
:10261000BB781B029AB2FB789BB213439BB21AB2EF
:10262000054B1A600837BD4680BD00BF005400400E
:1026300018050020FC0400201005002080B582B0A1
:1026400000AF2C4830210022FFF7F8FE2948A821CE
:10265000FFF738FF2748FFF789FF2648312101227D
:10266000FFF7ECFE2348FFF745FF0346FB712148C7
:10267000FFF740FF0346BB711E48FFF73BFF0346D1
:102680007B711C48FFF736FF03463B711948FFF783
:1026900031FF0346FB701748FFF748FF0346BB7046
:1026A000BB791B029AB2FB799BB213439BB21BB25C
:1026B0001B119BB21AB2104B1A603B791B029AB2E3
:1026C0007B799BB213439BB21BB21B119BB21AB214
:1026D0000A4B1A60BB781B029AB2FB789BB2134379
:1026E0009BB21BB21B119BB21AB2054B1A60083782
:1026F000BD4680BD005400400C0500201C05002094
:102700000005002080B582B000AF28483C2100229F
:10271000FFF794FE25480321FFF7D4FE2348FFF777
:1027200025FF22483D210122FFF788FE1F48FFF7C1
:10273000E1FE0346FB711D48FFF7DCFE0346BB715B
:102740001A48FFF7D7FE03467B711848FFF7D2FE01
:1027500003463B711548FFF7CDFE0346FB70134857
:10276000FFF7E4FE0346BB70FB791B029AB2BB790C
:102770009BB213439BB21AB20D4B1A60FB781B023B
:102780009AB2BB789BB213439BB21AB2094B1A6040
:102790007B791B029AB23B799BB213439BB21AB26C
:1027A000054B1A600837BD4680BD00BF005400408D
:1027B00020050020040500201405002080B582B00B
:1027C00000AF78607868044902F03EF90346184685
:1027D0000837BD4680BD00BF35FA8E3C80B582B05B
:1027E00000AF78607868064902F02EF90346184673
:1027F000044902F0DDF9034618460837BD4680BD9E
:1028000000003443DB0F494080B489B000AF7860EA
:102810000023BB6100237B610023FB6102233B613A
:102820000023FB600223BB60484B9B6803F00C0352
:10283000BB61BB69042B07D0082B09D0002B3FD10B
:102840007B68434A1A603FE07B68424A1A603BE07B
:102850003E4B5B6803F480039B0DFB603B4B5B6866
:1028600003F03F03BB60FB68002B0DD0394ABB6807
:10287000B2FBF3F2354B596847F6C0730B409B0926
:1028800003FB02F3FB610CE0314ABB68B2FBF3F2DD
:102890002E4B596847F6C0730B409B0903FB02F3AC
:1028A000FB612A4B5B6803F440331B0C01335B0074
:1028B0003B61FA693B69B2FBF3F27B681A6003E0A3
:1028C0007B68234A1A6000BF204B9B6803F0F0032B
:1028D000BB61BB691B09BB611F4ABB6913441B7801
:1028E000DBB27B617B681A687B69DA407B685A607F
:1028F000164B9B6803F4E053BB61BB699B0ABB6149
:10290000154ABB6913441B78DBB27B617B685A684C
:102910007B69DA407B689A600C4B9B6803F46043E8
:10292000BB61BB695B0BBB610B4ABB6913441B7882
:10293000DBB27B617B685A687B69DA407B68DA606E
:102940002437BD465DF8047B704700BF0038024065
:102950000024F40000127A009800002080B483B0B4
:1029600000AF78600B46FB70FB78002B06D0094B5C
:10297000084A116B7A680A431A6306E0054B054A58
:10298000116B7A68D2430A401A630C37BD465DF872
:10299000047B70470038024080B483B000AF786099
:1029A0000B46FB70FB78002B06D0094B084A116CD4
:1029B0007A680A431A6406E0054B054A116C7A6886
:1029C000D2430A401A640C37BD465DF8047B704759
:1029D0000038024080B487B000AF786039600023CF
:1029E0007B6100233B610023FB6000237B6176E079
:1029F0007B69012202FA03F33B613B681A683B6979
:102A00001340FB60FA683B699A4265D17B681A689B
:102A10007B695B00032101FA03F3DB431A407B6807
:102A20001A607B681A683B681B7919467B695B00F2
:102A300001FA03F31A437B681A603B681B79012B88
:102A400003D03B681B79022B2ED17B689A687B6987
:102A50005B00032101FA03F3DB431A407B689A60B1
:102A60007B689A683B685B7919467B695B0001FA71
:102A700003F31A437B689A607B685A687B699BB250
:102A8000012101FA03F3DB431A407B685A607B683B
:102A90005A683B689B7919467B699BB201FA03F33C
:102AA0009BB21A437B685A607B68DA687B699BB289
:102AB0005B00032101FA03F3DB431A407B68DA6011
:102AC0007B68DA683B68DB7919467B695B0001FA51
:102AD00003F31A437B68DA607B6901337B617B69AE
:102AE0000F2B85D91C37BD465DF8047B704700BFAE
:102AF00080B483B000AF78600B467B807B685A69F6
:102B00007B885A407B685A610C37BD465DF8047B70
:102B1000704700BF80B485B000AF786013460A46A6
:102B20007A807B700023FB600023BB607A787B880F
:102B300003F007039B0002FA03F3FB607B88DB08CA
:102B40009BB21A467B88DB089BB219467B6808312A
:102B500053F821107B8803F007039B000F2000FA35
:102B600003F3DB4319407B68083243F822107B886B
:102B7000DB089BB21A467B68083253F82220FB68B8
:102B80001343BB607B88DB089BB21A467B68083224
:102B9000B96843F822101437BD465DF8047B7047CE
:102BA00080B500AF114B114A126842F001021A6061
:102BB0000E4B00229A600D4A0C4B1B6823F0847365
:102BC00023F480331360094B094A5A60074B074AC4
:102BD000126822F480221A60044B0022DA6000F0AE
:102BE00087F8044B4FF000629A6080BD00380240C5
:102BF0001030002400ED00E080B487B000AF002367
:102C00003B6100237B610223FB600023BB60022346
:102C10007B60324B9B6803F00C033B613B69042BE8
:102C200007D0082B09D0002B3FD12D4B2D4A1A601D
:102C30003FE02B4B2C4A1A603BE0284B5B6803F4C7
:102C400080039B0DBB60254B5B6803F03F037B60FB
:102C5000BB68002B0DD0244A7B68B2FBF3F21F4BFC
:102C6000596847F6C0730B409B0903FB02F37B6175
:102C70000CE01C4A7B68B2FBF3F2184B596847F62C
:102C8000C0730B409B0903FB02F37B61134B5B6832
:102C900003F440331B0C01335B00FB607A69FB6873
:102CA000B2FBF3F20E4B1A6003E00D4B0D4A1A60B3
:102CB00000BF0A4B9B6803F0F0031B090B4AD35C6F
:102CC000DBB23B61064B1A683B69DA40044B1A6081
:102CD0001C37BD465DF8047B704700BF00380240DA
:102CE000A80000200024F40000127A00AC000020AC
:102CF00080B483B000AF00237B6000233B60354B82
:102D0000344A126842F480321A60324B1B6803F472
:102D100000333B607B6801337B603B68002B03D151
:102D20007B68B3F5A06FF0D12A4B1B6803F4003326
:102D3000002B02D001233B6001E000233B603B6895
:102D4000012B42D1234B234A126C42F080521A6469
:102D5000214B214A126842F480421A601D4B1D4AE1
:102D600092689A601B4B1B4A926842F400429A6038
:102D7000184B184A926842F4A0529A60154B174AB1
:102D80005A60144B134A126842F080721A6000BFF6
:102D9000104B1B6803F00073002BF9D0104B40F26E
:102DA00005621A600B4B0B4A926822F003029A608C
:102DB000084B084A926842F002029A6000BF054B35
:102DC0009B6803F00C03082BF9D10C37BD465DF866
:102DD000047B7047003802400070004008544007F0
:102DE000003C024080B58AB000AF786039600023B3
:102DF000FB8400237B840423BB84574BFB617B68EB
:102E00009B88FB84FB8C23F03F03FB8407F10C03BE
:102E10001846FFF7F9FC7B69FB61FA694F4BA3FB8E
:102E200002139B0C7B84FA8C7B8C1343FB847B68A2
:102E3000FA8C9A807B681B889BB223F001039AB2BC
:102E40007B681A800023FB843B681A68444B9A42D3
:102E500015D83B681B685B00FA69B2FBF3F3BB84CF
:102E6000BB8C032B01D80423BB84FA8CBB8C13438B
:102E7000FB847B8C01339AB27B681A8440E03B6808
:102E8000DA884BF6FF739A4209D13B681A681346F9
:102E90005B001344FA69B2FBF3F3BB840EE03B68BA
:102EA0001A6813469B0013449A001344FA69B2FB54
:102EB000F3F3BB84BB8C43F48043BB84BB8CC3F370
:102EC0000B03002B03D1BB8C43F00103BB84BA8CF2
:102ED000FB8C13439BB26FEA43436FEA5343FB847B
:102EE0007B8C4FF4967202FB03F31E4A82FB0312A3
:102EF0009211DB17D31A9BB201339AB27B681A8402
:102F00007B68FA8C9A837B681B889BB243F0010331
:102F10009AB27B681A807B681B88FB84FB8C23F445
:102F2000816323F00203FB843B689A883B685B89DA
:102F300013439AB2FB8C1343FB847B68FA8C1A8090
:102F40003B689A893B681B8913439AB27B681A8154
:102F50002837BD4680BD00BF00127A0083DE1B43C8
:102F6000A0860100D34D621080B483B000AF7860BA
:102F70000B46FB70FB78002B08D07B681B889BB24C
:102F800043F001039AB27B681A8007E07B681B88D4
:102F90009BB223F001039AB27B681A800C37BD46BE
:102FA0005DF8047B704700BF80B483B000AF7860E9
:102FB0000B46FB70FB78002B08D07B681B889BB20C
:102FC00043F480739AB27B681A8007E07B681B88A1
:102FD0009BB223F480739AB27B681A800C37BD468B
:102FE0005DF8047B704700BF80B483B000AF7860A9
:102FF0000B46FB70FB78002B08D07B681B889BB2CC
:1030000043F400739AB27B681A8007E07B681B88E0
:103010009BB223F400739AB27B681A800C37BD46CA
:103020005DF8047B704700BF80B483B000AF786068
:1030300013460A46FA70BB70BB78002B04D0FB78AD
:1030400043F00103FB7003E0FB7823F00103FB7006
:10305000FB789AB27B681A820C37BD465DF8047B18
:10306000704700BF80B483B000AF78600B46FB7040
:10307000FB78002B08D07B681B889BB243F48063ED
:103080009AB27B681A8007E07B681B889BB223F4A6
:1030900080639AB27B681A800C37BD465DF8047B6A
:1030A000704700BF80B483B000AF78600B46FB7000
:1030B000FB789AB27B681A820C37BD465DF8047BB8
:1030C000704700BF80B483B000AF78607B681B8A14
:1030D0009BB2DBB218460C37BD465DF8047B7047E7
:1030E00080B487B000AF7860396000233B61002373
:1030F000FB600023BB600023FB757B689B8A9BB24F
:10310000FB607B681B8B9BB2BB60BB681B04BB6016
:10311000FA68BB68134323F07F433B613A693B681D
:103120001A403B689A4202D10123FB7501E000235B
:10313000FB75FB7D18461C37BD465DF8047B704768
:1031400080B487B000AF786039600023FB7500233E
:103150003B610023FB607B68FB603B681B0F3B61AE
:103160003B6823F07F433B603B69002B03D0FB6847
:103170001433FB6005E03B681B0C3B60FB681833B5
:10318000FB60FB681A683B681340002B02D00123E8
:10319000FB7501E00023FB75FB7D18461C37BD461F
:1031A0005DF8047B704700BF2DE9F041DFF89C809B
:1031B0008AB004460D4600F0A3F898F900300133B8
:1031C00006460F4604D02046294600F035FE20B9B9
:1031D000304639460AB0BDE8F0812046294600F065
:1031E00027FE0022164B01F09FFA0028F0D00123A1
:1031F000144A00931448019200230893CDE9044532
:10320000CDE9024500F042FE98F90030022BCDE9ED
:1032100006010AD0684600F037FE30B1089B4BB972
:10322000DDE906010AB0BDE8F08101F0D3FD2123FC
:103230000360F3E701F0CEFD089B0360F0E700BFF9
:103240000000F03FE04D0008E44D0008BC00002005
:1032500000F08EBA2DE9F047DFF8A0A08AB004464E
:103260000D4600F07DFB9AF90030013306460F460B
:103270000FD02046294600F0DFFD50B14FF0000886
:103280004FF0000942464B462046294601F02EFAEF
:1032900020B9304639460AB0BDE8F087164B9AF897
:1032A0000060019301220023CDE90445CDE90245E8
:1032B0000092089366B9CDE90689684600F0E4FDFE
:1032C00080B1089B9BB9DDE906010AB0BDE8F08733
:1032D0004046494642464B4601F0C0F8022ECDE931
:1032E0000601EAD101F076FD21230360E9E701F050
:1032F00071FD089B0360E6E7E84D0008BC00002074
:103300002DE9F04FAE4B21F00048984587B00446B8
:103310000D460F4611DD08F1404808F5801858EABF
:10332000000820D002460B4600F0BAFD02460B46CC
:1033300001F094F807B0BDE8F08FA24B984529DC66
:10334000B8F1795F80F2698181A3D3E9002300F0AD
:10335000A9FD00229C4B01F0E7F9D8B1204629468F
:1033600007B0BDE8F08F7CA3D3E9002300F04CFF49
:103370007BA3D3E9002306460F462046294600F0EA
:1033800043FF02460B463046394600F08BFD07B03E
:10339000BDE8F08F2046294600F04AFD02460B4664
:1033A0000020894900F07CFD0022884B00F02CFFB2
:1033B0006DA3D3E9002304460D4600F025FF6CA35E
:1033C000D3E9002300F06EFD22462B4600F01CFFDF
:1033D00069A3D3E9002300F063FD22462B4600F0E9
:1033E00013FF67A3D3E9002300F05CFD22462B46C0
:1033F00000F00AFF64A3D3E9002300F051FD224648
:103400002B4600F001FF62A3D3E9002300F04AFD40
:1034100022462B4600F0F8FE5FA3D3E90023CDE956
:1034200000012046294600F0EFFE5DA3D3E900230A
:1034300000F036FD22462B4600F0E6FE5AA3D3E903
:10344000002300F02FFD22462B4600F0DDFE58A39E
:10345000D3E9002300F024FD22462B4600F0D4FEE1
:10346000594B002200F01EFDCDE9020120462946FD
:1034700000F076FA564B984582468B4600F3AA80B8
:1034800002460B4600F00EFDDDE90223CDE9040102
:10349000DDE9000100F0E2FF02460B46DDE9040130
:1034A00000F0B2FE4FF00008CDE9000142465B4655
:1034B0004046594600F0A8FE02460B4620462946E3
:1034C00000F0EEFC424604460D465B465046594627
:1034D00000F0E8FC02460B462046294600F0BEFFFD
:1034E00002460B4600F0DEFC02460B461CA1D1E969
:1034F000000100F0D5FC02460B46DDE9000100F0BA
:10350000CFFC424604460D465B464046594600F015
:10351000C9FC02460B4628A1D1E9000100F0C0FC1D
:1035200002460B462046294600F0BAFC02460B46EE
:1035300021A1D1E9000100F0B3FC02460B46002FA7
:1035400040F3DE801046194607B0BDE8F08F00BF9B
:103550009C7500883CE4377E182D4454FB21F93FCC
:10356000075C143326A6913C09F7FD0DE13D023FAF
:1035700088B20175E0EF493F3B8F68B52882A43FD0
:103580005544880E55C1C93F7D6FEB0312D6D43F19
:10359000555555555555C53F82922EB1C5B8B33FC7
:1035A00059018D1B6C06E63FC88A599CE52A0040EC
:1035B0004B2D8A1C273A0340182D4454FB21E93F28
:1035C000FFFFEF3FFFFFDF3F0000F03F0000E03F65
:1035D0003233EF3FDDE90223DDE9000100F03EFF79
:1035E00002460B465046594600F00EFE52465B46D8
:1035F00000F058FC02460B4600F054FC42A3D3E90D
:10360000002300F04DFC02460B4641A1D1E9000128
:1036100000F046FC02460B4691E702460B4600F0DE
:10362000F3FD3DA3D3E9002306460F4600F0ECFD71
:103630003BA3D3E9002300F035FC32463B4600F0C3
:10364000E3FD39A3D3E9002300F02AFC32463B46D0
:1036500000F0DAFD36A3D3E9002300F023FC324664
:103660003B4600F0D1FD34A3D3E9002300F018FC61
:1036700032463B4600F0C8FD31A3D3E9002300F0F9
:1036800011FC32463B4600F0BFFD2FA3D3E90023D7
:10369000804689463046394600F0B6FD2CA3D3E972
:1036A000002300F0FDFB32463B4600F0ADFD2AA3AF
:1036B000D3E9002300F0F6FB32463B4600F0A4FDC0
:1036C00027A3D3E9002300F0EBFB32463B4600F092
:1036D0009BFD0022244B00F0E5FB02460B464046D2
:1036E000494600F0BBFE02460B462046294600F044
:1036F0008BFD22462B4600F0D5FB07B0BDE8F08FCE
:10370000104603F1004115E6075C143326A6913CF0
:10371000182D4454FB21F93F09F7FD0DE13D023F0F
:1037200088B20175E0EF493F3B8F68B52882A43F1E
:103730005544880E55C1C93F7D6FEB0312D6D43F67
:10374000555555555555C53F82922EB1C5B8B33F15
:1037500059018D1B6C06E63FC88A599CE52A00403A
:103760004B2D8A1C273A03400000F03FAFF3008046
:103770002DE9F047C2F1000949EA020923F00048A7
:10378000DFF8D4C148EAD97982B0E14514461D4634
:10379000CDE900010F4647D8C0F1000A4AEA000A05
:1037A00021F0004949EADA7AE2453DD803F1404C7C
:1037B0000CF5801C5CEA020C4CD04FEAA37A0AF0AC
:1037C000020A4AEAD17A59EA000136D058EA0401DD
:1037D0003AD06149884551D05F49894534D0C8EB1A
:1037E00009084FEA2858B8F13C0F43DC002D70DB84
:1037F000DDE9000100F032FE00F01AFB00F070F984
:10380000BAF1010F62D0BAF1020F52D0BAF1000F33
:1038100010D03FA3D3E9002300F042FB3EA3D3E93D
:10382000002300F03DFB05E010461946DDE90023CA
:1038300000F038FB02B0BDE8F087BAF1030FC5D83D
:10384000DFE80AF00D0D1410002F2EDB34A1D1E9B2
:103850000001EFE702B0BDE8F04700F041B9DDE953
:103860000001E7E730A1D1E90001E3E72AA1D1E9AE
:103870000001DFE72AA1D1E90001C1E7C1452ED04F
:10388000BAF1030FA8D801A151F82AF0A538000811
:103890009D3800086D3800086538000800204FF09A
:1038A0000041C7E700200021C4E721A1D1E90001C0
:1038B000C0E717A3D3E9002300F0F2FA02460B4653
:1038C00015A1D1E9000100F0EBFAB3E701F10041E5
:1038D000B0E718F13C0F8BDA0020002190E7BAF135
:1038E000030FB1D8DFE80AF006020E0A12A1D1E9EF
:1038F00000019FE712A1D1E900019BE712A1D1E9E4
:10390000000197E712A1D1E9000193E7AFF300802E
:10391000075C143326A6A13C182D4454FB21094012
:10392000182D4454FB21F93F182D4454FB2109C0A4
:10393000182D4454FB21F9BF182D4454FB21E9BF35
:10394000182D4454FB21E93FD221337F7CD902C09A
:10395000D221337F7CD902400000F07FAFF300809A
:1039600021F0004C2DE9F8434FEA1C5CDFF86C8134
:103970004FEA0C5CC44506460F460B46024600F073
:103980008F8000296FDD0F1578D0A7F2FF37C3F3C2
:103990001303F90743F4801360D4D10F4FF0000CE8
:1039A00001EB43037F105200654616204FF40011CF
:1039B0006C189C424FEAD2764FEA420202DC1B1B93
:1039C00065188C44013806EB43034FEA5101EFD1EF
:1039D000804620264FF0004109E023D0D40F013E5D
:1039E0004FEA510104EB43034FEA42021ED0AB42BF
:1039F00001EB0804F1DD04F00049B9F1004F04EBDC
:103A0000010809D0A9465B1B944288BF03F1FF332C
:103A1000121B08444D46E1E7B8F1000FF2DB05F157
:103A20000109F0E79442E6D91D46D7E71A4304D0CE
:103A3000431C41D000F00103184446084FEA6C03D0
:103A40001CF0010F03F17F5303F5001318BF46F07C
:103A5000004603EB07513046BDE8F883D10F01EB78
:103A60004303520099E721F00043034322D051BBA6
:103A70000F46D30A153F5205002BFAD013F48011DC
:103A80001DD15B00D80201F10101FAD5C1F101009D
:103A9000C1F1200422FA04F4234307448A4074E766
:103AA00002460B4600F0B0FB32463B4600F0FAF906
:103AB000BDE8F883BDE8F8830CF1010CBEE72024D3
:103AC00001200021E6E702460B4600F0E9F9024634
:103AD0000B4600F0C3FCBDE8F88300BF0000F07F98
:103AE0002DE9F04FB64B21F000469E4283B00446CC
:103AF0000D4689460FDDB3498E4200F3B38000F0D6
:103B0000AE80B9F1000F40F3EF8091A1D1E900013F
:103B100003B0BDE8F08FAC4B9E4200F3BD80A3F133
:103B2000DE739E4240F3A7804FF0FF3C22462B46B7
:103B300020462946CDF804C000F066FB02460B463D
:103B400082468B4600F060FB83A3D3E90023064640
:103B50000F4600F059FB82A3D3E9002300F0A2F93D
:103B600032463B4600F050FB7FA3D3E9002300F030
:103B700099F932463B4600F047FB7DA3D3E9002389
:103B800000F090F932463B4600F03EFB7AA3D3E9C1
:103B9000002300F087F932463B4600F035FB78A35E
:103BA000D3E9002300F07EF952465B4600F02CFB7F
:103BB00075A3D3E9002382468B463046394600F090
:103BC00023FB73A3D3E9002300F06AF932463B4696
:103BD00000F01AFB70A3D3E9002300F061F932462C
:103BE0003B4600F011FB6EA3D3E9002300F058F927
:103BF00032463B4600F008FB6BA3D3E9002300F0FC
:103C00004FF932463B4600F0FFFADDF804C0BCF144
:103C1000FF3F02460B466BD0504659464FEACC0652
:103C200000F040F922462B4600F0EEFA674F684B51
:103C300037441E44D6E9002300F032F922462B46D1
:103C400000F02EF902460B46D7E9000100F028F9F2
:103C5000B9F1000F0CDA01F10045294608E000280F
:103C60003FF44FAF2046294622462B4600F01AF972
:103C700003B0BDE8F08F4EA3D3E9002300F012F9A2
:103C80000022544B00F050FD00283FF44DAF204679
:103C9000294603B0BDE8F08F00F0CAF84E4B9E42B3
:103CA00004460D4633DCA3F550239E4200F3A58065
:103CB00002460B4600F0F6F80022464B00F0F0F802
:103CC000002206460F46204629464FF0804300F06A
:103CD000E9F802460B463046394600F0BFFB4FF08C
:103CE000000C04460D4621E733A1D1E90001BFE7EE
:103CF0005046594600F0D6F822462B4600F084FA8A
:103D000002460B462046294600F0CAF8B0E7334B7E
:103D10009E4267DC0022324B00F0C2F800220646C9
:103D20000F46204629462E4B00F06EFA0022294B02
:103D300000F0B8F802460B463046394600F08EFBDC
:103D40004FF0020C04460D46F0E600BFAFF30080D2
:103D5000182D4454FB21F93F11DA22E33AAD903F8C
:103D6000EB0D76244B7BA93F513DD0A0660DB13FB2
:103D70006E204CC5CD45B73FFF8300922449C23F1A
:103D80000D5555555555D53F2F6C6A2C44B4A2BFDF
:103D90009AFDDE522DDEAD3F6D9A74AFF2B0B33FA7
:103DA000711623FEC671BC3FC4EB98999999C93F1F
:103DB0009C7500883CE4377E182D4454FB21F9BFE4
:103DC000FFFF0F440000F07FFFFFDB3F104E0008B5
:103DD000F04D00080000F03FFFFFF23FFF7F03407F
:103DE0000000F83F02460B4600200F4900F036FB6A
:103DF0004FF0030C04460D4698E600220B4B00F0F2
:103E00004FF8002206460F4620462946074B00F091
:103E100049F802460B463046394600F01FFB4FF08A
:103E2000010C04460D4681E60000F0BF0000F03FA3
:103E300021F00041704700BF31F0004310B408D0BA
:103E40000F4AA3F5801494420AD804205DF8044B6D
:103E5000704700280CBF022003205DF8044B704718
:103E6000B3F5801F01D20320F7E7064A934201D041
:103E70000020F2E7D0F1010038BF0020EDE700BFDD
:103E8000FFFFDF7F0000F07F002070470020014926
:103E9000704700BF0000F87F81F0004102E000BFE2
:103EA00083F0004330B54FEA41044FEA430594EAFA
:103EB000050F08BF90EA020F1FBF54EA000C55EA35
:103EC000020C7FEA645C7FEA655C00F0E2804FEA06
:103ED0005454D4EB5555B8BF6D420CDD2C4480EAE8
:103EE000020281EA030382EA000083EA010180EA18
:103EF000020281EA0303362D88BF30BD11F0004F66
:103F00004FEA01314FF4801C4CEA113102D040429B
:103F100061EB410113F0004F4FEA03334CEA1333D6
:103F200002D0524263EB430394EA050F00F0A780EE
:103F3000A4F10104D5F1200E0DDB02FA0EFC22FAE9
:103F400005F2801841F1000103FA0EF2801843FADD
:103F500005F359410EE0A5F120050EF1200E012ACE
:103F600003FA0EFC28BF4CF0020C43FA05F3C0180C
:103F700051EBE37101F0004507D54FF0000EDCF185
:103F8000000C7EEB00006EEB0101B1F5801F1BD32E
:103F9000B1F5001F0CD349085FEA30004FEA3C0C32
:103FA00004F101044FEA445212F5800F80F09A8028
:103FB000BCF1004F08BF5FEA500C50F1000041EB2C
:103FC000045141EA050130BD5FEA4C0C404141EB30
:103FD000010111F4801FA4F10104E9D191F0000F57
:103FE00004BF01460020B1FA81F308BF2033A3F1DA
:103FF0000B03B3F120020CDA0C3208DD02F1140CD1
:10400000C2F10C0201FA0CF021FA02F10CE002F10B
:104010001402D8BFC2F1200C01FA02F120FA0CFC04
:10402000DCBF41EA0C019040E41AA2BF01EB04514D
:10403000294330BD6FEA04041F3C1CDA0C340EDC4B
:1040400004F11404C4F1200220FA04F001FA02F38E
:1040500040EA030021FA04F345EA030130BDC4F14C
:104060000C04C4F1200220FA02F001FA04F340EA41
:104070000300294630BD21FA04F0294630BD94F0F2
:10408000000F83F4801306BF81F480110134013DD9
:104090004EE77FEA645C18BF7FEA655C29D094EA4A
:1040A000050F08BF90EA020F05D054EA000C04BFC8
:1040B0001946104630BD91EA030F1EBF00210020B3
:1040C00030BD5FEA545C05D14000494128BF41F052
:1040D000004130BD14F580043CBF01F5801130BDB6
:1040E00001F0004545F0FE4141F470014FF0000041
:1040F00030BD7FEA645C1ABF194610467FEA655CF2
:104100001CBF0B46024650EA013406BF52EA033593
:1041100091EA030F41F4002130BD00BF90F0000F81
:1041200004BF0021704730B54FF4806404F13204BD
:104130004FF000054FF0000150E700BF90F0000F76
:1041400004BF0021704730B54FF4806404F132049D
:1041500010F0004548BF40424FF000013EE700BF6D
:1041600042004FEAE2014FEA31014FEA02701FBFFD
:1041700012F07F4393F07F4F81F06051704792F0CF
:10418000000F14BF93F07F4F704730B54FF4607449
:1041900001F0004521F0004120E700BF50EA010294
:1041A00008BF704730B54FF000050AE050EA010241
:1041B00008BF704730B511F0004502D5404261EBB1
:1041C00041014FF4806404F132045FEA915C3FF4F2
:1041D000DCAE4FF003025FEADC0C18BF03325FEA8B
:1041E000DC0C18BF033202EBDC02C2F1200300FA40
:1041F00003FC20FA02F001FA03FE40EA0E0021FA65
:1042000002F11444C1E600BF70B54FF0FF0C4CF44E
:10421000E06C1CEA11541DBF1CEA135594EA0C0F04
:1042200095EA0C0F00F0DEF82C4481EA030621EA3F
:104230004C5123EA4C5350EA013518BF52EA03357A
:1042400041F4801143F4801338D0A0FB02CE4FF02C
:104250000005E1FB02E506F00042E0FB03E54FF05C
:104260000006E1FB03569CF0000F18BF4EF0010E54
:10427000A4F1FF04B6F5007F64F5407404D25FEA50
:104280004E0E6D4146EB060642EAC62141EA555103
:104290004FEAC52040EA5E504FEACE2EB4F1FD0C45
:1042A00088BFBCF5E06F1ED8BEF1004F08BF5FEAC3
:1042B000500E50F1000041EB045170BD06F0004675
:1042C00046EA010140EA020081EA0301B4EB5C0422
:1042D000C2BFD4EB0C0541EA045170BD41F480111A
:1042E0004FF0000E013C00F3AB8014F1360FDEBF3F
:1042F000002001F0004170BDC4F10004203C35DA1B
:104300000C341BDC04F11404C4F1200500FA05F39D
:1043100020FA04F001FA05F240EA020001F000423E
:1043200021F0004110EBD37021FA04F642EB0601B4
:104330005EEA430E08BF20EAD37070BDC4F10C04DE
:10434000C4F1200500FA04F320FA05F001FA04F2A2
:1043500040EA020001F0004110EBD37041F100018E
:104360005EEA430E08BF20EAD37070BDC4F1200599
:1043700000FA05F24EEA020E20FA04F301FA05F201
:1043800043EA020321FA04F001F0004121FA04F2A9
:1043900020EA020000EBD3705EEA430E08BF20EA79
:1043A000D37070BD94F0000F0FD101F000464000B3
:1043B00041EB010111F4801F08BF013CF7D041EA35
:1043C000060195F0000F18BF704703F00046520039
:1043D00043EB030313F4801F08BF013DF7D043EA0A
:1043E0000603704794EA0C0F0CEA135518BF95EAC0
:1043F0000C0F0CD050EA410618BF52EA4306D1D147
:1044000081EA030101F000414FF0000070BD50EA65
:10441000410606BF1046194652EA430619D094EAEF
:104420000C0F02D150EA013613D195EA0C0F05D1D9
:1044300052EA03361CBF104619460AD181EA03012D
:1044400001F0004141F0FE4141F470014FF00000E5
:1044500070BD41F0FE4141F4780170BD70B54FF080
:10446000FF0C4CF4E06C1CEA11541DBF1CEA135500
:1044700094EA0C0F95EA0C0F00F0A7F8A4EB0504E2
:1044800081EA030E52EA03354FEA013100F08880D9
:104490004FEA03334FF0805545EA131343EA1263A2
:1044A0004FEA022245EA111545EA10654FEA002657
:1044B0000EF000419D4208BF964244F1FD0404F510
:1044C000407402D25B084FEA3202B61A65EB03056C
:1044D0005B084FEA32024FF480104FF4002CB6EB29
:1044E000020E75EB030E22BFB61A754640EA0C00A9
:1044F0005B084FEA3202B6EB020E75EB030E22BFE9
:10450000B61A754640EA5C005B084FEA3202B6EB29
:10451000020E75EB030E22BFB61A754640EA9C00E8
:104520005B084FEA3202B6EB020E75EB030E22BFB8
:10453000B61A754640EADC0055EA060E18D04FEA76
:10454000051545EA16754FEA06164FEAC30343EA16
:1045500052734FEAC2025FEA1C1CC0D111F4801FE3
:104560000BD141EA00014FF000004FF0004CB6E7DC
:1045700011F4801F04BF01430020B4F1FD0C88BF7B
:10458000BCF5E06F3FF6AFAEB5EB030C04BFB6EB86
:10459000020C5FEA500C50F1000041EB045170BD79
:1045A0000EF0004E4EEA113114EB5C04C2BFD4EBA6
:1045B0000C0541EA045170BD41F480114FF0000E2A
:1045C000013C90E645EA060E8DE60CEA135594EAA6
:1045D0000C0F08BF95EA0C0F3FF43BAF94EA0C0FA9
:1045E0000AD150EA01347FF434AF95EA0C0F7FF41E
:1045F00025AF104619462CE795EA0C0F06D152EA72
:1046000003353FF4FDAE1046194622E750EA410655
:1046100018BF52EA43067FF4C5AE50EA41047FF466
:104620000DAF52EA43057FF4EBAE12E74FF0FF3CCB
:1046300006E000BF4FF0010C02E000BF4FF0010C9C
:104640004DF804CD4FEA410C7FEA6C5C4FEA430C15
:1046500018BF7FEA6C5C1BD001B050EA410C0CBF64
:1046600052EA430C91EA030F02BF90EA020F0020C6
:10467000704710F1000F91EA030F58BF994208BF2D
:1046800090422CBFD8176FEAE37040F001007047EA
:104690004FEA410C7FEA6C5C02D150EA013C07D141
:1046A0004FEA430C7FEA6C5CD6D152EA033CD3D08C
:1046B0005DF8040B704700BF8446104662468C4686
:1046C0001946634600E000BF01B5FFF7B7FF0028B9
:1046D00048BF10F1000F01BD4DF808EDFFF7F4FFE2
:1046E0000CBF012000205DF808FB00BF4DF808ED6D
:1046F000FFF7EAFF34BF012000205DF808FB00BF90
:104700004DF808EDFFF7E0FF94BF012000205DF8B1
:1047100008FB00BF4DF808EDFFF7CEFF94BF012066
:1047200000205DF808FB00BF4DF808EDFFF7C4FF5F
:1047300034BF012000205DF808FB00BF4FEA4102B2
:1047400012F5001215D211D56FF47873B3EB6252E3
:1047500012D94FEAC12343F0004343EA505311F00A
:10476000004F23FA02F018BF404270474FF000009C
:10477000704750EA013005D111F0004008BF6FF0DA
:10478000004070474FF00000704700BF4FEA410201
:10479000B2F1E04324BFB3F5001CDCF1FE5C0DD99F
:1047A00001F0004C4FEAC0024CEA5070B2F1004FE9
:1047B00040EB830008BF20F00100704711F0804FEC
:1047C00021D113F13872BCBF01F00040704741F4B1
:1047D00080114FEA5252C2F11802C2F1200C10FAB5
:1047E0000CF320FA02F018BF40F001004FEAC12399
:1047F0004FEAD32303FA0CFC40EA0C0023FA02F33D
:104800004FEA4303CCE77FEA625307D150EA013312
:104810001EBF4FF0FE4040F44000704701F00040E2
:1048200040F0FE4040F40000704700BF80F00040C0
:1048300002E000BF81F0004142001FBF5FEA410378
:1048400092EA030F7FEA226C7FEA236C6AD04FEA78
:104850001262D2EB1363C1BFD218414048404140BD
:10486000B8BF5B42192B88BF704710F0004F40F46F
:10487000000020F07F4018BF404211F0004F41F48B
:10488000000121F07F4118BF494292EA030F3FD057
:10489000A2F1010241FA03FC10EB0C00C3F120036A
:1048A00001FA03F100F0004302D5494260EB4000F9
:1048B000B0F5000F13D3B0F1807F06D340084FEA64
:1048C000310102F10102FE2A51D2B1F1004F40EB59
:1048D000C25008BF20F0010040EA030070474900C1
:1048E00040EB000010F4000FA2F10102EDD1B0FA8C
:1048F00080FCACF1080CB2EB0C0200FA0CF0AABF81
:1049000000EBC25052421843BCBFD040184370471E
:1049100092F0000F81F4000106BF80F40000013224
:10492000013BB5E74FEA41037FEA226C18BF7FEAFB
:10493000236C21D092EA030F04D092F0000F08BF3D
:104940000846704790EA010F1CBF0020704712F024
:104950007F4F04D1400028BF40F00040704712F163
:1049600000723CBF00F50000704700F0004343F0C8
:10497000FE4040F4000070477FEA226216BF0846FE
:104980007FEA23630146420206BF5FEA412390EAC1
:10499000010F40F4800070474FF0000304E000BFB7
:1049A00010F0004348BF40425FEA000C08BF704768
:1049B00043F0964301464FF000001CE050EA01022C
:1049C00008BF70474FF000030AE000BF50EA010241
:1049D00008BF704711F0004302D5404261EB41012E
:1049E0005FEA010C02BF84460146002043F0B64353
:1049F00008BFA3F18053A3F50003BCFA8CF2083A78
:104A0000A3EBC25310DB01FA02FC634400FA02FC80
:104A1000C2F12002BCF1004F20FA02F243EB020087
:104A200008BF20F00100704702F1200201FA02FCE9
:104A3000C2F1200250EA4C0021FA02F243EB0200DC
:104A400008BF20EADC7070474FF0FF0C1CEAD05220
:104A50001EBF1CEAD15392EA0C0F93EA0C0F6FD0E1
:104A60001A4480EA010C400218BF5FEA41211ED0BF
:104A70004FF0006343EA501043EA5111A0FB0131AB
:104A80000CF00040B1F5000F3EBF490041EAD37180
:104A90005B0040EA010062F17F02FD2A1DD8B3F1FC
:104AA000004F40EBC25008BF20F00100704790F06B
:104AB000000F0CF0004C08BF49024CEA502040EABD
:104AC00051207F3AC2BFD2F1FF0340EAC250704783
:104AD00040F400004FF00003013A5DDC12F1190FC1
:104AE000DCBF00F000407047C2F10002410021FA33
:104AF00002F1C2F1200200FA02FC5FEA310040F14B
:104B0000000053EA4C0308BF20EADC70704792F0C3
:104B1000000F00F0004C02BF400010F4000F013AFB
:104B2000F9D040EA0C0093F0000F01F0004C02BFF6
:104B3000490011F4000F013BF9D041EA0C018FE765
:104B40000CEAD15392EA0C0F18BF93EA0C0F0AD06B
:104B500030F0004C18BF31F0004CD8D180EA010091
:104B600000F00040704790F0000F17BF90F0004F2A
:104B7000084691F0000F91F0004F14D092EA0C0F0C
:104B800001D142020FD193EA0C0F03D14B0218BF9F
:104B9000084608D180EA010000F0004040F0FE40E5
:104BA00040F40000704740F0FE4040F44000704781
:104BB0004FF0FF0C1CEAD0521EBF1CEAD15392EA00
:104BC0000C0F93EA0C0F69D0A2EB030280EA010CF0
:104BD00049024FEA402037D04FF0805343EA111189
:104BE00043EA10130CF000408B4238BF5B0042F1E7
:104BF0007D024FF4000C8B4224BF5B1A40EA0C008C
:104C0000B3EB510F24BFA3EB510340EA5C00B3EBBD
:104C1000910F24BFA3EB910340EA9C00B3EBD10FAB
:104C200024BFA3EBD10340EADC001B0118BF5FEAFD
:104C30001C1CE0D1FD2A3FF650AF8B4240EBC25026
:104C400008BF20F0010070470CF0004C4CEA5020E7
:104C50007F32C2BFD2F1FF0340EAC250704740F436
:104C600000004FF00003013A37E792F0000F00F028
:104C7000004C02BF400010F4000F013AF9D040EAA6
:104C80000C0093F0000F01F0004C02BF490011F43A
:104C9000000F013BF9D041EA0C0195E70CEAD15332
:104CA00092EA0C0F08D142027FF47DAF93EA0C0F19
:104CB0007FF470AF084676E793EA0C0F04D14B02FD
:104CC0003FF44CAF08466EE730F0004C18BF31F0AF
:104CD000004CCAD130F000427FF45CAF31F00043A9
:104CE0007FF43CAF5FE700BF4FF0FF3C06E000BF42
:104CF0004FF0010C02E000BF4FF0010C4DF804CD65
:104D00004FEA40024FEA41037FEA226C18BF7FEA74
:104D1000236C11D001B052EA530C18BF90EA010F76
:104D200058BFB2EB030088BFC81738BF6FEAE17005
:104D300018BF40F0010070477FEA226C02D15FEAA1
:104D4000402C05D17FEA236CE4D15FEA412CE1D00D
:104D50005DF8040B704700BF844608466146FFE7D4
:104D60000FB5FFF7C9FF002848BF10F1000F0FBDB6
:104D70004DF808EDFFF7F4FF0CBF012000205DF8AF
:104D800008FB00BF4DF808EDFFF7EAFF34BF012034
:104D900000205DF808FB00BF4DF808EDFFF7E0FFCD
:104DA00094BF012000205DF808FB00BF4DF808ED1E
:104DB000FFF7D2FF94BF012000205DF808FB00BF81
:104DC0004DF808EDFFF7C8FF34BF012000205DF863
:104DD00008FB00BF014B1868704700BFE8040020C3
:104DE0006173696E0000000073717274000000004E
:104DF000E2652F227F2B7A3C075C143326A6813C88
:104E0000BDCBF07A8807703C075C143326A6913C32
:104E10004FBB610567ACDD3F182D4454FB21E93FD2
:104E20009BF681D20B73EF3F182D4454FB21F93FC1
:044E3000430000003B
:104E3400CDCCCC3D0000803F3EFC9DCA91DEDF40DE
:104E44004EC83A4C078BDF40DB3B02BBA20FE0406D
:104E540052DA0F4B429558BFFC84FFD7FF2658BF48
:104E64009147E43DB5F3583F00000000C0A7D84087
:104E7400000000008089D84000000000C0E3D74053
:104E8400E64A2B1CA5B8503F0BD4C3B1DA1852BF65
:104E94004343E57738A9513F9A34B0F63D6A20C0C0
:104EA4002089B5096F4E2F409CBA6406CA4C1D4038
:104EB4001EA2616F80465ABFE49F7DB3BF465A3F2E
:104EC40050F53633ECE55D3F0000000001020304B9
:104ED4000102030406070809007A030A000000001F
:104EE4000000000001020304060708090100000095
:104EF40000000000AC030020140400207C04002007
:104F0400000000000000000000000000000000009D
:104F1400000000000000000000000000000000008D
:104F240000000000304E00080000000000000000F7
:104F3400000000000000000000000000000000006D
:104F4400000000000000000000000000000000005D
:104F5400000000000000000000000000000000004D
:104F6400000000000000000000000000000000003D
:104F7400000000000000000000000000000000002D
:104F8400000000000000000000000000000000001D
:104F9400000000000000000001000000000000000C
:104FA4000E33CDAB34126DE6ECDE05000B000000D1
:104FB40000000000000000000000000000000000ED
:104FC40000000000000000000000000000000000DD
:104FD40000000000000000000000000000000000CD
:104FE40000000000000000000000000000000000BD
:0C5314000000000000000000C0000020AD
:0400000508000000EF
:00000001FF
