:020000040800F2
:10000000C0220020FD2000085921000859210008C5
:10001000592100085921000859210008000000005A
:10002000000000000000000000000000592100084E
:10003000592100080000000059210008F52500089A
:1000400059210008592100085921000859210008A8
:100050005921000859210008592100085921000898
:100060005921000859210008592100085921000888
:100070005921000859210008592100085921000878
:100080005921000859210008592100085921000868
:100090005921000859210008592100085921000858
:1000A0005921000859210008592100085921000848
:1000B000515300085921000859210008592100080E
:1000C0005921000859210008592100085921000828
:1000D0005921000859210008592100085921000818
:1000E0005921000859210008592100085921000808
:1000F00059210008592100085921000859210008F8
:1001000059210008592100085921000859210008E7
:1001100059210008592100085921000859210008D7
:1001200059210008592100085921000859210008C7
:1001300059210008592100085921000859210008B7
:100140005921000859210008592100085931000897
:100150005921000859210008592100085921000897
:100160005921000859210008592100085921000887
:100170005921000859210008592100085921000877
:10018000592100085921000880B485B000AF78607B
:100190000023FB607B68DB684FF0FF325A607B68AE
:1001A000DB684FF0FF325A61FB7B43F08003FB7347
:1001B0007B7B43F008037B737B68DB68FA689A619A
:1001C0001437BD465DF8047B704700BF80B586B02C
:1001D00000AF78600023FB7400237B610023FB6089
:1001E000032003F03FFC7B68DB681B69FB607B69D5
:1001F00001337B617A69174B9A4201D9002325E0CC
:10020000FB68C3F3C073DBB2002BE9D000237B6132
:10021000FB6843F00103FB607B68DB68FA681A61E6
:100220007B68DB681B69FB607B6901337B617A69F2
:10023000084B9A4200D905E0FB68C3F30003DBB228
:10024000012BEDD0032003F00DFCFB7C1846183782
:10025000BD4680BD400D030080B489B000AFF8609A
:10026000B960FA71BB800023FB76FB68DB78002B5A
:1002700022D100237B610023FB61BB880333002B69
:1002800000DA03339B107B61FB79FA6832339B0001
:1002900013449B683B610023FB6109E0BB681A685B
:1002A0003B691A60FB690133FB61BB680433BB60C7
:1002B000FA697B699A42F1D3FB7E18462437BD4622
:1002C0005DF8047B704700BF80B489B000AFF86070
:1002D000B9601346FB800023FB61FB880333002BCE
:1002E00000DA03339B10BB61FB68D3F8D0307B612D
:1002F0000023FB6109E07B691A68BB681A60FB692F
:100300000133FB61BB680433BB60FA69BB699A4285
:10031000F1D3BB6818462437BD465DF8047B7047AF
:1003200080B487B000AF78600B46FB7000233B6160
:100330000023FB737B680022DA707B6801229A70CD
:100340007B6840229A80FB78012B13D14FF0A043A9
:100350003B617B680122DA727B6808221A707B6835
:1003600004225A707B684FF4A072DA807B68022204
:100370001A7211E0FB78002B0ED1454B3B617B6874
:100380000022DA727B680C221A707B6806225A708F
:100390007B684FF4A062DA803A697B68DA603B6977
:1003A00003F500631A467B681A6100237B611CE039
:1003B0007B695A013B69134403F510631A46796857
:1003C0007B6904339B000B449A607B695A013B694B
:1003D000134403F530631A4679687B6914339B0034
:1003E0000B445A607B6901337B617B685B781A46FA
:1003F0007B699A42DCD83B6903F580631A467B68C7
:100400005A613B6903F588631A467B68C3F8CC20C0
:1004100000237B610FE07B695A013B69134403F5BC
:10042000A0631A4679687B6922339B000B449A606B
:100430007B6901337B617B681B781A467B699A4232
:10044000E9D800237B610FE07B691A033B69134401
:1004500003F580531A4679687B6932339B000B445D
:100460009A607B6901337B617B681B781A467B69E4
:100470009A42E9D83B6903F560631A467B68C3F882
:100480000C21FB7B18461C37BD465DF8047B70478A
:100490000000044080B588B000AF78600023FB778F
:1004A0000023BB6100237B610023FB607B681B7A18
:1004B000012B4FD17B68DB689B6B7B61BB7D6FF34E
:1004C0000003BB757B685B7A002B03D0BB7D43F0D8
:1004D0001003BB757B68DB687A699A630023BB6194
:1004E0007B68DB68DB68BB613B7E6FF386133B7622
:1004F000BB7E6FF38613BB763B7E43F010033B76E7
:100500003B7E6FF3C3033B763B7E6FF3C7133B76B3
:10051000BB7E6FF34103BB76BB7E6FF3C303BB7639
:100520007B68DB68BA69DA607868FFF74FFE7B6842
:10053000DB78012B40F082803B7B052262F3440391
:100540003B733B7B43F020033B737B68DB68FA68BB
:100550009A6073E07B68DB68DB68BB613B7E43F0DD
:1005600040033B767B68DB68BA69DA607868FFF73E
:100570002DFE00237B61BB7D43F00103BB757B68CF
:100580001B7A032B03D1BB7D43F00203BB75BB7DFC
:1005900043F00403BB75BB7D43F00803BB75BB7D13
:1005A00043F02003BB757B685B7A002B03D0BB7DD7
:1005B00043F01003BB757B68DB687A699A6314208B
:1005C00003F074FA7B68DB68DB68BB617B681B7ACD
:1005D000032B03D1BB7E43F00103BB767B68DB6852
:1005E000BA69DA607B681B7A032B27D17B68DB68EA
:1005F0001B6B3B61FB7C012262F38303FB74BB7CBE
:100600006FF3C713BB74FB7C43F01003FB74BB7C1C
:100610002D2262F30603BB747B68DB683A691A63B8
:10062000C82003F043FABB7C43F08003BB747B68B3
:10063000DB683A691A63C82003F038FA7B68DB7814
:10064000012B10D17B68DB689B68FB603B7B05223C
:1006500062F344033B733B7B43F020033B737B68B3
:10066000DB68FA689A60FB7F18462037BD4680BD7C
:1006700080B485B000AF78600023FB730023BB60BB
:100680003B7A43F001033B727B68DB687A68D2688F
:100690009168BA680A439A60FB7B18461437BD46D6
:1006A0005DF8047B704700BF80B485B000AF786010
:1006B0000023FB730023BB603B7A43F001033B72D2
:1006C0007B68DB687A68D2689168BA68D2430A406E
:1006D0009A60FB7B18461437BD465DF8047B704773
:1006E00080B586B000AF786039600023FB740023CA
:1006F0007B610023FB60FB6843F02003FB603B68E9
:10070000DBB203F01F03DAB2FB6862F38A13FB600B
:100710007B68DB68FA681A617B68DB681B69FB60D1
:100720007B6901337B617A69084B9A4200D905E005
:10073000FB68C3F34013DBB2012BEDD0032003F0C1
:1007400091F9FB7C18461837BD4680BD400D03006B
:1007500080B586B000AF78600023FB7400237B6116
:100760000023FB60FB6843F01003FB607B68DB68E1
:10077000FA681A617B68DB681B69FB607B6901337F
:100780007B617A69084B9A4200D905E0FB68C3F3A4
:100790000013DBB2012BEDD0032003F063F9FB7CE7
:1007A00018461837BD4680BD400D030080B584B0A3
:1007B00000AF78600B46FB700023FB737B68DB683F
:1007C000DB68BB60FB7A6FF34513FB72FB7A6FF358
:1007D0008613FB72FB78012B04D1FB7A43F02003D4
:1007E000FB7206E0FB78002B03D1FB7A43F0400359
:1007F000FB727B68DB68BA68DA60322003F056F976
:10080000FB7B18461037BD4680BD00BF80B483B067
:1008100000AF78607B68DB685B6903F00103184612
:100820000C37BD465DF8047B704700BF80B582B0D1
:1008300000AF78607868FFF7E9FF0346012B0CBF33
:1008400000230123DBB218460837BD4680BD00BF38
:1008500080B485B000AF78600023FB607B68DB6804
:100860005B69FB607B68DB689B69FA681340FB602F
:10087000FB6818461437BD465DF8047B704700BF1F
:1008800080B485B000AF78600B46FB707B681B6955
:100890001B68FB60FB7803F00303DAB23B7B62F377
:1008A00001033B737B681B69FA681A601437BD4605
:1008B0005DF8047B704700BF80B58CB000AF7860F6
:1008C000002387F82B3000237B6200233B62002348
:1008D000FB610023BB6100237B617B68D3F80C3193
:1008E00000221A607B681B691B683B6297F8213005
:1008F0006FF3C40387F821307B681B693A6A1A607A
:100900007B68DB7A012B40D178680321FFF7B8FFC1
:100910007B68DB6880225A62FB8B402262F30F0304
:10092000FB83BB8B802262F30F03BB837B68DB6896
:10093000FA699A62BA8BFB8B13449BB23B837B8B25
:10094000802262F30F037B837B68DB68BA69C3F89C
:1009500004213A8B7B8B13449BB23B837B8B6FF3DD
:100960000F037B837B68DB68BA69C3F808213A8B85
:100970007B8B13449BB23B837B8B6FF30F037B8397
:100980007B68DB68BA69C3F80C2178681021FFF72F
:10099000A7FE7868FFF7DCFE7B681B6900221A61FE
:1009A0007B681B6900225A617B681B694FF0FF322C
:1009B0009A617B681B690022DA610023FB623AE0DE
:1009C0007A68FB6A04339B0013449B681B687B6254
:1009D00097F82730C3F3C013DBB2002B0ED00023EF
:1009E0007B6297F8273043F0400387F8273097F869
:1009F000273043F0080387F8273001E000237B62AB
:100A00007A68FB6A04339B0013449B687A6A1A6015
:100A10007A68FB6A04339B0013449B6800221A61C6
:100A20007A68FB6A04339B0013449B68FF229A6038
:100A3000FB6A0133FB627B685B781A46FB6A9A4269
:100A4000BED80023FB6235E07A68FB6A14339B0052
:100A500013445B681B68FB60FB7BC3F3C013DBB212
:100A6000002B0AD00023FB60FB7B43F04003FB73A9
:100A7000FB7B43F00803FB7301E00023FB607A6813
:100A8000FB6A14339B0013445B68FA681A607A6847
:100A9000FB6A14339B0013445B6800221A617A6876
:100AA000FB6A14339B0013445B68FF229A60FB6A65
:100AB0000133FB627B685B781A46FB6A9A42C3D8B3
:100AC00000237B617B7D43F001037B757B681B69A1
:100AD0007A68126911697A69D24311407A690A43C6
:100AE0001A617B68DB78012B1BD100233B613B7CC7
:100AF00043F001033B743B7C43F002033B743B8AAD
:100B0000402262F38A033B82BB7C43F00103BB7447
:100B10007B8A402262F349037B827B681B693A69C6
:100B20001A63786800F006F897F82B3018463037CB
:100B3000BD4680BD80B584B000AF78600023FB73F4
:100B40000023BB607B68DB6800229A617B68DB68FE
:100B50004FF0FF325A617868FFF716FB7B68DB784D
:100B6000002B03D13B7A43F010033B727B7A43F0B6
:100B700008037B727B7A43F010037B727B7A43F02D
:100B800020037B72BB7A43F00403BB72BB7A43F051
:100B90000803BB723B7A43F008033B72BB7A43F015
:100BA0001003BB72BB7A43F02003BB727B68DB6827
:100BB0007A68D2689169BA68D2431140BA680A4328
:100BC0009A61FB7B18461037BD4680BD80B485B066
:100BD00000AF78600023FB737B681B699B68BB6078
:100BE0003B7AC3F34103DBB2022B09D0032B04D0C1
:100BF000012B02D00323FB7305E00223FB7302E009
:100C00000123FB7300BFFB7B18461437BD465DF81C
:100C1000047B704780B487B000AF78600023FB7519
:100C20000023BB607B681B699B683B617B689B6999
:100C30001B68FB603B7CC3F34103DBB2022B04D097
:100C4000BB896FF30A03BB8105E0BB89032262F312
:100C50000A03BB8100BF7B689B69FA681A607B7AD4
:100C600043F001037B727B681B697A6812695168E3
:100C7000BA68D2431140BA680A435A60FB7D1846ED
:100C80001C37BD465DF8047B704700BF80B487B059
:100C900000AF786039600023FB740023FB60002301
:100CA000BB603B685B78012B0FD13B681B787A688F
:100CB00004339B0013449B687B613B681B780122D3
:100CC00002FA03F39BB23B810EE03B681B787A6823
:100CD00014339B0013445B687B613B681B780122E3
:100CE00002FA03F39BB27B817B691B68FB607B7B11
:100CF000C3F3C013DBB2002B27D13B689B689BB2C8
:100D0000C3F30A039AB2BB8962F30A03BB813B684F
:100D1000DB7803F00303DAB2BB7B62F38303BB73BC
:100D20003B68DB88DBB203F00F03DAB2FB8962F3C6
:100D30008913FB81FB7B43F01003FB737B7B43F048
:100D400080037B73FA687B691A607B681B697A6829
:100D50001269D169BA680A43DA61FB7C18461C370C
:100D6000BD465DF8047B704780B487B000AF786003
:100D700039600023FB740023FB600023BB603B68E9
:100D80005B78012B0FD13B681B787A6804339B009A
:100D900013449B687B613B681B78012202FA03F3D2
:100DA0009BB23B810EE03B681B787A6814339B0052
:100DB00013445B687B613B681B78012202FA03F3F2
:100DC0009BB27B817B7B6FF3C7137B73FA687B6974
:100DD0001A607B681B697A681269D169BA68D24364
:100DE0000A40DA61FB7C18461C37BD465DF8047B7F
:100DF000704700BF80B588B000AF786039600023CD
:100E0000FB770023BB6100237B6100233B613B68D0
:100E10005B78012B40F0AB803B681B787A68043329
:100E20009B0013449B681B687B613B681B787A6856
:100E300004339B0013449B681B693B613B685B69FF
:100E4000002B09D13B696FF312033B617B8A0122BE
:100E500062F3CC037B8222E03B685B69C3F312023E
:100E60003B6962F312033B613B685A693B689B68CC
:100E700013445A1E3B689B68B2FBF3F39BB2C3F367
:100E800009039AB27B8A62F3CC037B823B68DB78EE
:100E9000012B04D1FB7C012262F34613FB743B68F7
:100EA0001B787A6804339B0013449B683A691A6183
:100EB0007B68DB78012B0AD13B681B787A680433A6
:100EC0009B0013449B683A6812695A6115E03B68BD
:100ED000DB78012B11D03B685B69002B0DD03B68A0
:100EE0001B78012202FA03F3BB617B681B697A68F5
:100EF0001269516BBA690A435A633B68DB78012B6C
:100F000014D17B681B699B68FB60FB68C3F30D23EE
:100F10009BB203F00103002B04D1FB7D43F02003BF
:100F2000FB7503E0FB7D43F01003FB75FB7D43F095
:100F30000403FB75FB7D43F08003FB753B681B7866
:100F40007A6804339B0013449B687A691A603B6893
:100F5000DB78012B40F088803B68D9683B681A78C1
:100F60003B685B699BB27868FFF776F97CE03B6889
:100F70001B787A6814339B0013445B681B687B61A1
:100F80003B681B787A6814339B0013445B681B69C9
:100F90003B613B685B69002B0DD13B689B68C3F3E9
:100FA00012023B6962F312033B617B8A012262F306
:100FB000CC037B821FE03B685A693B689B68134403
:100FC0005A1E3B689B68B2FBF3F39BB2C3F3090361
:100FD0009AB27B8A62F3CC037B827B8AC3F3C90318
:100FE0009BB23A68926802FB03F3C3F312023B69B7
:100FF00062F312033B613B681B787A6814339B00F1
:1010000013445B683A691A617B68DB78012B09D16C
:101010003B681B787A6814339B0013445B683A681A
:1010200012695A613B68DB78012B0CD13B685B7914
:10103000002B04D0FB7D43F02003FB7503E0FB7D18
:1010400043F01003FB75FB7D43F00403FB75FB7D50
:1010500043F08003FB753B681B787A6814339B0070
:1010600013445B687A691A60FB7F18462037BD46D7
:1010700080BD00BF80B489B000AF786039600023C4
:10108000FB770023BB6100233B610023BB603B680F
:101090005B78012B6FD17B689B697B617B691B68E7
:1010A0003B617B691B69BB603B685B69002B09D1B5
:1010B0003B7A6FF306033B72BB7A012262F3C403EF
:1010C000BB7223E03B685A693B689B689A420ED921
:1010D0003B689A683B685A613B689B68DBB203F0E7
:1010E0007F03DAB23B7A62F306033B7209E03B68A6
:1010F0005B69DBB203F07F03DAB23B7A62F306038B
:101100003B72BB7A012262F3C403BB72BA687B698B
:101110001A617B68DB78012B09D13B681B787A6800
:1011200004339B0013449B683A6812695A61FB7C44
:1011300043F00403FB74FB7C43F08003FB743A69C7
:101140007B691A607B68DB78002B75D13B685B6933
:10115000002B71D03B681B78012202FA03F3BA69B5
:101160001343BB617B681B697A681269516BBA696A
:101170000A435A6360E03B681B787A6814339B002B
:1011800013445B681B683B613B681B787A681433C7
:101190009B0013445B681B69BB603B685B69002B69
:1011A0000FD13B689B68DBB203F07F03DAB23B7A76
:1011B00062F306033B72BB7A012262F3C403BB7283
:1011C00012E03B689A683B685A613B689B68DBB2F7
:1011D00003F07F03DAB23B7A62F306033B72BB7A19
:1011E000012262F3C403BB723B681B787A68143334
:1011F0009B0013445B68BA681A617B68DB78012B3B
:1012000009D13B681B787A6814339B0013445B68F0
:101210003A6812695A61FB7C43F00403FB74FB7C5F
:1012200043F08003FB743B681B787A6814339B009F
:1012300013445B683A691A60FB7F18462437BD4641
:101240005DF8047B704700BF80B487B000AF786062
:1012500039600023FB750023FB603B685B78012B42
:101260001CD13B681B787A6804339B0013449B684D
:101270003B613B691B68FB60FB7BC3F3C013DBB2C4
:10128000002B03D0FB7B43F04003FB73BB7B43F09D
:101290002003BB73FA683B691A6011E03B681B7856
:1012A0007A6814339B0013445B683B613B691B689D
:1012B000FB60BB7B43F02003BB73FA683B691A6099
:1012C000FB7D18461C37BD465DF8047B704700BFA8
:1012D00080B487B000AF786039600023FB740023CE
:1012E000FB603B685B78012B08D13B681B787A6810
:1012F00004339B0013449B687B6107E03B681B78C9
:101300007A6814339B0013445B687B617B691B68BC
:10131000FB60BB7B6FF34513BB733B68DB78032B30
:1013200003D03B68DB78022B03D1FB7B43F0100337
:10133000FB73FA687B691A60FB7C18461C37BD4654
:101340005DF8047B704700BF80B485B000AF786063
:101350007B681B699B69FB607B681B69DB69FA68BA
:101360001340FB60FB681B0C18461437BD465DF844
:10137000047B704780B485B000AF78600B46FB708B
:10138000FB787A6814339B0013445B689B68FB60AE
:101390007B681B695B69FA681340FB60FB68184651
:1013A0001437BD465DF8047B704700BF80B485B03C
:1013B00000AF78607B681B699B69FB607B681B6979
:1013C000DB69FA681340FB60FB689BB21846143770
:1013D000BD465DF8047B704780B487B000AF78608D
:1013E00000233B61FB7C43F0C003FB74BB7C012208
:1013F00062F3C403BB743B7C182262F306033B74A4
:101400007B685B6D3A691A617B68DB78012B16D1CA
:101410000023FB607B685B6D7A6802F5B9625A61F4
:101420007B685B6D1B68FB60FB7B43F08003FB7399
:101430004FF08023FB607B685B6DFA681A601C3795
:10144000BD465DF8047B704780B400AFBD465DF8D3
:10145000047B704780B483B000AF0346FB71FB7917
:10146000002B02D0012B02D002E000BF00E000BF41
:101470000C37BD465DF8047B704700BF80B400AFF9
:10148000BD465DF8047B704780B400AFBD465DF893
:10149000047B704780B400AFBD465DF8047B7047A5
:1014A00080B400AFBD465DF8047B704780B400AFE8
:1014B000BD465DF8047B704780B58CB000AF4FF03F
:1014C0000003FB624FF00003BB624648464900F050
:1014D0003DFD034683F0004318464FF07C5107F072
:1014E00005FB0346FB623B1D18463F49FA6A00F0C4
:1014F000BDFD3B1D0C3318463A49FA6A00F0B6FDB3
:101500003A1D3B1D10461946364A00F0D1FD3B1DE1
:1015100003F10C023B1D0C3310461946324A00F011
:10152000C7FD3B1D03F118013A1D3B1D0C33084656
:1015300011461A4600F036FD3A1D3B1D104619466D
:1015400000F004FD03462948194607F0C5F9034693
:1015500018464FF07C5107F0C9FA0346BB623B1DA9
:1015600020481946BA6A00F081FD3B1D03F10C02C8
:101570003B1D0C331046194600F0E8FC03461B489F
:10158000194607F0A9F9034618464FF07C5107F0B9
:10159000ADFA0346BB623B1D0C3313481946BA6AC9
:1015A00000F064FD3B1D03F118023B1D183310468B
:1015B000194600F0CBFC03460C48194607F08CF99D
:1015C000034618464FF07C5107F090FA0346BB6281
:1015D0003B1D183306481946BA6A00F047FD3037FC
:1015E000BD4680BD5C000020680000200000404037
:1015F000740000200000000090B587B000AF884B59
:101600001A68874B1B681046194607F06FFA0346A5
:101610001C46834B5A68824B5B681046194607F09C
:1016200065FA03462046194607F058F903461C465A
:101630007B4B9A687A4B9B681046194607F056FA1E
:1016400003462046194607F049F90346184606F0B6
:10165000D9FD02460B461046194604F04FFD0246DE
:101660000B461046194607F0E3F803467B6178699C
:101670004FF0874107F0EEFA03467B614FF07E5052
:10168000796907F029F90346184606F0BBFD0246C2
:101690000B461046194607F079FB02461346DB0756
:1016A0009B1A5B000133002B1CDB4FF07E507969E5
:1016B00007F012F90346184606F0A4FD02460B4651
:1016C0001046194607F062FB02461346DB079B1AD9
:1016D0005B000133012BA8BF0123184607F0B2F9C4
:1016E000034601E04FF000033B614E484C494E4A2F
:1016F00000F058FC386906F085FD02460B4610469E
:10170000194643A3D3E9002306F0D0FD02460B4659
:101710001046194607F08CF80346444841491A46DA
:1017200000F0A4FC386906F06DFD02460B46104639
:10173000194639A3D3E9002306F0B8FD02460B464B
:101740001046194607F074F80346394835491A46D9
:1017500000F08CFC37483749354A00F0A9FC364B7D
:101760001B68184606F04EFD02460B461046194609
:1017700004F0EAFB02460B461046194607F058F8FB
:101780000346FB602C4B1B68184606F03BFD0246E7
:101790000B461046194604F011FC02460B46104653
:1017A000194607F045F80346BB60244B1B681846F2
:1017B000B96807F09BF903461C46204BDB681846C6
:1017C000F96807F093F903462046194607F084F8B4
:1017D00003467B601A4814497A6800F047FC1948B0
:1017E0001749194A00F042FC10481049154A00F008
:1017F0005FFC0F481249154A00F038FC0D480D49AE
:101800000B4A00F055FC1C37BD4690BDAFF300807D
:101810007B14AE47E17A943FF168E388B5F8F43E73
:10182000400A0020880A002074000020640A00207A
:10183000140A0020700A0020440B00205C000020E5
:10184000940A0020200A00209A99993FACC5A73736
:10185000F0B583B000AF844B1B881BB2184606F06E
:10186000BFFC02460B46104619467DA3D3E9002370
:1018700006F01CFD02460B461046194606F0D8FF3E
:1018800002467A4B1A607A4B1B881BB2184606F048
:10189000A7FC02460B461046194671A3D3E9002364
:1018A00006F004FD02460B461046194606F0C0FF3E
:1018B00002466E4B5A606F4B1B881BB2184606F0EF
:1018C0008FFC02460B461046194665A3D3E9002358
:1018D00006F0ECFC02460B461046194606F0A8FF3F
:1018E0000246624B9A60644B1B881BB2184607F095
:1018F000A9F80246614B1A60614B1B881BB218465F
:1019000007F0A0F802465D4B5A605E4B1B881BB285
:10191000184607F097F80246584B9A605A485349C0
:101920005A4A00F0C5FB5A4857495A4A00F0C0FBD2
:10193000594B4FF000021A60584B1B6883F000426D
:101940004A4B9B681046194607F0D0F803461A46E2
:10195000514B5A60454B5A68504B1B68104619460C
:1019600007F0C4F803461A464B4B9A603F4B9A68FF
:101970004A4B1B681046194607F0B8F803461A464A
:10198000454BDA60444B4FF000021A61434B1B6831
:1019900083F00042354B1B681046194607F0A6F845
:1019A00003461A463C4B5A613C4B1B6883F000428D
:1019B0002E4B5B681046194607F098F803461A4606
:1019C000354B9A61294B1A68344B1B6810461946EF
:1019D00007F08CF803461A462F4BDA612E4B4FF076
:1019E00000021A622E482C492E4A00F023FA0023E6
:1019F000FB712CE00023BB7123E0FC79BD79FA79FF
:101A0000B879274913465B001344034451F8231067
:101A1000FA79BE79234813465B001344334450F8E7
:101A200023300846194606F059FF034619461C4A5A
:101A300023465B0023442B4442F82310BB79013337
:101A4000BB71BB79022BD8D9FB790133FB71FB79D0
:101A5000022BCFD90C37BD46F0BD00BFAFF30080DD
:101A6000E0D8331C4F04543F540B00204C0A002094
:101A7000480B0020720B0020320B0020400A00208F
:101A80004A0B0020680B00207C0A0020700A00200E
:101A9000580A0020640A002080000020580000201E
:101AA0005C000020A40A0020B0B500AF264B9B6963
:101AB000184606F0A7FB02460B461046194604F0EE
:101AC000C7FA02460B461046194606F0B1FE034619
:101AD00083F000421D4B1A601B4BDB69184606F071
:101AE00091FB04460D46184B1B6A184606F08AFB0C
:101AF00002460B462046294604F0FEFA02460B46F3
:101B00001046194606F094FE0246114B1A600E4B21
:101B1000DB68184606F076FB04460D460A4B1B6848
:101B2000184606F06FFB02460B462046294604F095
:101B3000E3FA02460B461046194606F079FE0246C5
:101B4000044B1A60B0BD00BF5C000020600B002099
:101B5000640B00205C0B0020B0B586B000AF994B41
:101B60001B68184606F04EFB02460B461046194607
:101B700004F0EAF902460B461046194606F058FEF4
:101B800003467B618F4B1B68184606F03BFB024601
:101B90000B461046194604F011FA02460B46104651
:101BA000194606F045FE03463B61874B1B68184605
:101BB00006F028FB02460B461046194604F0C4F90D
:101BC00002460B461046194606F032FE0346FB60FD
:101BD0007D4B1B68184606F015FB02460B46104667
:101BE000194604F0EBF902460B461046194606F07A
:101BF0001FFE0346BB60754B1B881AB2744B9B7962
:101C00005BB240F25A2101FB03F31344184606F07D
:101C100019FF034618466F4907F01CF8034618469B
:101C200006F0F0FA04460D46694B9B795BB2184604
:101C300006F0D6FA02460B46104619464FF000024F
:101C4000654B06F033FB02460B462046294606F05C
:101C500079F902460B461046194606F0E9FD0246A0
:101C60005E4B1A605E4B1B881AB2594BDB795BB234
:101C700040F2732101FB03F31344184606F0E2FE21
:101C800003461846574906F0E5FF0346184606F096
:101C9000B9FA04460D464E4BDB795BB2184606F0A6
:101CA0009FFA02460B46104619464FF000024A4B77
:101CB00006F0FCFA02460B462046294606F042F999
:101CC00002460B461046194606F0B2FD0246464B48
:101CD0001A60464B1B8819B23D4B1B7A5AB2134609
:101CE0005B029B1A0B44184606F0ACFE03461846EE
:101CF0003F4906F0AFFF0346184606F083FA044654
:101D00000D46334B1B7A5BB2184606F069FA024661
:101D10000B46104619464FF000022F4B06F0C6FA4C
:101D200002460B462046294606F00CF902460B46B1
:101D30001046194606F07CFD02462E4B1A60274BD2
:101D40001B681846F96806F0D1FE03461C46264B70
:101D50001B681846396906F0C9FE03461846B9687B
:101D600006F0C4FE03462046194606F0B7FD0346BA
:101D70001C46204B1B681846796906F0B7FE0346DF
:101D80001846B96806F0B2FE03462046194606F02A
:101D9000A5FD03467B60144B1B681846796906F065
:101DA000A5FE03461C46134B1B681846396906F00E
:101DB0009DFE03462046194606F08EFD03463B6015
:101DC0003B6819E0640B0020600B0020500B0020E2
:101DD0004C000020000073440000E03F6C0B00202A
:101DE000300B002000C07544340B0020520B002043
:101DF00000806D44580B002083F00043184606F025
:101E000001FA04460D46786806F0FCF902460B46D6
:101E10002046294604F070F902460B461046194642
:101E200006F006FD0246024B1A601837BD46B0BDEB
:101E3000440B0020B0B58AB000AFF860B9607A609A
:101E4000002387F8273079E0002387F826306CE0FC
:101E5000002387F825302AE097F8254097F82720B7
:101E600013465B0013449B00FA68134497F825203F
:101E700053F8221097F8252013465B0013449B006B
:101E8000BA68134497F8262053F8223008461946BA
:101E900006F02CFE03461A46A30007F128010B4466
:101EA00043F8142C97F82530013387F8253097F83C
:101EB0002530022BD0D997F8272013465B00134416
:101EC0009B007A68134497F826204FF0000143F8EE
:101ED000221097F8272013465B0013449B007A6872
:101EE000D41897F826507A69BB691046194606F04F
:101EF000F5FC03461A46FB691046194606F0EEFC4F
:101F0000034644F8253097F8272013465B00134416
:101F10009B007A68134497F8262053F822303B62DE
:101F200097F82630013387F8263097F82630022BB1
:101F30008ED997F82730013387F8273097F8273064
:101F4000022B81D92837BD46B0BD00BF80B584B013
:101F500000AF786039604FF00003FB600023FB7234
:101F600017E0FB7A9B007A6813441A68FB7A9B009F
:101F700039680B441B681046194606F0B7FD034646
:101F8000F868194606F0AAFC0346FB60FB7A0133A9
:101F9000FB72FB7A022BE4D9FB6818461037BD466A
:101FA00080BD00BFB0B584B000AFF860B9607A60A2
:101FB000BB6804331A687B6808331B6810461946EF
:101FC00006F094FD03461C46BB6808331A687B681C
:101FD00004331B681046194606F088FD0346204668
:101FE000194606F079FC03461A46FB681A60FB683E
:101FF0001C1DBB6808331A687B681B6810461946AD
:1020000006F074FD03461D46BB681A687B680833FA
:102010001B681046194606F069FD03462846194616
:1020200006F05AFC03462360FB6803F10804BB6812
:102030001A687B6804331B681046194606F056FD83
:1020400003461D46BB6804331A687B681B6810464C
:10205000194606F04BFD03462846194606F03CFC9F
:10206000034623601037BD46B0BD00BF90B587B0B2
:1020700000AFF860B9607A600023FB7511E0FB7D6A
:102080009B00FA68D418FB7D9B00BA6813441B6858
:102090001846796806F02AFD03462360FB7D01336C
:1020A000FB75FB7D022BEAD91C37BD4690BD00BFF6
:1020B00090B587B000AFF860B9607A600023FB7517
:1020C00016E0FB7D9B00FA68D418FB7D9B00BA6884
:1020D00013441A68FB7D9B0079680B441B6810460B
:1020E000194606F0FBFB03462360FB7D0133FB75BD
:1020F000FB7D022BE5D91C37BD4690BD80B582B073
:1021000000AF104B7B60104B3B6007E03B681A1D33
:102110003A607A68111D796012681A603A680B4B50
:102120009A42F3D30A480B494FF000028842B8BFE5
:1021300040F8042BFFF6FAAF00F0B6FA0837BD46B8
:1021400080BD00BFB0D2000800000020140A0020AB
:10215000140A0020C01A002080B400AFFEE700BFC0
:1021600080B584B000AFF8607A603B600B46FB72CC
:10217000F86801F007FCF86800F01CF8FB683A68A2
:10218000C3F8E025FB68BA69C3F8E425FB687A6800
:10219000C3F8E825FB7AF868194603F06BFBFB6887
:1021A000D3F8E4351B689847F86801F043FC103712
:1021B000BD4680BD80B483B000AF78600023184670
:1021C0000C37BD465DF8047B704700BF80B584B016
:1021D00000AF786007F108037868194602F04CF800
:1021E0003B7A03F01F03012B0AD0022B0FD0002BE8
:1021F00014D107F108037868194601F067FC16E06E
:1022000007F108037868194601F0B0FC0FE007F108
:1022100008037868194601F0DDFC08E03B7A23F0FA
:102220007F03DBB27868194603F0A6FC00BF0023E9
:1022300018461037BD4680BD80B584B000AF7860C9
:102240000B46FB70FB78002B45D17B6803F55C7374
:10225000FB607B6893F81131032B4FD1FB68DA697F
:10226000FB689B689A4221D9FB68DA69FB689B6826
:10227000D21AFB68DA617B68DB78012B06D1FB6838
:10228000DA68FB689B681A44FB68DA60FB68DA6806
:10229000FB689968FB68DB69994238BF0B469BB2C3
:1022A000786811461A4603F04DFD27E07B68D3F8A5
:1022B000E0351B69002B0AD07B6893F81231032BA1
:1022C00005D17B68D3F8E0351B6978689847786852
:1022D00003F04CFD12E07B68D3F8E0359B69002BDE
:1022E0000CD07B6893F81231032B07D17B68D3F8AD
:1022F000E0359B69FA7878681146984700231846BC
:102300001037BD4680BD00BF80B584B000AF786097
:102310000B46FB70FB78002B60D17B6803F58C7358
:10232000FB607B6893F81131022B6AD1FB68DA6994
:10233000FB689B689A421CD9FB68DA69FB689B685A
:10234000D21AFB68DA617B68DB78012B06D1FB6867
:10235000DA68FB689B681A44FB68DA60FB68DA6835
:10236000FB68DB699BB2786811461A4603F0B6FC3D
:1023700047E0FB681B6AFA689268B3FBF2F102FB64
:1023800001F29B1A002B14D1FB681A6AFB689B6848
:102390009A420ED3FB681A6AFB685B6A9A4208D2BB
:1023A00078680021002203F099FCFB6800225A6241
:1023B00027E07B68D3F8E035DB68002B0AD07B6828
:1023C00093F81231032B05D17B68D3F8E035DB6835
:1023D00078689847786803F0E1FC12E07B68D3F8EE
:1023E000E0355B69002B0CD07B6893F81231032B2E
:1023F00007D17B68D3F8E0355B69FA7878681146D5
:102400009847002318461037BD4680BD80B582B07E
:1024100000AF7860786800214022002303F0AAFA18
:10242000786880214022002303F0A4FA7B6801220F
:1024300083F812217B68D3F8E4355B687A68927878
:1024400010469847002318460837BD4680BD00BF98
:1024500080B582B000AF78607B68D3F8E4351B6943
:1024600098477B68032283F8122100231846083717
:10247000BD4680BD80B582B000AF78607B68042225
:1024800083F812217B68D3F8E435DB689847002392
:1024900018460837BD4680BD80B582B000AF786071
:1024A0007B68D3F8E035DB69002B05D07B68D3F877
:1024B000E035DB6978689847002318460837BD4641
:1024C00080BD00BF80B582B000AF78600B46FB7066
:1024D0007B68D3F8E0351B68FA787868114698472E
:1024E0007B68D3F8E4359B68984700231846083783
:1024F000BD4680BD80B582B000AF78600B46FB70F2
:102500007B68D3F8E0355B68FA78786811469847BD
:10251000002318460837BD4680BD00BF80B582B095
:1025200000AF78607B68D3F8E0351B6A786898471D
:10253000002318460837BD4680BD00BF80B582B075
:1025400000AF78607B68D3F8E0355B6A78689847BD
:10255000002318460837BD4680BD00BF80B483B055
:1025600000AF03463960FB7197F90730002B0BDA97
:102570000D49FB7903F00F03043B3A68D2B2120114
:10258000D2B20B441A7609E0084997F907303A6845
:10259000D2B21201D2B20B4483F800230C37BD46ED
:1025A0005DF8047B704700BF00ED00E000E100E053
:1025B00080B582B000AF78607B68B3F1807F01D3D3
:1025C000012311E00A4B7A6822F07F42013A5A60F7
:1025D0004FF0FF300F21FFF7C1FF054B00229A603B
:1025E000034B07221A60002318460837BD4680BDFA
:1025F00010E000E080B500AF264B1B780133DAB263
:10260000244B1A70244B1A68244B1A6002F0B0FE57
:102610000246214B1A60204B1A68204B1B689A42D5
:102620001AD91D4B1A681D4B1B68D31A184605F0A2
:10263000C7FD02460B46104619464FF00002184BE4
:1026400005F05EFF02460B461046194606F0F0F80C
:102650000246144B1A6003E0124B4FF000021A605E
:1026600000F034FB00F0C6FB0A4B1B78052B06D9A3
:10267000084B00221A7000F05BFCFFF76DFAFFF7C1
:10268000E7F8FEF719FFFEF7B7FFFFF70DFA00F0C6
:102690008FF880BDA00A00202C0A00204C0B0020DF
:1026A00000408F405800002080B582B000AF01F09C
:1026B00027F801F051F800F01FFA00F0AFFC02F02B
:1026C00017FE00237B6020E000F000FB00F092FB8F
:1026D00000233B6013E02F4B3A6833F812309AB274
:1026E0002D4B396833F811309BB213449BB299B229
:1026F000284B3A6823F812103B6801333B603B6873
:10270000052BE8D97B6801337B607B681F2BDBD905
:1027100000233B6010E01F4B3A6833F812301BB2C5
:10272000002B00DA1F335B1199B21A4B3A6823F879
:1027300012103B6801333B603B68052BEBD9154B0E
:102740005B899AB2154B5B795BB29BB21946090261
:10275000CB1A1B029BB213449BB29AB20D4B5A8107
:102760004FF4FA6002F010FE02F002FE02460C4B3B
:102770001A60142002F008FE0A4B00221A700A4B5D
:102780001A680A4BA3FB02131B091846FFF710FF38
:10279000FEE700BF340A0020380B00204C00002068
:1027A0002C0A0020A00A0020100100201F85EB51F8
:1027B0002DE9B043C4B004AF294800F075FF0346CB
:1027C000002B42D1274B1B68184605F01BFD024623
:1027D0000B461046194620A3D3E9002305F066FDF9
:1027E00002460B4614461D461F4B1B68184605F053
:1027F00009FD02460B461046194617A3D3E90023EC
:1028000005F054FD02460B4690469946174B1B684F
:10281000184605F0F7FC02460B46104619460EA373
:10282000D3E9002305F042FD02460B463946CDE9C7
:102830000089CDE9022308460D4922462B4606F0C1
:10284000AFFA3B46184600F0AFFE07F58077BD466D
:10285000BDE8B083AFF30080B0CB631ADCA54C4079
:10286000700B0020640B0020600B00205C0B00202C
:1028700058CE0008AFF3008080B489B000AF786014
:102880000023BB6100237B610023FB6102233B61CA
:102890000023FB600223BB60484B9B6803F00C03E2
:1028A000BB61BB69042B07D0082B09D0002B3FD19B
:1028B0007B68434A1A603FE07B68424A1A603BE00B
:1028C0003E4B5B6803F480039B0DFB603B4B5B68F6
:1028D00003F03F03BB60FB68002B0DD0394ABB6897
:1028E000B2FBF3F2354B596847F6C0730B409B09B6
:1028F00003FB02F3FB610CE0314ABB68B2FBF3F26D
:102900002E4B596847F6C0730B409B0903FB02F33B
:10291000FB612A4B5B6803F440331B0C01335B0003
:102920003B61FA693B69B2FBF3F27B681A6003E032
:102930007B68234A1A6000BF204B9B6803F0F003BA
:10294000BB61BB691B09BB611F4ABB6913441B7890
:10295000DBB27B617B681A687B69DA407B685A600E
:10296000164B9B6803F4E053BB61BB699B0ABB61D8
:10297000154ABB6913441B78DBB27B617B685A68DC
:102980007B69DA407B689A600C4B9B6803F4604378
:10299000BB61BB695B0BBB610B4ABB6913441B7812
:1029A000DBB27B617B685A687B69DA407B68DA60FE
:1029B0002437BD465DF8047B704700BF00380240F5
:1029C0000024F40000127A00A400002080B483B038
:1029D00000AF78600B46FB70FB78002B06D0094BEC
:1029E000084A116B7A680A431A6306E0054B054AE8
:1029F000116B7A68D2430A401A630C37BD465DF802
:102A0000047B70470038024080B483B000AF786028
:102A10000B46FB70FB78002B06D0094B084A516B24
:102A20007A680A435A6306E0054B054A516B7A6897
:102A3000D2430A405A630C37BD465DF8047B7047A9
:102A40000038024080B483B000AF78600B46FB7062
:102A5000FB78002B06D0094B084A116C7A680A43B0
:102A60001A6406E0054B054A116C7A68D2430A40A5
:102A70001A640C37BD465DF8047B7047003802408D
:102A800080B483B000AF78600B46FB70FB78002BFE
:102A900006D0094B084A516C7A680A435A6406E02A
:102AA000054B054A516C7A68D2430A405A640C3788
:102AB000BD465DF8047B70470038024080B483B0A7
:102AC00000AF78600B46FB70FB78002B06D0094BFB
:102AD000084A116A7A680A431A6206E0054B054AF9
:102AE000116A7A68D2430A401A620C37BD465DF813
:102AF000047B70470038024080B586B000AF4FF4C9
:102B000000100121FFF79EFF02200121FFF75EFF69
:102B1000C0233B6102233B7502237B750123BB75F8
:102B20000123FB7507F110031348194600F0D0FB91
:102B300011480621042200F059FC0F480721042205
:102B400000F054FC0D4B3B600023BB804BF6FF7341
:102B5000FB8000233B8100237B814FF48043BB81BA
:102B60003B460748194602F025FC0548012102F0C2
:102B7000E3FC1837BD4680BD00040240801A060001
:102B80000054004080B582B000AF786013460A461A
:102B9000FA70BB7000BF78684FF4003102F0B8FDE6
:102BA0000346002BF7D17868012102F0E5FC00BF55
:102BB0007868134902F07CFD0346002BF8D0FA78C0
:102BC000BB78786811461A4602F016FDBB78002BD8
:102BD00008D100BF78680B4902F06AFD0346002B5C
:102BE000F8D00AE0BB78012B07D100BF786806490E
:102BF00002F05EFD0346002BF8D00837BD4680BDCD
:102C000001000300820007000200030080B582B0CB
:102C100000AF78600B46FB70FB787868194602F0CD
:102C200029FD00BF7868044902F042FD0346002BED
:102C3000F8D00837BD4680BD8000070080B584B05D
:102C400000AF78607868012102F0F4FC00BF78687A
:102C5000074902F02DFD0346002BF8D0786802F0FA
:102C600019FD0346FB73FB7B18461037BD4680BD3C
:102C70004000030080B584B000AF78607868002120
:102C800002F0D8FC7868012102F096FC00BF786859
:102C9000074902F00DFD0346002BF8D0786802F0DA
:102CA000F9FC0346FB73FB7B18461037BD4680BD1D
:102CB0004000030080B582B000AF786078680121E1
:102CC00002F07AFC0837BD4680BD00BF80B582B0F7
:102CD00000AF4148D2210022FFF754FF3E48A8210F
:102CE000FFF794FF3C48FFF7E5FF3B48D321012263
:102CF000FFF748FF3848FFF7A1FF0346FB7136484E
:102D0000FFF79CFF0346BB713348FFF797FF03466D
:102D10007B713148FFF792FF03463B712E48FFF766
:102D20008DFF0346FB702C48FFF7A4FF0346BB70E2
:102D3000BB791B029AB2FB799BB213439AB2274B21
:102D40001A803B791B029AB27B799BB213439AB2E9
:102D5000224B5A80BB781B029AB2FB789BB213437A
:102D60009AB21E4B9A801E4B1B785BB29BB21B4AD9
:102D7000128811B21B4A128812B28A1A92B202FB4E
:102D800003F39BB29AB2184B1A80154B5B785BB277
:102D90009BB2124A528811B2124A528812B28A1A4F
:102DA00092B202FB03F39BB29AB2104B1A800C4B07
:102DB0009B785BB29BB2094A928811B2094A928809
:102DC00012B28A1A92B202FB03F39BB29AB2084B78
:102DD0001A800837BD4680BD00540040380B0020E3
:102DE0004C000020340A0020540B0020480B002027
:102DF000720B002080B582B000AF4648302100221F
:102E0000FFF7C0FE4348A821FFF700FF4148FFF746
:102E100051FF404831210122FFF7B4FE3D48FFF742
:102E20000DFF0346FB713B48FFF708FF0346BB71EC
:102E30003848FFF703FF03467B713648FFF7FEFE75
:102E400003463B713348FFF7F9FE0346FB703148F8
:102E5000FFF710FF0346BB70BB791B029AB2FB79E8
:102E60009BB213439BB21BB21B119AB22A4BDA805E
:102E70003B791B029AB27B799BB213439BB21BB284
:102E80001B119AB2244B1A81BB781B029AB2FB78B1
:102E90009BB213439BB21BB21B119AB21E4B5A81B9
:102EA0001E4BDB785BB29BB21B4AD28811B21C4A24
:102EB000D28812B28A1A92B202FB03F39BB29AB280
:102EC000184B1A80154B1B795BB29BB2124A1289C0
:102ED00011B2134A128912B28A1A92B202FB03F398
:102EE0009BB29AB2104B1A800C4B5B795BB29BB2CF
:102EF000094A528911B20A4A528912B28A1A92B206
:102F000002FB03F39BB29AB2084B1A800837BD4606
:102F100080BD00BF00540040380B00204C00002052
:102F2000340A0020320B00204A0B0020680B0020DE
:102F300080B582B000AF34483C210022FFF722FE6A
:102F400031480321FFF762FE2F48FFF7B3FE2E48FA
:102F50003D210122FFF716FE2B48FFF76FFE0346C7
:102F6000FB712948FFF76AFE0346BB712648FFF74D
:102F700065FE03467B712448FFF760FE03463B7104
:102F80002148FFF75BFE0346FB701F48FFF772FE08
:102F90000346BB701D4B9B795BB29BB2FA79120260
:102FA00091B2BA7992B20A4392B292B202FB03F39F
:102FB0009BB29AB2164B1A80144BDB795BB29BB270
:102FC000FA78120291B2BA7892B20A4392B292B2ED
:102FD00002FB03F39BB29AB20E4B1A800B4B1B7A87
:102FE0005BB29BB27A79120291B23A7992B20A43F9
:102FF00092B292B202FB03F39BB29AB2064B1A80D2
:103000000837BD4680BD00BF005400404C00002082
:10301000500B0020300B0020520B002080B584B0F4
:1030200002AF474B009347480121474A474BFFF700
:1030300097F808200121FFF7C9FC4FF470433B606B
:1030400001233B710023BB7103237B710023FB71C0
:103050003B463F48194600F03BF93E48D22100224A
:10306000FFF790FD3B482021FFF7D0FD39480F21A5
:10307000FFF7CCFD3748FFF71DFE3648D22100226E
:10308000FFF780FD33482321FFF7C0FD31482021A1
:10309000FFF7BCFD2F48FFF70DFE2E483021002220
:1030A000FFF770FD2B482021FFF7B0FD294837219D
:1030B000FFF7ACFD2748FFF7FDFD26483021002231
:1030C000FFF760FD23482321FFF7A0FD21483021B1
:1030D000FFF79CFD1F48FFF7EDFD1E483C21002235
:1030E000FFF750FD1B480021FFF790FD19482021F4
:1030F000FFF78CFD1748FFF7DDFD16483C21002245
:10310000FFF740FD13480121FFF780FD1148202102
:10311000FFF77CFD0F48FFF7CDFD0E483C21002254
:10312000FFF730FD0B480221FFF770FD0948002131
:10313000FFF76CFD0748FFF7BDFD0837BD4680BDB2
:1031400000000020740B0020B40000206C0100205F
:10315000000C02400054004080B500AF014801F06F
:103160004BF980BD740B002080B483B000AF0346E0
:103170003960FB713B6812221A80034B18460C37EA
:10318000BD465DF8047B7047D000002080B483B05A
:1031900000AF03463960FB713B6804221A80034B81
:1031A00018460C37BD465DF8047B7047F0000020E0
:1031B00080B582B000AF03463960FB71FB79002B0C
:1031C00005D1084808493A6801F0C0F804E007480A
:1031D00005493A6801F0BAF8034B18460837BD466E
:1031E00080BD00BF68CE0008FC1100208CCE000816
:1031F00080B582B000AF03463960FB7104480549D1
:103200003A6801F0A3F8034B18460837BD4680BD65
:10321000B0CE0008FC11002080B582B000AF03469C
:103220003960FB71FB79002B05D1084808493A68E1
:1032300001F08CF804E0074805493A6801F086F887
:10324000034B18460837BD4680BD00BFC4CE0008FA
:10325000FC110020D4CE000880B582B000AF034638
:103260003960FB71FB79002B05D1084808493A68A1
:1032700001F06CF804E0054805493A6801F066F889
:10328000034B18460837BD4680BD00BFE4CE00089A
:10329000FC11002080B582B000AF03463960FB719D
:1032A000FB79002B05D1084808493A6801F04EF82F
:1032B00004E0054805493A6801F048F8034B184610
:1032C0000837BD4680BD00BFF0CE0008FC110020CD
:1032D00080B487B000AF7860396000237B61002341
:1032E0003B610023FB6000237B6176E07B69012268
:1032F00002FA03F33B613B681A683B691340FB60C9
:10330000FA683B699A4265D17B681A687B695B0001
:10331000032101FA03F3DB431A407B681A607B68E0
:103320001A683B681B7919467B695B0001FA03F355
:103330001A437B681A603B681B79012B03D03B68FA
:103340001B79022B2ED17B689A687B695B00032175
:1033500001FA03F3DB431A407B689A607B689A6842
:103360003B685B7919467B695B0001FA03F31A43FA
:103370007B689A607B685A687B699BB2012101FA7D
:1033800003F3DB431A407B685A607B685A683B68EA
:103390009B7919467B699BB201FA03F39BB21A43EE
:1033A0007B685A607B68DA687B699BB25B000321AB
:1033B00001FA03F3DB431A407B68DA607B68DA6862
:1033C0003B68DB7919467B695B0001FA03F31A431A
:1033D0007B68DA607B6901337B617B690F2B85D960
:1033E0001C37BD465DF8047B704700BF80B485B0D4
:1033F00000AF786013460A467A807B700023FB603A
:103400000023BB607A787B8803F007039B0002FAF5
:1034100003F3FB607B88DB089BB21A467B88DB08E2
:103420009BB219467B68083153F821107B8803F062
:1034300007039B000F2000FA03F3DB4319407B686E
:10344000083243F822107B88DB089BB21A467B685F
:10345000083253F82220FB681343BB607B88DB08EB
:103460009BB21A467B680832B96843F822101437B9
:10347000BD465DF8047B704780B400AF002318465A
:10348000BD465DF8047B704780B400AF002318464A
:10349000BD465DF8047B704780B485B000AFF8602E
:1034A000B9607A60FB68232B74D801A252F823F02C
:1034B00095350008953500089535000895350008C4
:1034C00095350008953500089535000895350008B4
:1034D00095350008953500089535000895350008A4
:1034E0009535000895350008953500089535000894
:1034F0009535000895350008953500089535000884
:103500009535000895350008953500089535000873
:103510009535000895350008953500089535000863
:103520009535000895350008953500089535000853
:103530009535000841350008953500089535000897
:10354000184B1B68DAB2BB681A70BB680133154AA6
:103550001268120AD2B21A70BB680233114A12689A
:10356000120CD2B21A70BB6803330E4A1268120EE4
:10357000D2B21A70BB6804330A4A12791A70BB6857
:103580000533084A52791A70BB680633054A9279A6
:103590001A7000E000BF002318461437BD465DF8DE
:1035A000047B7047F400002080B584B000AF7860E1
:1035B0000023FB6002E0FB680133FB607A68FB6874
:1035C00013441B78002BF6D17868F96800F004F8F2
:1035D0001037BD4680BD00BF80B485B000AF7860B5
:1035E00039600023FB6017E0114B1B687968FA68AB
:1035F0000A4411780F4AD1540D4B1B685A1C0C4BCE
:103600001A60FB680133FB60094B1B68B3F5006F60
:1036100002D1074B00221A60FA683B689A42E3D352
:10362000002318461437BD465DF8047B704700BF81
:10363000E00A0020BC12002080B485B000AF7860A2
:1036400039600023FB601EE0144B1B687968FA6840
:103650000A441178124AD154104B1B685A1C0F4B64
:103660001A600E4B1B68802B02D10C4B00221A6093
:103670000A4B1A680B4B1B689A4201D1022307E0E0
:10368000FB680133FB60FA683B689A42DCD3002395
:1036900018461437BD465DF8047B7047F8110020CA
:1036A00064110020E411002080B483B000AF786082
:1036B000104B1A68104B1B689A4201D1002312E08C
:1036C0000D4B1B680D4AD25C7B681A700A4B1B6855
:1036D0005A1C094B1A60084B1B68802B02D1064B01
:1036E00000221A60012318460C37BD465DF8047BA2
:1036F000704700BFF8110020E41100206411002081
:1037000080B500AF114B114A126842F001021A60F5
:103710000E4B00229A600D4A0C4B1B6823F08473F9
:1037200023F480331360094B094A5A60074B074A58
:10373000126822F480221A60044B0022DA6000F042
:1037400087F8044B4FF000629A6080BD0038024059
:103750001030002400ED00E080B487B000AF0023FB
:103760003B6100237B610223FB600023BB600223DB
:103770007B60324B9B6803F00C033B613B69042B7D
:1037800007D0082B09D0002B3FD12D4B2D4A1A60B2
:103790003FE02B4B2C4A1A603BE0284B5B6803F45C
:1037A00080039B0DBB60254B5B6803F03F037B6090
:1037B000BB68002B0DD0244A7B68B2FBF3F21F4B91
:1037C000596847F6C0730B409B0903FB02F37B610A
:1037D0000CE01C4A7B68B2FBF3F2184B596847F6C1
:1037E000C0730B409B0903FB02F37B61134B5B68C7
:1037F00003F440331B0C01335B00FB607A69FB6808
:10380000B2FBF3F20E4B1A6003E00D4B0D4A1A6047
:1038100000BF0A4B9B6803F0F0031B090B4AD35C03
:10382000DBB23B61064B1A683B69DA40044B1A6015
:103830001C37BD465DF8047B704700BF003802406E
:10384000100100200024F40000127A00140100206E
:1038500080B483B000AF00237B6000233B60354B16
:10386000344A126842F480321A60324B1B6803F407
:1038700000333B607B6801337B603B68002B03D1E6
:103880007B68B3F5A06FF0D12A4B1B6803F40033BB
:10389000002B02D001233B6001E000233B603B682A
:1038A000012B42D1234B234A126C42F080521A64FE
:1038B000214B214A126842F480421A601D4B1D4A76
:1038C00092689A601B4B1B4A926842F400429A60CD
:1038D000184B184A926842F4A0529A60154B174A46
:1038E0005A60144B134A126842F080721A6000BF8B
:1038F000104B1B6803F00073002BF9D0104B40F203
:1039000005621A600B4B0B4A926822F003029A6020
:10391000084B084A926842F002029A6000BF054BC9
:103920009B6803F00C03082BF9D10C37BD465DF8FA
:10393000047B704700380240007000400854400784
:10394000003C024080B485B000AF78600B4B1B6830
:10395000002B02D1094B0A4A1A60084B1B68FB6016
:10396000064B1A687B681A44044B1A60FB681846B9
:103970001437BD465DF8047B704700BFC80A0020BD
:10398000C01A002080B584B000AF7860012001210A
:10399000FFF71CF84FF4D853BB6003237B7302235B
:1039A0003B730023BB730023FB7307F1080320481C
:1039B0001946FFF78DFC1E4808210A22FFF716FD65
:1039C0001B4809210A22FFF711FD19480B210A2281
:1039D000FFF70CFD16480C210A22FFF707FD4FF4F4
:1039E0008063BB600123BB730123FB7303237B73E1
:1039F00007F108030E481946FFF76AFC0C480A2134
:103A00000A22FFF7F3FC4FF480400121FFF738F85A
:103A100080200121FEF7F8FF4FF080500121FFF7D1
:103A20004DF8012001F0A8FE1037BD4680BD00BF53
:103A30000000024080B584B000AF78604FF4C060F1
:103A400001F0A8FE43233B7301237B730323BB7365
:103A50000123FB7307F10C03184601F0ADFE10378C
:103A6000BD4680BD80B485B000AF78600023FB60A8
:103A70007A6813461B019B1ADB001A460A4BA3FB0C
:103A80000213D21A520813449B08BB60FB6801332F
:103A9000FB60FA68BB689A4200D900E0F6E7143789
:103AA000BD465DF8047B70472549922480B582B0FD
:103AB00000AF78607B684FF47A7202FB03F318461C
:103AC000FFF7D0FF0837BD4680BD00BF80B584B08A
:103AD00000AF786039600023FB733B685B78092B8B
:103AE00039D801A252F823F0393B00084D3B0008B9
:103AF000573B0008433B0008573B00081B3B0008AE
:103B0000113B0008573B00082F3B0008253B0008ED
:103B10007868396800F036F922E07868396800F092
:103B20000DFA1DE07868396800F046FA18E0786808
:103B3000396800F0BBFA13E07868396800F0E6FAFB
:103B40000EE07868396800F009FB09E078683968A8
:103B500000F06AFB04E07868396800F0D3FB00BF2E
:103B6000FB7B18461037BD4680BD00BF80B584B0D2
:103B700000AF786039600023FB737B6893F81231E3
:103B8000032B1CD13B689B88DBB2012B11D87B68CF
:103B9000D3F8E0359B687868396898473B68DB88DC
:103BA000002B0BD1FB7B002B08D1786802F0DEF8EC
:103BB0000AE07868396800F0A5FB05E004E0786861
:103BC000396800F09FFB00BFFB7B18461037BD46ED
:103BD00080BD00BF80B584B000AF7860396000233D
:103BE000FB733B689B88BB733B685B78012B39D0C8
:103BF000032B02D0002B6BD0BCE07B6893F8123112
:103C0000022B02D0032B0DD026E0BB7B002B08D06B
:103C1000BB7B802B05D0BB7B7868194601F0ACFFDD
:103C20001FE01EE03B685B88002B0AD1BB7B002BAA
:103C300007D0BB7B802B04D0BB7B7868194601F092
:103C40009BFF7B68D3F8E0359B68786839689847B4
:103C5000786802F08BF804E07868396800F052FB6D
:103C600000BF87E07B6893F81231022B02D0032B50
:103C70000DD027E0BB7B002B08D0BB7B802B05D071
:103C8000BB7B7868194601F077FF20E01FE03B68B6
:103C90005B88002B15D1BB7B002B0ED0BB7B802B10
:103CA0000BD0BB7B7868194601F0A0FF7B68D3F886
:103CB000E0359B68786839689847786802F056F86C
:103CC00005E004E07868396800F01CFB00BF51E0B3
:103CD0007B6893F81231022B02D0032B0DD043E006
:103CE000BB7B002B08D0BB7B802B05D0BB7B7868CF
:103CF000194601F041FF3CE03BE0BB7B5BB2002B8F
:103D000015DABB7B03F07F02796813469B001344EE
:103D1000DB000B4403F58C739B78002B03D0184B0E
:103D200001221A601AE0164B00221A6016E0BB7BD3
:103D30005BB2002B12DBBA7B796813469B001344FD
:103D4000DB000B4403F55C739B78002B03D00C4B1A
:103D500001221A6002E00A4B00221A6078680849C2
:103D6000022201F09BFF04E07868396800F0CAFA8B
:103D700000BF00BFFB7B18461037BD4680BD00BFAB
:103D8000CC0A002080B584B000AF786039603B6811
:103D90005B881B0A9BB2013B062B00F2B18001A29B
:103DA00052F823F0C13D0008F33D00081D3E000815
:103DB000013F0008013F0008ED3E0008F73E000803
:103DC0007B68D3F8E8351B687A68917807F10A02B6
:103DD000084611469847F8603B68DB88402B04D0C2
:103DE0007B6893F81231012B02D108237B818CE090
:103DF0008BE07B68D3F8E0359B6A7A68917807F1AD
:103E00000A02084611469847F860FB68013302220F
:103E10001A707B68FA68C3F8EC2576E03B685B882B
:103E2000DBB2052B5CD801A252F823F0453E000816
:103E30005F3E0008793E0008933E0008AD3E000852
:103E4000C73E00087B68D3F8E8355B687A689178EC
:103E500007F10A02084611469847F86045E07B687A
:103E6000D3F8E8359B687A68917807F10A0208462A
:103E700011469847F86038E07B68D3F8E835DB688E
:103E80007A68917807F10A02084611469847F86067
:103E90002BE07B68D3F8E8351B697A68917807F1E5
:103EA0000A02084611469847F8601EE07B68D3F87E
:103EB000E8355B697A68917807F10A02084611468D
:103EC0009847F86011E07B68D3F8E8359B697A6819
:103ED000917807F10A02084611469847F86004E015
:103EE0007868396800F00EFA24E00EE078683968E6
:103EF00000F008FA1EE07868396800F003FA19E06B
:103F00007868396800F0FEF914E07B89002B11D045
:103F10003B68DB88002B0DD03B68DA887B899A42AE
:103F200038BF13469BB27B817B897868F9681A4653
:103F300001F0B4FE1037BD4680BD00BF80B584B02F
:103F400000AF786039603B689B88002B2DD13B68BF
:103F5000DB88002B29D13B685B88DBB203F07F0351
:103F6000FB737B6893F81231032B04D178683968AE
:103F700000F0C8F918E07B68FA7B83F81321FB7B1B
:103F80007868194601F06CFE786801F0EFFEFB7B63
:103F9000002B04D07B68022283F8122104E07B68A6
:103FA000012283F8122104E003E07868396800F008
:103FB000A9F91037BD4680BD80B582B000AF7860EA
:103FC00039603B685B88DAB2374B1A70364B1B7826
:103FD000012B04D97868396800F094F960E07B68B7
:103FE00093F81231022B02D0032B1BD053E02E4B3F
:103FF0001B78002B12D02C4B1A787B6883F8102189
:104000007B68032283F81221274B1B7878681946B6
:10401000FEF758FA786801F0A9FE41E0786801F0EF
:10402000A5FE3DE0204B1B78002B12D17B680222BD
:1040300083F812211C4B1A787B6883F810211A4BE5
:104040001B7878681946FEF755FA786801F08EFEFD
:1040500020E07B6893F81021134B1B789A4215D00F
:104060007B6893F8103178681946FEF743FA0E4BD7
:104070001A787B6883F810210B4B1B7878681946F7
:10408000FEF720FA786801F071FE03E0786801F02D
:104090006DFE05E004E07868396800F033F900BF90
:1040A0000837BD4680BD00BFD80A002080B582B069
:1040B00000AF786039603B68DB88012B04D07868FA
:1040C000396800F01FF91BE07B6893F81231022B6E
:1040D00002D0032B06D00EE078680B49012201F0D4
:1040E000DDFD0DE07B6803F58873786819460122D1
:1040F00001F0D4FD04E07868396800F003F900BFEE
:104100000837BD4680BD00BFD00A002080B582B010
:1041100000AF786039607B6893F81231023B012B65
:1041200011D87B68D3F81431002B03D00A4B03223B
:104130001A6002E0084B01221A60786806490122E1
:1041400001F0ACFD04E07868396800F0DBF800BFEE
:104150000837BD4680BD00BFD40A002080B584B0BA
:1041600000AF786039600023FB733B685B88012BEC
:104170000ED17B680122C3F814217B68D3F8E035A7
:104180009B68786839689847786801F0EFFD48E0E7
:104190003B685B88022B44D13B689B88DBB2002BD9
:1041A0003FD17B681B695B68BB603B689B881B0ACF
:1041B0009BB2FB73FB7B013B042B2BD801A252F873
:1041C00023F000BFD9410008E5410008F141000893
:1041D000FD410008094200083B7A012262F3061300
:1041E0003B7217E03B7A022262F306133B7211E046
:1041F0003B7A032262F306133B720BE03B7A042204
:1042000062F306133B7205E03B7A052262F3061364
:104210003B7200BF7B681B69BA685A60786801F01E
:10422000A5FD1037BD4680BD80B582B000AF786077
:1042300039607B6893F81231023B012B13D83B683D
:104240005B88012B0ED17B680022C3F814217B68A8
:10425000D3F8E0359B68786839689847786801F04A
:1042600085FD05E004E07868396800F04BF800BF90
:104270000837BD4680BD00BF80B483B000AF786012
:1042800039607B6893F8C8253B681A707B6893F89F
:10429000C9253B685A707B6893F8CA351A467B6813
:1042A00093F8CB351B029BB213449AB23B685A80F9
:1042B0007B6893F8CC351A467B6893F8CD351B02A2
:1042C0009BB213449AB23B689A807B6893F8CE35D0
:1042D0001A467B6893F8CF351B029BB213449AB2FF
:1042E0003B68DA803B68DB881A467B68C3F83C2170
:1042F0007B68012283F811210C37BD465DF8047BF1
:10430000704700BF80B582B000AF786039603B680D
:104310001B78DBB25BB2002B04DA7868802101F0F5
:104320002BFC0CE03B68DB88002B04D178688021F3
:1043300001F022FC03E07868002101F01DFC7868A0
:10434000FDF74AF80837BD4680BD00BF80B586B08E
:1043500000AFF860B9607A600023FB75FB68002B42
:104360002FD0F86800F030F8034601339BB25B00B1
:104370009AB27B681A80FB7D5A1CFA75BA6813449E
:104380007A681288D2B21A70FB7D5A1CFA75BA6824
:10439000134403221A7010E0FB7D5A1CFA75BA68A8
:1043A0001A44FB68591CF9601B781370FB7D5A1C7A
:1043B000FA75BA68134400221A70FB681B78002B48
:1043C000EAD11837BD4680BD80B485B000AF7860B3
:1043D0000023FB7305E0FB7B0133FB737B68013338
:1043E0007B607B681B78002BF5D1FB7B184614376C
:1043F000BD465DF8047B704780B586B000AF78603D
:1044000000237B617868FCF711FA0346002B00F06B
:104410009C807868FCF71CFA03463B613B69002BE3
:1044200001D1002392E0BB7CC3F3C003DBB2002BBD
:1044300006D0786800F012FA03467A6913437B616C
:10444000BB7CC3F38003DBB2002B06D0786800F09E
:104450000FF903467A6913437B613B7CC3F3400346
:10446000DBB2002B09D00023FB603B7B43F002034F
:104470003B737B68DB68FA685A61FB7CC3F3C0134B
:10448000DBB2002B06D0786800F064F803467A6946
:1044900013437B617B7CC3F3C003DBB2002B06D0EC
:1044A000786800F097F803467A6913437B613B7C98
:1044B000C3F3C003DBB2002B06D0786800F08AFAA1
:1044C00003467A6913437B613B7CC3F30013DBB281
:1044D000002B06D0786800F097FA03467A691343F8
:1044E0007B617B7CC3F30013DBB2002B06D07868C2
:1044F00000F07EFB03467A6913437B617B7CC3F348
:104500004013DBB2002B06D0786800F013FC0346A2
:104510007A6913437B61BB7CC3F30013DBB2002BCE
:1045200006D0786800F042FC03467A6913437B6149
:10453000BB7CC3F34013DBB2002B06D0786800F0DD
:104540004FFC03467A6913437B617B691846183731
:10455000BD4680BD80B586B000AF78607B689B7A31
:10456000002B11D07B6803F586731B68FB603B7BD7
:104570006FF341033B733B7B6FF300033B737B683B
:10458000D3F80C31FA681A6000233B613B7C43F09E
:1045900001033B747B681B697A68126951683A6948
:1045A000D2430A405A600A4B1B689B697868984757
:1045B00000237B61FB7D43F08003FB757B68DB6838
:1045C0007A695A61012318461837BD4680BD00BF7D
:1045D0004800002080B586B000AF7860224B1B6891
:1045E0005B69786898477B681B699B68FB60002360
:1045F0007B617B7D43F008037B757B68DB687A69B0
:104600005A617B689B7A002B29D03B7BC3F3000364
:10461000DBB2012B23D100233B613B7C43F0010340
:104620003B747B68D3F80C317A68D2F80C2111689E
:104630003A690A431A603B7C43F002033B747B688F
:10464000D3F80C317A68D2F80C2111683A690A4320
:104650001A60064B054A126942F006021A610123EC
:1046600018461837BD4680BD4800002000ED00E028
:1046700080B586B000AF786000233B610023BB604B
:104680007868FCF793FE7861DCE07B6903F0010356
:10469000002B00F0D1803B69DBB27868194600F04E
:1046A000B9FB0346BB603B7AC3F30003DBB2002BCC
:1046B00032D03B69012202FA03F3FB607B681B697D
:1046C0007A681269516BFA68D2430A405A63002330
:1046D000BB603B7A43F001033B727A683B69043369
:1046E0009B0013449B68BA689A605B4B1B685B68CD
:1046F0003A69D2B27868114698477B68DB78012B1B
:104700000AD13B69002B07D17B6893F81131042B48
:1047100002D17868FCF760FE3B7AC3F38003DBB21A
:10472000002B0DD00023BB603B7A43F004033B72A7
:104730007A683B6904339B0013449B68BA689A60AB
:104740003B7AC3F3C003DBB2002B0DD00023BB6068
:104750003B7A43F008033B727A683B6904339B0061
:1047600013449B68BA689A603B7AC3F30013DBB2C8
:10477000002B0DD00023BB603B7A43F010033B724B
:104780007A683B6904339B0013449B68BA689A605B
:104790003B7AC3F34013DBB2002B0DD00023BB6088
:1047A0003B7A43F020033B727A683B6904339B00F9
:1047B00013449B68BA689A603B7AC3F38013DBB2F8
:1047C000002B0DD00023BB603B7A43F040033B72CB
:1047D0007A683B6904339B0013449B68BA689A600B
:1047E0003B7AC3F34003DBB2002B0DD00023BB6048
:1047F0003B7A43F002033B727A683B6904339B00C7
:1048000013449B68BA689A603B7AC3F3C013DBB267
:10481000002B11D07868396900F078F90023BB606B
:104820003B7A43F080033B727A683B6904339B0018
:1048300013449B68BA689A603B6901333B617B69AA
:104840005B087B617B69002B7FF41FAF0123184657
:104850001837BD4680BD00BF4800002080B586B037
:1048600000AF786000233B610023FB607868FCF7B1
:104870006BFD7861A3E07B6903F00103002B00F07E
:1048800098803B69DBB278681946FCF773FD0346F4
:10489000FB603B7BC3F30003DBB2002B48D000235B
:1048A000FB603B7B43F001033B737A683B69143345
:1048B0009B0013445B68FA689A607B68DB78012B85
:1048C0001FD17A683B6914339B0013445B681B69F2
:1048D000BB6079683A6913469B001344DB000B44C4
:1048E00003F55E731A68BB68C3F31203D11A7868C4
:1048F0003A6913469B001344DB00034403F56273DB
:104900001960334B1B681B683A69D2B2786811464C
:1049100098477B68DB78012B0AD13B69002B07D1D4
:104920007B6893F81131052B02D17868FCF754FDB0
:104930003B7BC3F34003DBB2002B0DD00023FB60B5
:104940003B7B43F002033B737A683B6914339B0063
:1049500013445B68FA689A603B7BC3F38003DBB265
:10496000002B0DD00023FB603B7B43F004033B7323
:104970007A683B6914339B0013445B68FA689A6059
:104980003B7BC3F3C003DBB2002B12D0104B1B6880
:104990009B68786898470023FB603B7B43F00803E3
:1049A0003B737A683B6914339B0013445B68FA6875
:1049B0009A603B6901333B617B695B087B617B6982
:1049C000002B7FF458AF012318461837BD4680BD31
:1049D0004800002080B584B000AF7860094B1B68A8
:1049E000DB68786898470023FB603B7B43F0080353
:1049F0003B737B68DB68FA685A61012318461037FD
:104A0000BD4680BD4800002080B586B000AF78600C
:104A100000233B613B7C43F010033B747B68DB6805
:104A20007A68D26891693A69D2430A409A617B6890
:104A3000DB681B6AFB603B7BC3F30303DBB21A46F4
:104A400013469B001344DB0003F55C737A68134440
:104A50007B61BB7BC3F34303DBB2013B052B46D831
:104A600001A252F823F000BFEF4A0008814A000873
:104A7000EF4A0008EF4A0008EF4A0008CB4A000856
:104A8000BB89C3F30A139BB2002B1DD07B69DA6884
:104A9000BB89C3F30A139BB2786811461A46FBF729
:104AA00013FC7B69DA68BB89C3F30A139BB21A440F
:104AB0007B69DA607B699A69BB89C3F30A139BB28D
:104AC0001A447B699A6113E012E07B6803F5B963CD
:104AD000786819460822FBF7F7FB7B699A69BB895E
:104AE000C3F30A139BB21A447B699A6100E000BFCA
:104AF0007B68DB687A68D26891693A690A439A618F
:104B0000012318461837BD4680BD00BF80B586B06A
:104B100000AF7860396000237B610023BB603A6896
:104B200013469B001344DB0003F58C737A6813442F
:104B3000FB60FB685A69FB689B69D31A7B61FB6861
:104B40009A687B699A4202D2FB689B687B617B69A9
:104B500003339B083B617A683B6804339B00134432
:104B60009B689B69BB602EE0FB685A69FB689B6988
:104B7000D31A7B61FB689A687B699A4202D2FB6810
:104B80009B687B617B6903339B083B61FB68D96849
:104B90003B68DAB27B699BB27868FBF75DFBFB6828
:104BA000DA687B691A44FB68DA60FB689A697B699A
:104BB0001A44FB689A617A683B6804339B0013448B
:104BC0009B689B69BB603B891A463B699A4209D93D
:104BD000FB689A69FB685B699A4203D2FB685B6970
:104BE000002BC1D1012318461837BD4680BD00BF38
:104BF00080B58AB000AF786000233B6100233B6240
:104C00000023FB610023BB6100237B610023FB6069
:104C10003B7C43F001033B747B681B697A68126933
:104C200051683A69D2430A405A6078680021FBF71C
:104C300057FD00237B6212E07A687B6A04339B0095
:104C400013449B68FF229A607A687B6A14339B0046
:104C500013445B68FF229A607B6A01337B627B6846
:104C60005B781A467B6A9A42E6D87B681B694FF0EC
:104C7000FF329A613B8C012262F30F033B847B8CF1
:104C8000012262F30F037B847B681B693A6ADA6155
:104C90003B7F43F008033B773B7F43F001033B77C7
:104CA0003B7F43F004033B773B7F43F002033B77BA
:104CB0007B681B69FA695A613B7E43F001033B76CE
:104CC0003B7E43F008033B763B7E43F002033B769A
:104CD0003B7E43F004033B763B7E43F020033B7670
:104CE0007B681B69BA691A617B681B691B687B61F9
:104CF000BB8A6FF30A13BB827B681B697A691A60EF
:104D00007868FCF769FB0023FB607B7B43F01003B2
:104D10007B737B68DB68FA685A61054B1B681B690B
:104D200078689847012318462837BD4680BD00BFE4
:104D30004800002080B584B000AF78607868FBF749
:104D400069FF7B68DB68DB68BB607868FBF73EFF68
:104D50000346032B0CD17B6800229A707B684FF4CA
:104D600000729A807B7A092262F385037B720AE0E3
:104D70007B6801229A707B6840229A807B7A0522A8
:104D800062F385037B727B68DB68BA68DA600023B4
:104D9000FB607B7B43F020037B737B68DB68FA68F6
:104DA0005A61012318461037BD4680BD80B584B0D6
:104DB00000AF78600023FB60084B1B68DB697868F4
:104DC0009847BB7B43F01003BB737B68DB68FA68D2
:104DD0005A61012318461037BD4680BD48000020A7
:104DE00080B584B000AF78600023FB60084B1B687F
:104DF0001B6A78689847BB7B43F02003BB737B68D2
:104E0000DB68FA685A61012318461037BD4680BD39
:104E10004800002080B487B000AF78600B46FB707C
:104E20007B681B691B697B617B681B695B6B3B61F2
:104E3000FB783A6922FA03F3DB01DBB27A691343A8
:104E40007B61FB787A6804339B0013449B689A6803
:104E50007B691340FB60FB6818461C37BD465DF854
:104E6000047B704780B584B000AF78600B46FB7060
:104E70007B68D3F8EC3539331B88786881211A4672
:104E8000022300F077FD7B68D3F8EC3540331B88B4
:104E9000786801211A46022300F06CFD78688221AF
:104EA0000822032300F066FD0D4BFB60FB68043312
:104EB00002221A70FB68053300221A70094B1B6826
:104EC00098477B68D3F8EC3540331B88786801211C
:104ED000054A00F0D5FD002318461037BD4680BDB9
:104EE000D0000020FC0000207412002080B582B0A9
:104EF00000AF78600B46FB707868812100F088FD78
:104F00007868012100F084FD7868822100F080FD3E
:104F1000034B5B689847002318460837BD4680BDA1
:104F2000FC00002080B584B000AF786039603B6839
:104F30001B7803F06003002B3FD0202B37D13B6858
:104F4000DB88002B29D03B681B78DBB25BB2002BDF
:104F500011DA364B9B683A68527811463A68D28823
:104F60000846334998473B68DB88786830491A46D9
:104F700000F094FE19E03B685B781A462D4B1A60EE
:104F80003B68DB881A462C4B1A603B68DB887868E4
:104F900027491A4600F0B6FE07E0244B9B683A68A2
:104FA0005278104600210022984700233AE07868A2
:104FB0003968FFF7A7F9022334E03B685B780A2BD6
:104FC00018D00B2B1CD0062B2BD13B685B881B0AFF
:104FD0009BB2212B07D1194BBB603B68DB883A2B76
:104FE00028BF3A23FB81FB897868B9681A4600F02C
:104FF00055FE16E078681249012200F04FFE10E0DD
:105000003B685B88DBB2002B06D13B685B88DBB278
:105010001A460B4B1A6003E078683968FFF772F99B
:1050200000BF002318461037BD4680BDFC0000209D
:10503000B412002068010020F00A00203601002090
:10504000DC0A002080B582B000AF78600A4B1B6894
:10505000FF2B0BD0094B9B68074A1168084A12685E
:10506000084608499847044BFF221A600023184657
:105070000837BD4680BD00BF68010020FC0000204D
:10508000F00A0020B412002080B584B000AF786030
:105090000B46FB70284B1B78012B48D1274B1B6814
:1050A000002B03D1244B00221A7040E07B68D3F818
:1050B000EC3539331B881A46204B1B689A421ED2A6
:1050C0001F4B1B68FB817B68D3F8EC35B3F8393094
:1050D000BB817B68D3F8EC3539331B881A46184BF3
:1050E0001B681A44164B1A60144B1A687B68D3F875
:1050F000EC3539331B88D21A104B1A600FE0104B75
:105100001B68FB810D4B1B68BB810D4B1A680B4B59
:105110001B681A440A4B1A60084B00221A60FA896D
:10512000084B1A44BB897868812100F0E9FC002310
:1051300018461037BD4680BDEC0A0020E80A002062
:10514000E40A0020BC12002080B584B000AF786073
:105150000B46FB70FA78796813469B001344DB001A
:105160000B4403F562731B68FB810A4B1B69FA89C8
:105170000948114698477B68D3F8EC3540331B88C3
:1051800078680121044A00F07BFC002318461037A0
:10519000BD4680BDFC0000207412002080B582B0A6
:1051A00000AF7860084B1B68591C074A1160052B3B
:1051B00005D1054B00221A60786800F007F800233B
:1051C00018460837BD4680BDF40A002080B584B07B
:1051D00000AF7860384B1B78012B69D0374B1B68C8
:1051E000B3F5006F02D1354B00221A60334B1A68B9
:1051F000334B1B689A4203D12F4B00221A7057E0A1
:105200002E4B1A682E4B1B689A4206D92B4B1B68F3
:10521000C3F500622B4B1A6006E0294B1A68274B36
:105220001B68D21A274B1A607B68D3F8EC353933E8
:105230001B881A46234B1B689A421ED21F4B1B68C1
:10524000FB817B68D3F8EC35B3F83930BB817B68E0
:10525000D3F8EC3539331B881A46184B1B681A44AF
:10526000164B1A60174B1A687B68D3F8EC35393344
:105270001B88D21A134B1A600FE0104B1B68FB817E
:10528000104B1B68BB810D4B1A680E4B1B681A44F0
:105290000A4B1A600B4B00221A60074B01221A704E
:1052A000FA89094B1A44BB897868812100F028FCEF
:1052B0001037BD4680BD00BFEC0A0020E40A002084
:1052C000E00A0020E80A0020BC12002080B483B06D
:1052D00000AF03463960FB713B6843221A80034BE1
:1052E00018460C37BD465DF8047B7047240100204A
:1052F00080B584B000AF01200121FDF7A3FBA823F6
:10530000BB800023FB804FF4FA73BB600023BB819A
:105310003B1D4FF08040194600F058FD1C233B70A8
:1053200000237B700023BB700123FB703B461846B3
:1053300000F042FA4FF080400121012200F0D0FD40
:105340004FF08040012100F0ABFD1037BD4680BD1D
:1053500080B500AF4FF08040012100F0E5FD034B28
:105360001B685A1C014B1A6080BD00BFF80A002060
:1053700080B400AF034B1B681846BD465DF8047B44
:10538000704700BFF80A002080B584B000AF786095
:10539000FFF7EEFFF860FFF7EBFF0246FB68D31A5A
:1053A000BB60BA687B689A4200D300E0F3E710372D
:1053B000BD4680BD80B58AB000AF786039600023FB
:1053C000FB8400237B840423BB84574BFB617B68F5
:1053D0009B88FB84FB8C23F03F03FB8407F10C03C9
:1053E0001846FDF749FA7B69FB61FA694F4BA3FB4D
:1053F00002139B0C7B84FA8C7B8C1343FB847B68AD
:10540000FA8C9A807B681B889BB223F001039AB2C6
:105410007B681A800023FB843B681A68444B9A42DD
:1054200015D83B681B685B00FA69B2FBF3F3BB84D9
:10543000BB8C032B01D80423BB84FA8CBB8C134395
:10544000FB847B8C01339AB27B681A8440E03B6812
:10545000DA884BF6FF739A4209D13B681A68134603
:105460005B001344FA69B2FBF3F3BB840EE03B68C4
:105470001A6813469B0013449A001344FA69B2FB5E
:10548000F3F3BB84BB8C43F48043BB84BB8CC3F37A
:105490000B03002B03D1BB8C43F00103BB84BA8CFC
:1054A000FB8C13439BB26FEA43436FEA5343FB8485
:1054B0007B8C4FF4967202FB03F31E4A82FB0312AD
:1054C0009211DB17D31A9BB201339AB27B681A840C
:1054D0007B68FA8C9A837B681B889BB243F001033C
:1054E0009AB27B681A807B681B88FB84FB8C23F450
:1054F000816323F00203FB843B689A883B685B89E5
:1055000013439AB2FB8C1343FB847B68FA8C1A809A
:105510003B689A893B681B8913439AB27B681A815E
:105520002837BD4680BD00BF00127A0083DE1B43D2
:10553000A0860100D34D621080B483B000AF7860C4
:105540000B46FB70FB78002B08D07B681B889BB256
:1055500043F001039AB27B681A8007E07B681B88DE
:105560009BB223F001039AB27B681A800C37BD46C8
:105570005DF8047B704700BF80B483B000AF7860F3
:105580000B46FB70FB78002B08D07B681B889BB216
:1055900043F480739AB27B681A8007E07B681B88AB
:1055A0009BB223F480739AB27B681A800C37BD4695
:1055B0005DF8047B704700BF80B483B000AF7860B3
:1055C0000B46FB70FB78002B08D07B681B889BB2D6
:1055D00043F400739AB27B681A8007E07B681B88EB
:1055E0009BB223F400739AB27B681A800C37BD46D5
:1055F0005DF8047B704700BF80B483B000AF786073
:1056000013460A46FA70BB70BB78002B04D0FB78B7
:1056100043F00103FB7003E0FB7823F00103FB7010
:10562000FB789AB27B681A820C37BD465DF8047B22
:10563000704700BF80B483B000AF78600B46FB704A
:10564000FB78002B08D07B681B889BB243F48063F7
:105650009AB27B681A8007E07B681B889BB223F4B0
:1056600080639AB27B681A800C37BD465DF8047B74
:10567000704700BF80B483B000AF78600B46FB700A
:10568000FB789AB27B681A820C37BD465DF8047BC2
:10569000704700BF80B483B000AF78607B681B8A1E
:1056A0009BB2DBB218460C37BD465DF8047B7047F1
:1056B00080B487B000AF7860396000233B6100237D
:1056C000FB600023BB600023FB757B689B8A9BB259
:1056D000FB607B681B8B9BB2BB60BB681B04BB6021
:1056E000FA68BB68134323F07F433B613A693B6828
:1056F0001A403B689A4202D10123FB7501E0002366
:10570000FB75FB7D18461C37BD465DF8047B704772
:1057100080B487B000AF786039600023FB75002348
:105720003B610023FB607B68FB603B681B0F3B61B8
:105730003B6823F07F433B603B69002B03D0FB6851
:105740001433FB6005E03B681B0C3B60FB681833BF
:10575000FB60FB681A683B681340002B02D00123F2
:10576000FB7501E00023FB75FB7D18461C37BD4629
:105770005DF8047B704700BF80B483B000AF7860F1
:10578000034B7A685A610C37BD465DF8047B70475D
:10579000003C014080B483B000AF7860054A7B686C
:1057A00043F0BF6343F40033D3600C37BD465DF86C
:1057B000047B704700ED00E080B485B000AF7860F6
:1057C0000023FB730023BB730F237B737B68DB78A1
:1057D000002B37D0254BDB68DB4303F4E0631B0A67
:1057E000FB73FB7BC3F10403BB737A7BFB7B42FA45
:1057F00003F37B737B685B781A46BB7B02FA03F387
:10580000FB737B689A787B7B1340DAB2FB7B134394
:10581000FB73FB7B1B01FB73154A7B681B781344EE
:10582000FA7B83F80023124B7A6812785209D2B2BD
:105830007968097801F01F01012000FA01F143F8AD
:1058400022100EE00A4B7A6812785209D2B27968B7
:10585000097801F01F01012000FA01F1203243F81C
:1058600022101437BD465DF8047B704700ED00E060
:1058700000E100E080B584B000AF78600B46FB70BB
:10588000FB7878681946FAF74BFD7B68012283F8AC
:1058900012217B68002283F813210023FB6023E0A0
:1058A000FA6813469B001344DB0003F58C737A6897
:1058B0001344BB60BB6801225A70FB68DAB2BB6854
:1058C0001A70FB689AB2BB68DA80BB680022DA7093
:1058D000BB6840229A60BB680022DA60BB68002285
:1058E0005A61FB680133FB607B685B781A46FB6892
:1058F0009A42D5D80023FB6023E0FA6813469B0048
:105900001344DB0003F55C737A681344BB60BB6827
:1059100000225A70FB68DAB2BB681A70FB689AB250
:10592000BB68DA80BB680022DA70BB6840229A60EC
:10593000BB680022DA60BB6800225A61FB68013351
:10594000FB607B685B781A46FB689A42D5D878681A
:10595000FAF7AAFE7868FAF79DFD78680021FAF751
:1059600025FF7868FAF7A8FF7868FAF781FE103704
:10597000BD4680BD80B584B000AF7860F9703A80D4
:10598000BB70FB785BB2002B0CDAFB7803F07F0274
:1059900013469B001344DB0003F58C737A681344B1
:1059A000FB600BE0FB7803F07F0213469B0013447F
:1059B000DB0003F55C737A681344FB60FB7803F04B
:1059C0007F03DAB2FB681A70FB78DB09DBB21A4698
:1059D000FB685A703A88FB689A60FB68BA78DA709C
:1059E000FB685B78002B04D0FB681B781A46FB68C9
:1059F000DA80BB78022B02D1FB6800221A7178682A
:105A0000F968FBF743F9002318461037BD4680BDFF
:105A100080B584B000AF78600B46FB70FB785BB25A
:105A2000002B0CDAFB7803F07F0213469B00134433
:105A3000DB0003F58C737A681344FB600BE0FB78A2
:105A400003F07F0213469B001344DB0003F55C73F5
:105A50007A681344FB60FB7803F07F03DAB2FB68DB
:105A60001A70FB78DB09DBB21A46FB685A7078685B
:105A7000F968FBF779F9002318461037BD4680BD59
:105A800080B586B000AFF8607A600A46FA723B8152
:105A9000FB7A03F07F0213469B001344DB0003F5FF
:105AA0005C73FA6813447B617B697A68DA603A89CF
:105AB0007B695A617B6900229A617B6900225A7076
:105AC000FB7A03F07F03DAB27B691A70FB68DB783C
:105AD000012B02D17A687B691A617B691B78002BE4
