:020000040800F2
:100000001808002089010008E5010008E501000842
:10001000E5010008E5010008E50100080000000016
:10002000000000000000000000000000E5010008E2
:10003000E501000800000000E5010008E5010008F6
:10004000E5010008E5010008E5010008E5010008F8
:10005000E5010008E5010008E5010008E5010008E8
:10006000E5010008E5010008E5010008E5010008D8
:10007000E5010008E5010008E5010008E5010008C8
:10008000E5010008E5010008E5010008E5010008B8
:10009000E5010008E5010008E5010008E5010008A8
:1000A000E5010008E5010008E5010008E501000898
:1000B000E5010008ED010008E5010008E501000880
:1000C000E5010008E5010008E5010008E501000878
:1000D000E5010008E5010008E5010008E501000868
:1000E000E5010008E5010008E5010008E501000858
:1000F000E5010008E5010008E5010008E501000848
:10010000E5010008E5010008E5010008E501000837
:10011000E5010008E5010008E5010008E501000827
:10012000E5010008E5010008E5010008E501000817
:10013000E5010008E5010008E5010008E501000807
:10014000E5010008E5010008E5010008E5010008F7
:10015000E5010008E5010008E5010008E5010008E7
:10016000E5010008E5010008E5010008E5010008D7
:10017000E5010008E5010008E5010008E5010008C7
:10018000E5010008E501000880B582B000AF104B22
:100190007B60104B3B6007E03B681A1D3A607A6851
:1001A000111D796012681A603A680B4B9A42F3D3BA
:1001B0000A480B494FF000028842B8BF40F8042BB0
:1001C000FFF6FAAF00F030F80837BD4680BD00BF3B
:1001D000D00A0008000000201400002014000020B5
:1001E0001400002080B400AFFEE700BF80B500AF70
:1001F0000A48012100F042FC0346002B0CD00848BD
:100200004FF4007100F060F9064800F083F80448EC
:100210004FF4007100F066F980BD00BF000400409B
:100220000000024080F0FA0280B58AB000AF00F012
:10023000ADF900F0D7F90120012100F07BF84FF46F
:1002400000733B62022387F82430002387F82630AE
:10025000032387F82530002387F8273007F1200390
:100260002948194600F0A2F827480921012200F088
:1002700047F90120012100F07BF86423BB6142F2C1
:10028000CF03BB820023FB820023BB830023BB7709
:1002900007F114031D48194600F09AFA1B48012182
:1002A00000F0C6FB1948012100F0FCFA60233B80F6
:1002B00001237B800023BB600023BB813B461348A6
:1002C000194600F00FFB1148082100F093FB0F4B7B
:1002D0000A229A630D4B19229A630D4800F01AF80E
:1002E0000A4B32229A630A4800F014F8074B4B225B
:1002F0009A63074800F00EF8044B64229A6304489E
:1003000000F008F8E6E700BF0000024000000140EE
:100310008096980080B483B000AF786000BF7B689F
:100320005A1E7A60002BFAD10C37BD465DF8047B6B
:10033000704700BF80B483B000AF78600B46FB709D
:10034000FB78002B06D0094B084A116B7A680A43E8
:100350001A6306E0054B054A116B7A68D2430A40DE
:100360001A630C37BD465DF8047B704700380240C5
:1003700080B483B000AF78600B46FB70FB78002B35
:1003800006D0094B084A516C7A680A435A6406E061
:10039000054B054A516C7A68D2430A405A640C37BF
:1003A000BD465DF8047B70470038024080B487B0DA
:1003B00000AF7860396000237B6100233B6100233C
:1003C000FB6000237B6176E07B69012202FA03F384
:1003D0003B613B681A683B691340FB60FA683B6904
:1003E0009A4265D17B681A687B695B00032101FA38
:1003F00003F3DB431A407B681A607B681A683B682A
:100400001B7919467B695B0001FA03F31A437B6889
:100410001A603B681B79012B03D03B681B79022BC8
:100420002ED17B689A687B695B00032101FA03F394
:10043000DB431A407B689A607B689A683B685B790B
:1004400019467B695B0001FA03F31A437B689A60E3
:100450007B685A687B699BB2012101FA03F3DB4395
:100460001A407B685A607B685A683B689B791946DA
:100470007B699BB201FA03F39BB21A437B685A6013
:100480007B68DA687B699BB25B00032101FA03F3A6
:10049000DB431A407B68DA607B68DA683B68DB79AB
:1004A00019467B695B0001FA03F31A437B68DA6043
:1004B0007B6901337B617B690F2B85D91C37BD4676
:1004C0005DF8047B704700BF80B483B000AF7860F4
:1004D0000B467B807B687A881A830C37BD465DF8B3
:1004E000047B704780B483B000AF78600B467B809C
:1004F0007B687A885A830C37BD465DF8047B704769
:1005000080B485B000AF786013460A467A807B706D
:100510000023FB600023BB607A787B8803F007032D
:100520009B0002FA03F3FB607B88DB089BB21A4650
:100530007B88DB089BB219467B68083153F8211091
:100540007B8803F007039B000F2000FA03F3DB43D3
:1005500019407B68083243F822107B88DB089BB285
:100560001A467B68083253F82220FB681343BB60AD
:100570007B88DB089BB21A467B680832B96843F86F
:1005800022101437BD465DF8047B704780B500AF7C
:10059000114B114A126842F001021A600E4B002200
:1005A0009A600D4A0C4B1B6823F0847323F480334C
:1005B0001360094B094A5A60074B074A126822F434
:1005C00080221A60044B0022DA6000F087F8044BA6
:1005D0004FF000629A6080BD003802401030002465
:1005E00000ED00E080B487B000AF00233B61002342
:1005F0007B610223FB600023BB6002237B60324BE4
:100600009B6803F00C033B613B69042B07D0082B6C
:1006100009D0002B3FD12D4B2D4A1A603FE02B4BC8
:100620002C4A1A603BE0284B5B6803F480039B0D67
:10063000BB60254B5B6803F03F037B60BB68002B0E
:100640000DD0244A7B68B2FBF3F21F4B596847F682
:10065000C0730B409B0903FB02F37B610CE01C4A57
:100660007B68B2FBF3F2184B596847F6C0730B4036
:100670009B0903FB02F37B61134B5B6803F440337C
:100680001B0C01335B00FB607A69FB68B2FBF3F281
:100690000E4B1A6003E00D4B0D4A1A6000BF0A4B67
:1006A0009B6803F0F0031B090B4AD35CDBB23B6190
:1006B000064B1A683B69DA40044B1A601C37BD468A
:1006C0005DF8047B704700BF003802400000002046
:1006D0000024F40000127A000400002080B483B0EB
:1006E00000AF00237B6000233B60354B344A126827
:1006F00042F480321A60324B1B6803F400333B60D3
:100700007B6801337B603B68002B03D17B68B3F5CA
:10071000A06FF0D12A4B1B6803F40033002B02D0EA
:1007200001233B6001E000233B603B68012B42D189
:10073000234B234A126C42F080521A64214B214A07
:10074000126842F480421A601D4B1D4A92689A60FA
:100750001B4B1B4A926842F400429A60184B184A9D
:10076000926842F4A0529A60154B174A5A60144B93
:10077000134A126842F080721A6000BF104B1B6867
:1007800003F00073002BF9D0104B40F205621A60A1
:100790000B4B0B4A926822F003029A60084B084AFE
:1007A000926842F002029A6000BF054B9B6803F01A
:1007B0000C03082BF9D10C37BD465DF8047B70475C
:1007C000003802400070004008544007003C0240DE
:1007D00080B485B000AF786039600023FB817B680E
:1007E0001B88FB817A68284B9A4213D07A68274B82
:1007F0009A420FD07B68B3F1804F0BD07A68244BBC
:100800009A4207D07A68234B9A4203D07A68224BE7
:100810009A4208D1FB8923F07003FB813B685A8818
:10082000FB891343FB817A681C4B9A420CD07A688F
:100830001B4B9A4208D0FB8923F44073FB813B6831
:100840001A89FB891343FB817B68FA891A803B680C
:100850005A687B68DA623B681A887B681A857A680E
:10086000094B9A4203D07A68084B9A4204D13B68FC
:100870009B7A1A467B681A867B6801229A82143713
:10088000BD465DF8047B7047000001400004014054
:100890000004004000080040000C00400010004030
:1008A0000014004080B483B000AF78600B46FB704A
:1008B000FB78002B08D07B681B889BB243F00103B8
:1008C0009AB27B681A8007E07B681B889BB223F092
:1008D00001039AB27B681A800C37BD465DF8047B31
:1008E000704700BF80B485B000AF786039600023E6
:1008F0007B810023FB810023BB817B681B8C9BB227
:1009000023F010039AB27B681A847B681B8CFB81EE
:100910007B689B88BB817B681B8B7B817B8923F4F5
:10092000E0437B817B8923F440737B813B681B8898
:100930001B029AB27B8913437B81FB8923F020033E
:10094000FB813B689B891B019AB2FB891343FB81A6
:100950003B685B881B019AB2FB891343FB817A6871
:10096000224B9A4203D07A68214B9A422BD1FB89C1
:1009700023F08003FB813B68DB891B019AB2FB8972
:100980001343FB81FB8923F04003FB813B689B8879
:100990001B019AB2FB891343FB81BB8923F480635B
:1009A000BB81BB8923F40063BB813B681B8A9B002E
:1009B0009AB2BB891343BB813B685B8A9B009AB2A6
:1009C000BB891343BB817B68BA899A807B687A892B
:1009D0001A833B689A687B689A637B68FA891A84F1
:1009E0001437BD465DF8047B704700BF000001402E
:1009F0000004014080B485B000AF78600B467B8076
:100A00000023FB817B681B8BFB81FB8923F4006344
:100A1000FB817B881B029AB2FB891343FB817B68B5
:100A2000FA891A831437BD465DF8047B704700BF0E
:100A300080B483B000AF78600B46FB70FB78002B6E
:100A40000CD07B68B3F844309BB26FEA43436FEA43
:100A500053439AB27B68A3F8442009E07B68B3F85B
:100A600044309BB2C3F30E039AB27B68A3F84420D0
:100A70000C37BD465DF8047B704700BF80B485B07D
:100A800000AF78600B467B800023FB730023BB81A3
:100A900000237B817B681B8A9AB27B881340BB81D1
:100AA0007B689B899AB27B8813407B81BB89002B32
:100AB00005D07B89002B02D00123FB7301E00023CA
:100AC000FB73FB7B18461437BD465DF8047B70470B
:100AD000007A030A00000000000000000102030485
:040AE00006070809F4
:0400000508000000EF
:00000001FF
