:020000040800F2
:100000003808002089010008E5010008E501000822
:10001000E5010008E5010008E50100080000000016
:10002000000000000000000000000000E5010008E2
:10003000E501000800000000E5010008E5010008F6
:10004000E5010008E5010008E5010008E5010008F8
:10005000E5010008E5010008E5010008E5010008E8
:10006000E5010008E5010008E5010008E5010008D8
:10007000E5010008E5010008E5010008E5010008C8
:10008000E5010008E5010008E5010008E5010008B8
:10009000E5010008E5010008E5010008E5010008A8
:1000A000E5010008E5010008E5010008E501000898
:1000B000E5010008E5010008E5010008E501000888
:1000C000E5010008E5010008E5010008E501000878
:1000D000E5010008E5010008E5010008E501000868
:1000E000E5010008E5010008E5010008E501000858
:1000F000E5010008E5010008E5010008E501000848
:10010000E5010008E5010008E5010008E501000837
:10011000E5010008E5010008E5010008E501000827
:10012000E5010008E5010008E5010008E501000817
:10013000E5010008E5010008E5010008E501000807
:10014000E5010008E5010008E5010008E5010008F7
:10015000E5010008E5010008E5010008E5010008E7
:10016000E5010008E5010008E5010008E5010008D7
:10017000E5010008E5010008E5010008E5010008C7
:10018000E5010008E501000880B582B000AF104B22
:100190007B60104B3B6007E03B681A1D3A607A6851
:1001A000111D796012681A603A680B4B9A42F3D3BA
:1001B0000A480B494FF000028842B8BF40F8042BB0
:1001C000FFF6FAAF00F092F80837BD4680BD00BFD9
:1001D000E40A0008000000200000002000000020C9
:1001E0003800002080B400AFFEE700BF80B500AF4C
:1001F0000120012100F0C6F80120012100F0A4F83F
:1002000080BD00BF80B500AF184800F035FB174B2C
:1002100000221A81154B00225A80144B4FF6FF72B0
:100220005A60124B4FF4E1521A8011480F4900F006
:10023000B9FA104800F0E2FB0E4B60221A800D4B19
:1002400001225A800B4B00229A600A4B00229A81AD
:100250000748084900F04AFB0548082100F0F0FB78
:100260000348012100F022FB80BD00BF28000020D0
:10027000000001400C00002080B500AF0C4B1B2299
:100280001A700B4B00225A70094B01229A70084BCE
:100290000122DA70064800F027FA0648012100F032
:1002A00011FC04480121012200F0E8FB80BD00BFE1
:1002B000340000200000014080B500AF094B4FF42E
:1002C00000721A60074B02221A71064B00229A71C3
:1002D0000548044900F074F803480921012200F0A0
:1002E00017F980BD200000200000024080B582B0D8
:1002F00000AF00F053F9FFF779FFFFF783FFFFF737
:10030000BBFFFFF7D9FF0B4B01221A6000237B6074
:10031000094B5A6A074B1A60074BDA6A074B1A6097
:1003200007484FF4007100F0D9F803461A46054B10
:100330001A60EDE7000000200000014004000020EA
:10034000000002400800002080B483B000AF786055
:100350000B46FB70FB78002B06D0094B084A116C4A
:100360007A680A431A6406E0054B054A116C7A68FC
:10037000D2430A401A640C37BD465DF8047B7047CF
:100380000038024080B483B000AF78600B46FB7049
:10039000FB78002B06D0094B084A516C7A680A4357
:1003A0005A6406E0054B054A516C7A68D2430A400C
:1003B0005A640C37BD465DF8047B70470038024034
:1003C00080B487B000AF7860396000237B61002380
:1003D0003B610023FB6000237B6176E07B690122A7
:1003E00002FA03F33B613B681A683B691340FB6008
:1003F000FA683B699A4265D17B681A687B695B0041
:10040000032101FA03F3DB431A407B681A607B681F
:100410001A683B681B7919467B695B0001FA03F394
:100420001A437B681A603B681B79012B03D03B6839
:100430001B79022B2ED17B689A687B695B000321B4
:1004400001FA03F3DB431A407B689A607B689A6881
:100450003B685B7919467B695B0001FA03F31A4339
:100460007B689A607B685A687B699BB2012101FABC
:1004700003F3DB431A407B685A607B685A683B6829
:100480009B7919467B699BB201FA03F39BB21A432D
:100490007B685A607B68DA687B699BB25B000321EA
:1004A00001FA03F3DB431A407B68DA607B68DA68A1
:1004B0003B68DB7919467B695B0001FA03F31A4359
:1004C0007B68DA607B6901337B617B690F2B85D99F
:1004D0001C37BD465DF8047B704700BF80B485B013
:1004E00000AF78600B467B800023FB737B685A6902
:1004F0007B881340002B02D00123FB7301E0002313
:10050000FB73FB7B18461437BD465DF8047B7047D0
:1005100080B485B000AF786013460A467A807B705D
:100520000023FB600023BB607A787B8803F007031D
:100530009B0002FA03F3FB607B88DB089BB21A4640
:100540007B88DB089BB219467B68083153F8211081
:100550007B8803F007039B000F2000FA03F3DB43C3
:1005600019407B68083243F822107B88DB089BB275
:100570001A467B68083253F82220FB681343BB609D
:100580007B88DB089BB21A467B680832B96843F85F
:1005900022101437BD465DF8047B704780B500AF6C
:1005A000114B114A126842F001021A600E4B0022F0
:1005B0009A600D4A0C4B1B6823F0847323F480333C
:1005C0001360094B094A5A60074B074A126822F424
:1005D00080221A60044B0022DA6000F00BF8044B12
:1005E0004FF000629A6080BD003802401030002455
:1005F00000ED00E080B483B000AF00237B600023F7
:100600003B60354B344A126842F480321A60324BF8
:100610001B6803F400333B607B6801337B603B68FD
:10062000002B03D17B68B3F5A06FF0D12A4B1B6878
:1006300003F40033002B02D001233B6001E00023D0
:100640003B603B68012B42D1234B234A126C42F0A2
:1006500080521A64214B214A126842F480421A6087
:100660001D4B1D4A92689A601B4B1B4A926842F4CC
:1006700000429A60184B184A926842F4A0529A605D
:10068000154B174A5A60144B134A126842F0807295
:100690001A6000BF104B1B6803F00073002BF9D0E9
:1006A000104B40F205621A600B4B0B4A926822F025
:1006B00003029A60084B084A926842F002029A606C
:1006C00000BF054B9B6803F00C03082BF9D10C37D6
:1006D000BD465DF8047B7047003802400070004062
:1006E00008544007003C024080B485B000AF7860F9
:1006F0000023FB730023BB730F237B737B68DB78C2
:10070000002B37D0254BDB68DB4303F4E0631B0A87
:10071000FB73FB7BC3F10403BB737A7BFB7B42FA65
:1007200003F37B737B685B781A46BB7B02FA03F3A7
:10073000FB737B689A787B7B1340DAB2FB7B1343B5
:10074000FB73FB7B1B01FB73154A7B681B7813440F
:10075000FA7B83F80023124B7A6812785209D2B2DE
:100760007968097801F01F01012000FA01F143F8CE
:1007700022100EE00A4B7A6812785209D2B27968D8
:10078000097801F01F01012000FA01F1203243F83D
:1007900022101437BD465DF8047B704700ED00E081
:1007A00000E100E080B485B000AF786039600023DC
:1007B000FB817B681B88FB817A68284B9A4213D0A7
:1007C0007A68274B9A420FD07B68B3F1804F0BD0E9
:1007D0007A68244B9A4207D07A68234B9A4203D016
:1007E0007A68224B9A4208D1FB8923F07003FB817F
:1007F0003B685A88FB891343FB817A681C4B9A42F9
:100800000CD07A681B4B9A4208D0FB8923F44073C2
:10081000FB813B681A89FB891343FB817B68FA895A
:100820001A803B685A687B68DA623B681A887B6882
:100830001A857A68094B9A4203D07A68084B9A4223
:1008400004D13B689B7A1A467B681A867B68012232
:100850009A821437BD465DF8047B70470000014062
:10086000000401400004004000080040000C00406B
:10087000001000400014004080B483B000AF7860E6
:100880007B684FF0FF325A607B6800221A807B68D9
:1008900000221A817B6800225A807B6800229A72AB
:1008A0000C37BD465DF8047B704700BF80B483B051
:1008B00000AF78600B46FB70FB78002B08D07B689C
:1008C0001B889BB243F001039AB27B681A8007E051
:1008D0007B681B889BB223F001039AB27B681A8065
:1008E0000C37BD465DF8047B704700BF80B485B00F
:1008F00000AF7860396000237B810023FB810023F7
:10090000BB817B681B8C9BB223F010039AB27B687F
:100910001A847B681B8CFB817B689B88BB817B680E
:100920001B8B7B817B8923F4E0437B817B8923F4D0
:1009300040737B813B681B881B029AB27B891343FF
:100940007B81FB8923F02003FB813B689B891B0192
:100950009AB2FB891343FB813B685B881B019AB207
:10096000FB891343FB817A68224B9A4203D07A6851
:10097000214B9A422BD1FB8923F08003FB813B68FA
:10098000DB891B019AB2FB891343FB81FB8923F0AE
:100990004003FB813B689B881B019AB2FB89134390
:1009A000FB81BB8923F48063BB81BB8923F4006393
:1009B000BB813B681B8A9B009AB2BB891343BB81F6
:1009C0003B685B8A9B009AB2BB891343BB817B68FF
:1009D000BA899A807B687A891A833B689A687B68AF
:1009E0009A637B68FA891A841437BD465DF8047BE4
:1009F000704700BF000001400004014080B483B094
:100A000000AF78607B6800221A807B6800225A80E1
:100A10007B6800229A807B6800229A607B680022B3
:100A20009A817B680022DA817B6800221A827B68C7
:100A300000225A820C37BD465DF8047B704700BF28
:100A400080B485B000AF78600B467B800023FB81CB
:100A50007B681B8BFB81FB8923F40063FB817B8814
:100A60001B029AB2FB891343FB817B68FA891A83C4
:100A70001437BD465DF8047B704700BF80B483B077
:100A800000AF786013460A467A807B707B78002B33
:100A900008D07B689B899AB27B8813439AB27B68A3
:100AA0009A8109E07B689B899AB27B88DB439BB281
:100AB00013409AB27B689A810C37BD465DF8047B7F
:100AC000704700BF80B483B000AF78600B467B8076
:100AD0007B88DB439AB27B681A820C37BD465DF88F
:040AE000047B7047DC
:0400000508000000EF
:00000001FF
