:020000040800F2
:100000001808002089010008F5010008F501000822
:10001000F5010008F5010008F501000800000000E6
:10002000000000000000000000000000F5010008D2
:10003000F501000800000000F5010008F5010008C6
:10004000F5010008F5010008F5010008F5010008B8
:10005000F5010008F5010008F5010008F5010008A8
:10006000F5010008F5010008F5010008F501000898
:10007000F5010008F5010008F5010008F501000888
:10008000F5010008F5010008F5010008F501000878
:10009000F5010008F5010008F5010008F501000868
:1000A000F5010008F5010008F5010008F501000858
:1000B000F5010008F5010008F5010008F501000848
:1000C000F5010008F5010008F5010008F501000838
:1000D000F5010008F5010008F5010008F501000828
:1000E000F5010008F5010008F5010008F501000818
:1000F000F5010008F5010008F5010008F501000808
:10010000F5010008F5010008F5010008F5010008F7
:10011000F5010008F5010008F5010008F5010008E7
:10012000F5010008F5010008F5010008F5010008D7
:10013000F5010008F5010008F5010008F5010008C7
:10014000F5010008F5010008F5010008F5010008B7
:10015000F5010008F5010008F5010008F5010008A7
:10016000F5010008F5010008F5010008F501000897
:10017000F5010008F5010008F5010008F501000887
:10018000F5010008F501000880B582B000AF40F627
:10019000C843C0F600037B6040F20003C2F20003D4
:1001A0003B600BE07B681A683B681A603B6803F1B0
:1001B00004033B607B6803F104037B603A6840F210
:1001C0001403C2F200039A42ECD3084808494FF0E6
:1001D00000028842B8BF40F8042BFFF6FAAF00F0E7
:1001E000BFF807F10807BD4680BD000014000020DD
:1001F0001400002080B400AFFEE700BF80B582B0DD
:1002000000AF4FF001004FF0010100F0C3F84FF4D0
:1002100080733B604FF002033B714FF00003BB71F2
:100220004FF003037B714FF00003FB713B464FF02F
:100230000000C4F20200194600F000F94FF000007F
:10024000C4F202004FF008014FF0010200F098F9EB
:1002500007F10807BD4680BD80B500AF4FF0000034
:10026000C4F201004FF0000100F01EFC4FF000004E
:10027000C4F201004FF0010100F044FC80BD00BF5A
:1002800080B500AF4FF00000C4F201004FF0000154
:1002900000F038FC80BD00BF80B58AB000AF4FF0E1
:1002A00001004FF0010100F09FF84FF0B9033B83CC
:1002B0004FF000037B8344F62063FB614FF00003A3
:1002C0003B844FF0000387F8223007F118034FF00A
:1002D0000000C4F20100194600F06CFB4FF000036F
:1002E0007B624FF06003BB804FF00103FB804FF057
:1002F00004033B817B6AFB604FF000033B824FF0BD
:1003000008037B824FF00003BB824FF00003FB82A7
:1003100007F104034FF00000C4F20100194600F099
:1003200011FC4FF00000C4F201004FF0080100F092
:1003300087FC4FF00000C4F201004FF0010100F013
:10034000C1FB4FF00000C4F201004FF0010100F0CA
:1003500093FCFFF795FF07F12807BD4680BD00BF5E
:1003600080B582B000AF00F05FF900F0A7F9FFF7A9
:1003700045FFFFF791FFFFF76FFF4FF000037B6032
:100380004FF00003C4F2010340F282625A6300BFDF
:10039000FDE700BF80B483B000AF78600B46FB7010
:1003A000FB78002B0CD04FF46053C4F202034FF4DF
:1003B0006052C4F20202116B7A680A431A630DE0BC
:1003C0004FF46053C4F202034FF46052C4F20202CD
:1003D000116B7A686FEA02020A401A6307F10C0790
:1003E000BD4680BC704700BF80B483B000AF78606A
:1003F0000B46FB70FB78002B0CD04FF46053C4F21B
:1004000002034FF46052C4F20202516C7A680A434C
:100410005A640DE04FF46053C4F202034FF460528B
:10042000C4F20202516C7A686FEA02020A405A640E
:1004300007F10C07BD4680BC704700BF80B487B091
:1004400000AF786039604FF000037B614FF000032C
:100450003B614FF00003FB604FF000037B6186E0DF
:100460007B694FF0010202FA03F33B613B681A68B3
:100470003B691340FB60FA683B699A4273D17B6821
:100480001A687B694FEA43034FF0030101FA03F353
:100490006FEA03031A407B681A607B681A683B683E
:1004A0001B7919467B694FEA430301FA03F31A43A8
:1004B0007B681A603B681B79012B03D03B681B7972
:1004C000022B34D17B689A687B694FEA43034FF073
:1004D000030101FA03F36FEA03031A407B689A6091
:1004E0007B689A683B685B7919467B694FEA4303EE
:1004F00001FA03F31A437B689A607B685A687B6948
:100500009BB24FF0010101FA03F36FEA03031A40B3
:100510007B685A607B685A683B689B7919467B699F
:100520009BB201FA03F39BB21A437B685A607B6863
:10053000DA687B699BB24FEA43034FF0030101FA8B
:1005400003F36FEA03031A407B68DA607B68DA68BA
:100550003B68DB7919467B694FEA430301FA03F3F1
:100560001A437B68DA607B6903F101037B617B6975
:100570000F2B7FF675AF07F11C07BD4680BC704797
:1005800080B485B000AF786013460A467A807B70ED
:100590004FF00003FB604FF00003BB607A787B886C
:1005A00003F007034FEA830302FA03F3FB607B883F
:1005B0004FEAD3039BB21A467B884FEAD3039BB220
:1005C00019467B6801F1080153F821107B8803F07C
:1005D00007034FEA83034FF00F0000FA03F36FEABB
:1005E000030319407B6802F1080243F822107B885C
:1005F0004FEAD3039BB21A467B6802F1080253F814
:100600002220FB681343BB607B884FEAD3039BB275
:100610001A467B6802F10802B96843F8221007F114
:100620001407BD4680BC704780B500AF4FF46053DF
:10063000C4F202034FF46052C4F20202126842F0A4
:1006400001021A604FF46053C4F202034FF000023B
:100650009A604FF46053C4F202034FF46052C4F244
:100660000202126822F0847222F480321A604FF47F
:100670006053C4F2020343F21002C2F200425A6015
:100680004FF46053C4F202034FF46052C4F202020A
:10069000126822F480221A604FF46053C4F20203FD
:1006A0004FF00002DA6000F0C1F84FF46D43CEF273
:1006B00000034FF000629A6080BD00BF80B487B035
:1006C00000AF4FF000033B614FF000037B614FF040
:1006D0000203FB604FF00003BB604FF002037B603E
:1006E0004FF46053C4F202039B6803F00C033B61B8
:1006F0003B69042B0DD0082B15D0002B69D140F29B
:100700000003C2F200034FF41052C0F2F4021A6068
:1007100069E040F20003C2F200034FF49052C0F2CD
:100720007A021A605FE04FF46053C4F202035B6820
:1007300003F480034FEA9353BB604FF46053C4F259
:1007400002035B6803F03F037B60BB68002B14D09F
:100750004FF49053C0F27A037A68B3FBF2F24FF48D
:100760006053C4F20203596847F6C0730B404FEA66
:10077000931303FB02F37B6113E04FF41053C0F2B9
:10078000F4037A68B3FBF2F24FF46053C4F202034D
:10079000596847F6C0730B404FEA931303FB02F30B
:1007A0007B614FF46053C4F202035B6803F440338F
:1007B0004FEA134303F101034FEA4303FB607A69F5
:1007C000FB68B2FBF3F240F20003C2F200031A60CE
:1007D00009E040F20003C2F200034FF41052C0F2ED
:1007E000F4021A6000BF4FF46053C4F202039B6826
:1007F00003F0F0034FEA131240F20403C2F20003C5
:100800009B5CDBB23B6140F20003C2F200031A685A
:100810003B6922FA03F240F20003C2F200031A60BD
:1008200007F11C07BD4680BC704700BF80B483B091
:1008300000AF4FF000037B604FF000033B604FF4CC
:100840006053C4F202034FF46052C4F20202126811
:1008500042F480321A604FF46053C4F202031B6802
:1008600003F400333B607B6803F101037B603B686A
:10087000002B03D17B68B3F5A06FECD14FF460532C
:10088000C4F202031B6803F40033002B03D04FF0C3
:1008900001033B6002E04FF000033B603B68012B2B
:1008A00040F082804FF46053C4F202034FF4605270
:1008B000C4F20202126C42F080521A644FF4E04318
:1008C000C4F200034FF4E042C4F20002126842F4A2
:1008D00080421A604FF46053C4F202034FF4605236
:1008E000C4F2020292689A604FF46053C4F20203A9
:1008F0004FF46052C4F20202926842F400429A60DD
:100900004FF46053C4F202034FF46052C4F2020287
:10091000926842F4A0529A604FF46053C4F202030A
:1009200045F20842C0F240725A604FF46053C4F27C
:1009300002034FF46052C4F20202126842F0807265
:100940001A6000BF4FF46053C4F202031B6803F047
:100950000073002BF6D04FF47053C4F2020340F240
:1009600005621A604FF46053C4F202034FF4605200
:10097000C4F20202926822F003029A604FF46053BC
:10098000C4F202034FF46052C4F20202926842F0D1
:1009900002029A6000BF4FF46053C4F202039B68E6
:1009A00003F00C03082BF6D107F10C07BD4680BC01
:1009B000704700BF80B485B000AF786039604FF0F9
:1009C0000003FB817B681B88FB817A684FF0000382
:1009D000C4F201039A421FD07A684FF48063C4F2D4
:1009E00001039A4218D07B68B3F1804F14D07A6823
:1009F0004FF48063C4F200039A420DD07A684FF43A
:100A00000063C4F200039A4206D07A684FF4406350
:100A1000C4F200039A4208D1FB8923F07003FB81E2
:100A20003B685A88FB891343FB817A684FF48053F3
:100A3000C4F200039A420FD07A684FF4A053C4F274
:100A400000039A4208D0FB8923F44073FB813B6882
:100A50001A89FB891343FB817B68FA891A803B68FA
:100A60005A687B68DA623B681A887B681A857A68FC
:100A70004FF00003C4F201039A4206D07A684FF4A3
:100A80008063C4F201039A4204D13B689B7A1A4600
:100A90007B681A867B684FF001029A8207F114077F
:100AA000BD4680BC704700BF80B483B000AF7860A3
:100AB00039607B683A685A6207F10C07BD4680BC12
:100AC000704700BF80B483B000AF78600B46FB7006
:100AD000FB78002B08D07B681B889BB243F0800317
:100AE0009AB27B681A8007E07B681B889BB223F070
:100AF00080039AB27B681A8007F10C07BD4680BC60
:100B0000704700BF80B483B000AF78600B46FB70C5
:100B1000FB78002B08D07B681B889BB243F0010355
:100B20009AB27B681A8007E07B681B889BB223F02F
:100B300001039AB27B681A8007F10C07BD4680BC9E
:100B4000704700BF80B485B000AF786039604FF067
:100B500000037B814FF00003FB814FF00003BB815A
:100B60007B681B8C9BB223F001039AB27B681A84CA
:100B70007B681B8CFB817B689B88BB817B681B8BA4
:100B80007B817B8923F070037B817B8923F00303C6
:100B90007B813B681A887B8913437B81FB8923F027
:100BA0000203FB813B689A89FB891343FB813B6805
:100BB0005A88FB891343FB817A684FF00003C4F223
:100BC00001039A4206D07A684FF48063C4F20103AD
:100BD0009A4223D1FB8923F00803FB813B68DA8921
:100BE000FB891343FB81FB8923F00403FB813B68F2
:100BF0009A88FB891343FB81BB8923F48073BB81F3
:100C0000BB8923F40073BB813B681A8ABB891343F9
:100C1000BB813B685A8ABB891343BB817B68BA8915
:100C20009A807B687A891A833B689A687B685A63E2
:100C30007B68FA891A8407F11407BD4680BC7047A7
:100C400080B485B000AF78600B467B804FF0000326
:100C5000FB817B681B8BFB81FB8923F00803FB81F5
:100C6000FA897B881343FB817B68FA891A8307F131
:100C70001407BD4680BC704780B483B000AF786075
:100C80000B46FB70FB78002B0CD07B68B3F844302C
:100C90009BB26FEA43436FEA53439AB27B68A3F86F
:100CA00044200BE07B68B3F844309BB24FEA4343E7
:100CB0004FEA53439AB27B68A3F8442007F10C072C
:080CC000BD4680BC704700BF77
:100CC800007A030A0000000000000000010203048B
:040CD80006070809FA
:0400000508000000EF
:00000001FF
