:020000040800F2
:100000002008002089010008E5010008E50100083A
:10001000E5010008E5010008E50100080000000016
:10002000000000000000000000000000E5010008E2
:10003000E501000800000000E5010008E5010008F6
:10004000E5010008E5010008E5010008E5010008F8
:10005000E5010008E5010008E5010008E5010008E8
:10006000E5010008E5010008E5010008E5010008D8
:10007000E5010008E5010008E5010008E5010008C8
:10008000E5010008E5010008E5010008E5010008B8
:10009000E5010008E5010008E5010008E5010008A8
:1000A000E5010008E5010008E5010008E501000898
:1000B000E5010008E5010008E5010008E501000888
:1000C000E5010008E5010008E5010008E501000878
:1000D000E5010008E5010008E5010008E501000868
:1000E000E5010008E5010008E5010008E501000858
:1000F000E5010008E5010008E5010008E501000848
:10010000E5010008E5010008E5010008E501000837
:10011000E5010008E5010008E5010008E501000827
:10012000E5010008E5010008E5010008E501000817
:10013000E5010008E5010008E5010008E501000807
:10014000E5010008E5010008E5010008E5010008F7
:10015000E5010008E5010008E5010008E5010008E7
:10016000E5010008E5010008E5010008E5010008D7
:10017000E5010008E5010008E5010008E5010008C7
:10018000E5010008E501000880B582B000AF104B22
:100190007B60104B3B6007E03B681A1D3A607A6851
:1001A000111D796012681A603A680B4B9A42F3D3BA
:1001B0000A480B494FF000028842B8BF40F8042BB0
:1001C000FFF6FAAF00F01CFA0837BD4680BD00BF4D
:1001D00084130008000000201400002018000020F4
:1001E0002000002080B400AFFEE700BF80B582B0E1
:1001F00000AF786039603B689BB20648194600F052
:1002000039FB7B689BB20348194600F025FB083791
:10021000BD4680BD000C024080B582B000AF786062
:1002200039607B689BB20648194600F023FB3B68A7
:100230009BB20348194600F00FFB0837BD4680BD4E
:10024000000C024080B582B000AF1020012100F008
:100250000DFA4FF4D6433B6002233B710023BB7180
:1002600003237B710023FB713B461048194600F0C5
:1002700065FA0E480821012200F00AFB0B4809210B
:10028000012200F005FB09480B21012200F000FBD0
:1002900006480D21012200F0FBFA04480E2101223C
:1002A00000F0F6FA0837BD4680BD00BF00100240DE
:1002B00080B500AF0448002100F08EFD0248012106
:1002C00000F0B8FD80BD00BF0000014080B58AB0DD
:1002D00000AF0120012100F0E7F9B9233B8300239F
:1002E0007B8344F62063FB6100233B84002387F873
:1002F000223007F118032348194600F003FD0023BC
:100300007B626023BB800123FB8004233B817B6AEB
:10031000FB6000233B8208237B820023BB820023F7
:10032000FB823B1D1748194600F0A4FD1548082123
:1003300000F08EFF3B1D1348194600F015FE1148D2
:10034000082100F0A1FF3B1D0E48194600F094FE65
:100350000C48082100F0B6FF3B1D0A48194600F082
:1003600011FF0848082100F0C9FF0648012100F0EC
:1003700041FD0448012100F0DFFFFFF799FF283716
:10038000BD4680BD0000014080B400AF1A4B002282
:100390005A60194B184A526842F409425A60164B87
:1003A00000229A60144A144B9B6843F4407343F054
:1003B00001039360104B00221A610F4B0022DA6296
:1003C0000D4B0D4AD26A42F48002DA620A4B0022D7
:1003D0005A63094A084B5B6B43F4033343F0410310
:1003E0005363054B044A926842F080429A60BD46CE
:1003F0005DF8047B704700BF0020014080B500AF6E
:100400004FF48000012100F06DF9114800F0A8FBC5
:100410000F4B0F4A126842F434521A600C4B0C4ACC
:10042000526842F004025A60094A094B9968094B24
:100430000B439360064B064AD168074A0A43DA60C9
:10044000064B00221A60054B00225A6080BD00BF97
:10045000106402404C20014018000020006402405B
:1004600080B400AF0D4B00221A600C4B00225A6082
:100470000B4B0B4A526842F004025A60084B084A80
:10048000D168084A0A43DA60054B054A126842F00F
:1004900001021A60BD465DF8047B704700640240AB
:1004A000106402401800002080B483B000AF786070
:1004B00002E07B68013B7B607B68002BF9D10C3745
:1004C000BD465DF8047B704780B584B000AF7860AE
:1004D000484B64225A6340204FF40071FFF786FEB8
:1004E0004548022100F0B8F97B6802221A60142303
:1004F000FB60424BBB6074E07B681B68013B052BD3
:100500006FD801A252F823F0210500084905000820
:100510006705000887050008A5050008C50500084F
:1005200002237B6020204FF48071FFF775FE40208E
:100530004FF40071FFF75AFEB868FFF7B5FFBB68CC
:10054000A3F5FA63BB604CE003237B602A480221D9
:1005500000F090F92848042100F07EF9BB68A3F56B
:10056000FA63BB603DE004237B6040204FF40071E0
:10057000FFF752FE10208021FFF738FEBB68A3F57D
:10058000FA63BB602DE005237B601B48042100F06B
:1005900071F91948082100F05FF9BB68A3F5FA6307
:1005A000BB601EE006237B6010208021FFF734FE35
:1005B00020204FF48071FFF719FEBB68A3F5FA63A2
:1005C000BB600EE001237B600B48082100F052F96C
:1005D0000948022100F040F9BB68A3F5FA63BB604B
:1005E00000BFFB685A1EFA60002B85DC1037BD4641
:1005F00080BD00BF00000140000C0240A086010049
:1006000080B582B000AF00F089F900F0B3F9FFF7D0
:1006100019FEFFF75BFEFFF7B7FEFFF7EFFEFFF7F0
:100620001FFF64237B600F4B40F282625A630D4BC5
:1006300040F282629A630B4B40F28262DA63094BAA
:1006400040F282621A6401233B60074800F068F8B8
:1006500003467B60034B7A685A633B461846FFF7B4
:1006600033FFFAE7000001400020014080B483B06E
:1006700000AF78600B46FB70FB78002B06D0094B6F
:10068000084A116B7A680A431A6306E0054B054A6B
:10069000116B7A68D2430A401A630C37BD465DF885
:1006A000047B70470038024080B483B000AF7860AC
:1006B0000B46FB70FB78002B06D0094B084A516CA7
:1006C0007A680A435A6406E0054B054A516C7A6819
:1006D000D2430A405A640C37BD465DF8047B70472C
:1006E0000038024080B483B000AF78600B46FB70E6
:1006F000FB78002B06D0094B084A11697A680A4337
:100700001A6106E0054B054A11697A68D2430A402E
:100710001A610C37BD465DF8047B70470038024013
:1007200080B483B000AF78607B68DB6C9BB2184606
:100730000C37BD465DF8047B704700BF80B487B0BE
:1007400000AF7860396000237B6100233B610023A8
:10075000FB6000237B6176E07B69012202FA03F3F0
:100760003B613B681A683B691340FB60FA683B6970
:100770009A4265D17B681A687B695B00032101FAA4
:1007800003F3DB431A407B681A607B681A683B6896
:100790001B7919467B695B0001FA03F31A437B68F6
:1007A0001A603B681B79012B03D03B681B79022B35
:1007B0002ED17B689A687B695B00032101FA03F301
:1007C000DB431A407B689A607B689A683B685B7978
:1007D00019467B695B0001FA03F31A437B689A6050
:1007E0007B685A687B699BB2012101FA03F3DB4302
:1007F0001A407B685A607B685A683B689B79194647
:100800007B699BB201FA03F39BB21A437B685A607F
:100810007B68DA687B699BB25B00032101FA03F312
:10082000DB431A407B68DA607B68DA683B68DB7917
:1008300019467B695B0001FA03F31A437B68DA60AF
:100840007B6901337B617B690F2B85D91C37BD46E2
:100850005DF8047B704700BF80B483B000AF786060
:100860000B467B807B687A881A830C37BD465DF81F
:10087000047B704780B483B000AF78600B467B8008
:100880007B687A885A830C37BD465DF8047B7047D5
:1008900080B485B000AF786013460A467A807B70DA
:1008A0000023FB600023BB607A787B8803F007039A
:1008B0009B0002FA03F3FB607B88DB089BB21A46BD
:1008C0007B88DB089BB219467B68083153F82110FE
:1008D0007B8803F007039B000F2000FA03F3DB4340
:1008E00019407B68083243F822107B88DB089BB2F2
:1008F0001A467B68083253F82220FB681343BB601A
:100900007B88DB089BB21A467B680832B96843F8DB
:1009100022101437BD465DF8047B704780B500AFE8
:10092000114B114A126842F001021A600E4B00226C
:100930009A600D4A0C4B1B6823F0847323F48033B8
:100940001360094B094A5A60074B074A126822F4A0
:1009500080221A60044B0022DA6000F087F8044B12
:100960004FF000629A6080BD0038024010300024D1
:1009700000ED00E080B487B000AF00233B610023AE
:100980007B610223FB600023BB6002237B60324B50
:100990009B6803F00C033B613B69042B07D0082BD9
:1009A00009D0002B3FD12D4B2D4A1A603FE02B4B35
:1009B0002C4A1A603BE0284B5B6803F480039B0DD4
:1009C000BB60254B5B6803F03F037B60BB68002B7B
:1009D0000DD0244A7B68B2FBF3F21F4B596847F6EF
:1009E000C0730B409B0903FB02F37B610CE01C4AC4
:1009F0007B68B2FBF3F2184B596847F6C0730B40A3
:100A00009B0903FB02F37B61134B5B6803F44033E8
:100A10001B0C01335B00FB607A69FB68B2FBF3F2ED
:100A20000E4B1A6003E00D4B0D4A1A6000BF0A4BD3
:100A30009B6803F0F0031B090B4AD35CDBB23B61FC
:100A4000064B1A683B69DA40044B1A601C37BD46F6
:100A50005DF8047B704700BF0038024000000020B2
:100A60000024F40000127A000400002080B483B057
:100A700000AF00237B6000233B60354B344A126893
:100A800042F480321A60324B1B6803F400333B603F
:100A90007B6801337B603B68002B03D17B68B3F537
:100AA000A06FF0D12A4B1B6803F40033002B02D057
:100AB00001233B6001E000233B603B68012B42D1F6
:100AC000234B234A126C42F080521A64214B214A74
:100AD000126842F480421A601D4B1D4A92689A6067
:100AE0001B4B1B4A926842F400429A60184B184A0A
:100AF000926842F4A0529A60154B174A5A60144B00
:100B0000134A126842F080721A6000BF104B1B68D3
:100B100003F00073002BF9D0104B40F205621A600D
:100B20000B4B0B4A926822F003029A60084B084A6A
:100B3000926842F002029A6000BF054B9B6803F086
:100B40000C03082BF9D10C37BD465DF8047B7047C8
:100B5000003802400070004008544007003C02404A
:100B600080B483B000AF78607B681B6823F001021B
:100B70007B681A607B6800221A607B6800225A60DA
:100B80007B6800229A607B680022DA607B68002222
:100B90001A617B6821225A617A68454B9A4203D1D7
:100BA000444B3D229A607EE07A68434B9A4204D1DE
:100BB000404B4FF474629A6075E07A683F4B9A42FA
:100BC00004D13C4B4FF474129A606CE07A683C4B51
:100BD0009A4204D1374B4FF074629A6063E07A68AE
:100BE000384B9A4203D1334B374ADA605BE07A687C
:100BF000364B9A4203D12F4B354ADA6053E07A687C
:100C0000344B9A4203D12B4B334ADA604BE07A687B
:100C1000324B9A4204D1274B4FF03D52DA6042E00A
:100C20007A682F4B9A4203D12E4B3D229A603AE0CC
:100C30007A682D4B9A4204D12A4B4FF474629A6021
:100C400031E07A68294B9A4204D1264B4FF4741252
:100C50009A6028E07A68264B9A4204D1214B4FF0E3
:100C600074629A601FE07A68224B9A4203D11D4B4E
:100C7000154ADA6017E07A681F4B9A4203D1194B84
:100C8000134ADA600FE07A681C4B9A4203D1154B85
:100C9000114ADA6007E07A68194B9A4203D1114B86
:100CA0004FF03D52DA600C37BD465DF8047B70476B
:100CB0001060024000600240286002404060024034
:100CC00058600240706002403D0000208860024091
:100CD000400F0020A060024000003D20B8600240AC
:100CE00010640240006402402864024040640240F4
:100CF000586402407064024088640240A06402406C
:100D0000B864024080B485B000AF786039600023D9
:100D1000FB817B681B88FB817A68284B9A4213D041
:100D20007A68274B9A420FD07B68B3F1804F0BD083
:100D30007A68244B9A4207D07A68234B9A4203D0B0
:100D40007A68224B9A4208D1FB8923F07003FB8119
:100D50003B685A88FB891343FB817A681C4B9A4293
:100D60000CD07A681B4B9A4208D0FB8923F440735D
:100D7000FB813B681A89FB891343FB817B68FA89F5
:100D80001A803B685A687B68DA623B681A887B681D
:100D90001A857A68094B9A4203D07A68084B9A42BE
:100DA00004D13B689B7A1A467B681A867B680122CD
:100DB0009A821437BD465DF8047B704700000140FD
:100DC000000401400004004000080040000C004006
:100DD000001000400014004080B483B000AF786081
:100DE00039607B683A685A620C37BD465DF8047B0F
:100DF000704700BF80B483B000AF78600B46FB70D3
:100E0000FB78002B08D07B681B889BB243F08003E3
:100E10009AB27B681A8007E07B681B889BB223F03C
:100E200080039AB27B681A800C37BD465DF8047B5C
:100E3000704700BF80B483B000AF78600B46FB7092
:100E4000FB78002B08D07B681B889BB243F0010322
:100E50009AB27B681A8007E07B681B889BB223F0FC
:100E600001039AB27B681A800C37BD465DF8047B9B
:100E7000704700BF80B485B000AF78603960002350
:100E80007B810023FB810023BB817B681B8C9BB291
:100E900023F001039AB27B681A847B681B8CFB8168
:100EA0007B689B88BB817B681B8B7B817B8923F064
:100EB00070037B817B8923F003037B813B681A8865
:100EC0007B8913437B81FB8923F00203FB813B6811
:100ED0009A89FB891343FB813B685A88FB8913433A
:100EE000FB817A681E4B9A4203D07A681D4B9A4266
:100EF00023D1FB8923F00803FB813B68DA89FB8956
:100F00001343FB81FB8923F00403FB813B689A8830
:100F1000FB891343FB81BB8923F48073BB81BB89AD
:100F200023F40073BB813B681A8ABB891343BB81DE
:100F30003B685A8ABB891343BB817B68BA899A8014
:100F40007B687A891A833B689A687B685A637B68F6
:100F5000FA891A841437BD465DF8047B704700BFD8
:100F6000000001400004014080B485B000AF78600B
:100F7000396000237B810023FB810023BB817B68D8
:100F80001B8C9BB223F010039AB27B681A847B6897
:100F90001B8CFB817B689B88BB817B681B8B7B8167
:100FA0007B8923F4E0437B817B8923F440737B813D
:100FB0003B681B881B029AB27B8913437B81FB89A8
:100FC00023F02003FB813B689B891B019AB2FB89BC
:100FD0001343FB813B685B881B019AB2FB89134377
:100FE000FB817A68224B9A4203D07A68214B9A425D
:100FF0002BD1FB8923F08003FB813B68DB891B013C
:101000009AB2FB891343FB81FB8923F04003FB81E8
:101010003B689B881B019AB2FB891343FB81BB8908
:1010200023F48063BB81BB8923F40063BB813B68ED
:101030001B8A9B009AB2BB891343BB813B685B8AC6
:101040009B009AB2BB891343BB817B68BA899A80A3
:101050007B687A891A833B689A687B689A637B68A5
:10106000FA891A841437BD465DF8047B704700BFC7
:10107000000001400004014080B485B000AF7860FA
:10108000396000237B810023FB810023BB817B68C7
:101090001B8C9BB223F480739AB27B681A847B68A2
:1010A0001B8CFB817B689B88BB817B689B8B7B81D6
:1010B0007B8923F070037B817B8923F003037B8191
:1010C0003B681A887B8913437B81FB8923F4007377
:1010D000FB813B689B891B029AB2FB891343FB810E
:1010E0003B685B881B029AB2FB891343FB817A68D9
:1010F000224B9A4203D07A68214B9A422BD1FB892A
:1011000023F40063FB813B68DB891B029AB2FB89F5
:101110001343FB81FB8923F48063FB813B689B883D
:101120001B029AB2FB891343FB81BB8923F48053D2
:10113000BB81BB8923F40053BB813B681B8A1B0125
:101140009AB2BB891343BB813B685B8A1B019AB28D
:10115000BB891343BB817B68BA899A807B687A8993
:101160009A833B689A687B68DA637B68FA891A8499
:101170001437BD465DF8047B704700BF0000014096
:101180000004014080B485B000AF7860396000236E
:10119000BB8100237B810023FB817B681B8C9BB27E
:1011A00023F480539AB27B681A847B681B8C7B8102
:1011B0007B689B88FB817B689B8BBB81BB8923F40D
:1011C000E043BB81BB8923F44073BB813B681B8830
:1011D0001B029AB2BB891343BB817B8923F4005362
:1011E0007B813B689B891B039AB27B8913437B817C
:1011F0003B685B881B039AB27B8913437B817A68C7
:10120000114B9A4203D07A68104B9A420AD1FB895B
:1012100023F48043FB813B681B8A9B019AB2FB89C4
:101220001343FB817B68FA899A807B68BA899A8329
:101230003B689A687B681A647B687A891A841437D9
:10124000BD465DF8047B704700000140000401408A
:1012500080B485B000AF78600B467B800023FB81B3
:101260007B681B8BFB81FB8923F00803FB81FA89D8
:101270007B881343FB817B68FA891A831437BD4648
:101280005DF8047B704700BF80B485B000AF786024
:101290000B467B800023FB817B681B8BFB81FB89DA
:1012A00023F40063FB817B881B029AB2FB89134302
:1012B000FB817B68FA891A831437BD465DF8047B8D
:1012C000704700BF80B485B000AF78600B467B806C
:1012D0000023FB817B689B8BFB81FB8923F0080348
:1012E000FB81FA897B881343FB817B68FA899A83A7
:1012F0001437BD465DF8047B704700BF80B485B0ED
:1013000000AF78600B467B800023FB817B689B8B62
:10131000FB81FB8923F40063FB817B881B029AB26B
:10132000FB891343FB817B68FA899A831437BD4696
:101330005DF8047B704700BF80B483B000AF786075
:101340000B46FB70FB78002B0CD07B68B3F8443065
:101350009BB26FEA43436FEA53439AB27B68A3F8A8
:10136000442009E07B68B3F844309BB2C3F30E031A
:101370009AB27B68A3F844200C37BD465DF8047B25
:04138000704700BFF3
:10138400007A030A000000000000000001020304C8
:041394000607080937
:0400000508000000EF
:00000001FF
