:020000040800F2
:100000001808002089010008F5010008F501000822
:10001000F5010008F5010008F501000800000000E6
:10002000000000000000000000000000F5010008D2
:10003000F501000800000000F5010008F5010008C6
:10004000F5010008F5010008F5010008F5010008B8
:10005000F5010008F5010008F5010008F5010008A8
:10006000F5010008F5010008F5010008F501000898
:10007000F5010008F5010008F5010008F501000888
:10008000F5010008F5010008F5010008F501000878
:10009000F5010008F5010008F5010008F501000868
:1000A000F5010008F5010008F5010008F501000858
:1000B000F5010008F5010008F5010008F501000848
:1000C000F5010008F5010008F5010008F501000838
:1000D000F5010008F5010008F5010008F501000828
:1000E000F5010008F5010008F5010008F501000818
:1000F000F5010008F5010008F5010008F501000808
:10010000F5010008F5010008F5010008F5010008F7
:10011000F5010008F5010008F5010008F5010008E7
:10012000F5010008F5010008F5010008F5010008D7
:10013000F5010008F5010008F5010008F5010008C7
:10014000F5010008F5010008F5010008F5010008B7
:10015000F5010008F5010008F5010008F5010008A7
:10016000F5010008F5010008F5010008F501000897
:10017000F5010008F5010008F5010008F501000887
:10018000F5010008F501000880B582B000AF41F22A
:100190004C53C0F600037B6040F20003C2F2000340
:1001A0003B600BE07B681A683B681A603B6803F1B0
:1001B00004033B607B6803F104037B603A6840F210
:1001C0001403C2F200039A42ECD3084808494FF0E6
:1001D00000028842B8BF40F8042BFFF6FAAF00F0E7
:1001E00089F907F10807BD4680BD00001400002012
:1001F0001400002080B400AFFEE700BF80B582B0DD
:1002000000AF4FF010004FF0010100F0B1F94FF4D2
:10021000D4433B604FF002033B714FF00003BB71CE
:100220004FF003037B714FF00003FB713B464FF42B
:100230008050C4F20200194600F052FB4FF4805087
:10024000C4F202004FF009014FF0010200F0EAFB96
:100250004FF48050C4F202004FF00B014FF0010246
:1002600000F0E0FB4FF48050C4F202004FF00D01AB
:100270004FF0010200F0D6FB4FF48050C4F20200B0
:100280004FF00E014FF0010200F0CCFB07F1080720
:10029000BD4680BD80B500AF4FF00000C4F2010044
:1002A0004FF0000100F052FE4FF00000C4F20100D8
:1002B0004FF0010100F078FE80BD00BF80B58AB02C
:1002C00000AF4FF001004FF0010100F07BF94FF05B
:1002D000B9033B834FF000037B8344F62063FB614B
:1002E0004FF000033B844FF0000387F8223007F102
:1002F00018034FF00000C4F20100194600F0ACFDF5
:100300004FF000037B624FF06003BB804FF00103AE
:10031000FB804FF004033B817B6AFB604FF00003DE
:100320003B824FF008037B824FF00003BB824FF00B
:100330000003FB8207F104034FF00000C4F2010048
:10034000194600F051FE4FF00000C4F201004FF0DA
:10035000080101F05BF807F104034FF00000C4F25C
:100360000100194600F0BEFE4FF00000C4F201008B
:100370004FF0080101F066F807F104034FF00000A8
:10038000C4F20100194600F041FF4FF00000C4F232
:1003900001004FF0080101F075F807F104034FF078
:1003A0000000C4F20100194600F0C0FF4FF0000049
:1003B000C4F201004FF0080101F080F84FF0000096
:1003C000C4F201004FF0010100F0CEFD4FF000003B
:1003D000C4F201004FF0010101F090F8FFF75AFF5D
:1003E00007F12807BD4680BD80B582B000AF4FF44D
:1003F00080704FF0010100F0E5F84FF001004FF080
:10040000010100F0B5F84FF01E033B604FF003030D
:100410003B714FF003037B714FF00003BB714FF052
:100420000003FB713B464FF00000C4F20200194686
:1004300000F056FA07F10807BD4680BD80B586B0CA
:1004400000AF4FF001037B714FF000033B614FF0B1
:100450000003FB604FF00003BB604FF004033B75EB
:100460004FF000033B604FF001033B713B464FF4FC
:100470000050C4F20100194600F0CEF84FF40050CD
:10048000C4F201004FF001014FF001024FF00003F0
:1004900000F01EF94FF40050C4F201004FF00201C9
:1004A0004FF002024FF0000300F012F94FF4005039
:1004B000C4F201004FF003014FF003024FF00003BC
:1004C00000F006F94FF40050C4F201004FF00401AF
:1004D0004FF004024FF0000300F0FAF84FF4005020
:1004E000C4F201004FF0010100F0D0F907F1180744
:1004F000BD4680BD80B582B000AF00F0E7FA00F0E5
:100500002FFBFFF77BFEFFF7D9FEFFF76DFFFFF72D
:1005100095FF4FF000037B604FF00003C4F201032E
:1005200040F282625A634FF00003C4F2010340F2CA
:1005300082629A634FF00003C4F2010340F28262C8
:10054000DA634FF00003C4F2010340F282621A64DE
:100550004FF40050C4F2010000F0B4F903467B6090
:100560004FF00003C4F201037A685A63F0E700BF5A
:1005700080B483B000AF78600B46FB70FB78002B33
:100580000CD04FF46053C4F202034FF46052C4F233
:100590000202116B7A680A431A630DE04FF460534C
:1005A000C4F202034FF46052C4F20202116B7A6883
:1005B0006FEA02020A401A6307F10C07BD4680BCCD
:1005C000704700BF80B483B000AF78600B46FB700B
:1005D000FB78002B0CD04FF46053C4F202034FF4AD
:1005E0006052C4F20202516C7A680A435A640DE008
:1005F0004FF46053C4F202034FF46052C4F202029B
:10060000516C7A686FEA02020A405A6407F10C07DB
:10061000BD4680BC704700BF80B485B000AF786035
:1006200039604FF00003FB604FF00003FB727B6802
:100630005B68FB60FB6823F0407323F48073FB600E
:100640003B681B794FEA03223B681B681343FA6837
:100650001343FB607B68FA685A607B689B68FB60A9
:10066000FA684FF2FD73CCF2FF031340FB603B6866
:100670001A693B68DB681A433B689B681A433B680E
:100680005B794FEA43031343FA681343FB607B68CB
:10069000FA689A607B68DB6AFB60FB6823F470038E
:1006A000FB603B681B7D03F1FF33DAB2FB7A134337
:1006B000FB72FB7A4FEA0353FA681343FB607B68D3
:1006C000FA68DA6207F11407BD4680BC704700BFC4
:1006D00080B485B000AF7860F970BA707B704FF06D
:1006E0000003FB604FF00003BB60FB78092B27D9A8
:1006F0007B68DB68FB60FA7813464FEA43039B187C
:10070000A3F11E034FF0070202FA03F3BB60BB68BC
:100710006FEA0303FA681340FB607978FA781346AE
:100720004FEA43039B18A3F11E0301FA03F3BB60D6
:10073000FA68BB681343FB607B68FA68DA6022E002
:100740007B681B69FB60FA7813464FEA43039B18EA
:100750004FF0070202FA03F3BB60BB686FEA0303C2
:10076000FA681340FB607978FA7813464FEA43033E
:100770009B1801FA03F3BB60FA68BB681343FB6084
:100780007B68FA681A61BB78062B27D87B685B6B9D
:10079000FB60BB7803F1FF3213464FEA83039B18DB
:1007A0004FF01F0202FA03F3BB60BB686FEA03035A
:1007B000FA681340FB60F978BB7803F1FF32134607
:1007C0004FEA83039B1801FA03F3BB60FA68BB6826
:1007D0001343FB607B68FA685A6351E0BB780C2BCB
:1007E00027D87B681B6BFB60BA7813464FEA8303FC
:1007F0009B18A3F123034FF01F0202FA03F3BB601F
:10080000BB686FEA0303FA681340FB60F978BA78B3
:1008100013464FEA83039B18A3F1230301FA03F362
:10082000BB60FA68BB681343FB607B68FA681A63B5
:1008300026E07B68DB6AFB60BA7813464FEA8303E5
:100840009B18A3F141034FF01F0202FA03F3BB60B0
:10085000BB686FEA0303FA681340FB60F978BA7863
:1008600013464FEA83039B18A3F1410301FA03F3F4
:10087000BB60FA68BB681343FB607B68FA68DA62A6
:1008800007F11407BD4680BC704700BF80B483B039
:1008900000AF78600B46FB70FB78002B06D07B68BE
:1008A0009B6843F002027B689A6005E07B689B6866
:1008B00023F002027B689A6007F10C07BD4680BCFA
:1008C000704700BF80B483B000AF78607B68DB6C9A
:1008D0009BB2184607F10C07BD4680BC704700BFAD
:1008E00080B487B000AF786039604FF000037B615F
:1008F0004FF000033B614FF00003FB604FF000033B
:100900007B6186E07B694FF0010202FA03F33B61F1
:100910003B681A683B691340FB60FA683B699A427E
:1009200073D17B681A687B694FEA43034FF0030178
:1009300001FA03F36FEA03031A407B681A607B68CD
:100940001A683B681B7919467B694FEA430301FA31
:1009500003F31A437B681A603B681B79012B03D0B1
:100960003B681B79022B34D17B689A687B694FEA1C
:1009700043034FF0030101FA03F36FEA03031A4044
:100980007B689A607B689A683B685B7919467B69EB
:100990004FEA430301FA03F31A437B689A607B68CA
:1009A0005A687B699BB24FF0010101FA03F36FEAC9
:1009B00003031A407B685A607B685A683B689B79DE
:1009C00019467B699BB201FA03F39BB21A437B6819
:1009D0005A607B68DA687B699BB24FEA43034FF049
:1009E000030101FA03F36FEA03031A407B68DA603C
:1009F0007B68DA683B68DB7919467B694FEA430319
:100A000001FA03F31A437B68DA607B6903F101039F
:100A10007B617B690F2B7FF675AF07F11C07BD4625
:100A200080BC704780B485B000AF786013460A463A
:100A30007A807B704FF00003FB604FF00003BB60D7
:100A40007A787B8803F007034FEA830302FA03F303
:100A5000FB607B884FEAD3039BB21A467B884FEA40
:100A6000D3039BB219467B6801F1080153F82110AA
:100A70007B8803F007034FEA83034FF00F0000FA6F
:100A800003F36FEA030319407B6802F1080243F89D
:100A900022107B884FEAD3039BB21A467B6802F18F
:100AA000080253F82220FB681343BB607B884FEA9F
:100AB000D3039BB21A467B6802F10802B96843F877
:100AC000221007F11407BD4680BC704780B500AF07
:100AD0004FF46053C4F202034FF46052C4F20202B6
:100AE000126842F001021A604FF46053C4F202032C
:100AF0004FF000029A604FF46053C4F202034FF4C7
:100B00006052C4F20202126822F0847222F480322F
:100B10001A604FF46053C4F2020343F21002C2F2AF
:100B200000425A604FF46053C4F202034FF4605223
:100B3000C4F20202126822F480221A604FF4605359
:100B4000C4F202034FF00002DA6000F0C1F84FF483
:100B50006D43CEF200034FF000629A6080BD00BF8B
:100B600080B487B000AF4FF000033B614FF000034B
:100B70007B614FF00203FB604FF00003BB604FF05E
:100B800002037B604FF46053C4F202039B6803F0DE
:100B90000C033B613B69042B0DD0082B15D0002BB7
:100BA00069D140F20003C2F200034FF41052C0F2C8
:100BB000F4021A6069E040F20003C2F200034FF44D
:100BC0009052C0F27A021A605FE04FF46053C4F2B0
:100BD00002035B6803F480034FEA9353BB604FF456
:100BE0006053C4F202035B6803F03F037B60BB68A1
:100BF000002B14D04FF49053C0F27A037A68B3FB01
:100C0000F2F24FF46053C4F20203596847F6C0731E
:100C10000B404FEA931303FB02F37B6113E04FF4A5
:100C20001053C0F2F4037A68B3FBF2F24FF460534E
:100C3000C4F20203596847F6C0730B404FEA93139E
:100C400003FB02F37B614FF46053C4F202035B6861
:100C500003F440334FEA134303F101034FEA430324
:100C6000FB607A69FB68B2FBF3F240F20003C2F268
:100C700000031A6009E040F20003C2F200034FF4DF
:100C80001052C0F2F4021A6000BF4FF46053C4F275
:100C900002039B6803F0F0034FEA131240F20403CF
:100CA000C2F200039B5CDBB23B6140F20003C2F284
:100CB00000031A683B6922FA03F240F20003C2F211
:100CC00000031A6007F11C07BD4680BC704700BFD7
:100CD00080B483B000AF4FF000037B604FF000039F
:100CE0003B604FF46053C4F202034FF46052C4F20D
:100CF0000202126842F480321A604FF46053C4F268
:100D000002031B6803F400333B607B6803F10103BB
:100D10007B603B68002B03D17B68B3F5A06FECD1FF
:100D20004FF46053C4F202031B6803F40033002B3A
:100D300003D04FF001033B6002E04FF000033B6043
:100D40003B68012B40F082804FF46053C4F20203F1
:100D50004FF46052C4F20202126C42F080521A64E4
:100D60004FF4E043C4F200034FF4E042C4F2000247
:100D7000126842F480421A604FF46053C4F20203D6
:100D80004FF46052C4F2020292689A604FF46053CA
:100D9000C4F202034FF46052C4F20202926842F4B9
:100DA00000429A604FF46053C4F202034FF4605261
:100DB000C4F20202926842F4A0529A604FF4605367
:100DC000C4F2020345F20842C0F240725A604FF486
:100DD0006053C4F202034FF46052C4F2020212687C
:100DE00042F080721A6000BF4FF46053C4F20203F5
:100DF0001B6803F00073002BF6D04FF47053C4F25D
:100E0000020340F205621A604FF46053C4F2020319
:100E10004FF46052C4F20202926822F003029A6018
:100E20004FF46053C4F202034FF46052C4F2020262
:100E3000926842F002029A6000BF4FF46053C4F21D
:100E400002039B6803F00C03082BF6D107F10C0793
:100E5000BD4680BC704700BF80B485B000AF7860ED
:100E600039604FF00003FB817B681B88FB817A6847
:100E70004FF00003C4F201039A421FD07A684FF486
:100E80008063C4F201039A4218D07B68B3F1804FAB
:100E900014D07A684FF48063C4F200039A420DD0F4
:100EA0007A684FF40063C4F200039A4206D07A686D
:100EB0004FF44063C4F200039A4208D1FB8923F047
:100EC0007003FB813B685A88FB891343FB817A6876
:100ED0004FF48053C4F200039A420FD07A684FF463
:100EE000A053C4F200039A4208D0FB8923F4407354
:100EF000FB813B681A89FB891343FB817B68FA8974
:100F00001A803B685A687B68DA623B681A887B689B
:100F10001A857A684FF00003C4F201039A4206D0A2
:100F20007A684FF48063C4F201039A4204D13B68AB
:100F30009B7A1A467B681A867B684FF001029A8278
:100F400007F11407BD4680BC704700BF80B483B072
:100F500000AF786039607B683A685A6207F10C0725
:100F6000BD4680BC704700BF80B483B000AF7860DE
:100F70000B46FB70FB78002B08D07B681B889BB26C
:100F800043F080039AB27B681A8007E07B681B8875
:100F90009BB223F080039AB27B681A8007F10C079A
:100FA000BD4680BC704700BF80B483B000AF78609E
:100FB0000B46FB70FB78002B08D07B681B889BB22C
:100FC00043F001039AB27B681A8007E07B681B88B4
:100FD0009BB223F001039AB27B681A8007F10C07D9
:100FE000BD4680BC704700BF80B485B000AF78605C
:100FF00039604FF000037B814FF00003FB814FF01D
:101000000003BB817B681B8C9BB223F001039AB267
:101010007B681A847B681B8CFB817B689B88BB8107
:101020007B681B8B7B817B8923F070037B817B89B1
:1010300023F003037B813B681A887B8913437B8100
:10104000FB8923F00203FB813B689A89FB891343E8
:10105000FB813B685A88FB891343FB817A684FF018
:101060000003C4F201039A4206D07A684FF4806309
:10107000C4F201039A4223D1FB8923F00803FB81C8
:101080003B68DA89FB891343FB81FB8923F0040366
:10109000FB813B689A88FB891343FB81BB8923F45E
:1010A0008073BB81BB8923F40073BB813B681A8AC0
:1010B000BB891343BB813B685A8ABB891343BB81FD
:1010C0007B68BA899A807B687A891A833B689A68B8
:1010D0007B685A637B68FA891A8407F11407BD4656
:1010E00080BC704780B485B000AF786039604FF045
:1010F00000037B814FF00003FB814FF00003BB81B5
:101100007B681B8C9BB223F010039AB27B681A8415
:101110007B681B8CFB817B689B88BB817B681B8BFE
:101120007B817B8923F4E0437B817B8923F44073BB
:101130007B813B681B884FEA03239AB27B89134368
:101140007B81FB8923F02003FB813B689B894FEA6D
:1011500003139AB2FB891343FB813B685B884FEA18
:1011600003139AB2FB891343FB817A684FF00003A3
:10117000C4F201039A4206D07A684FF48063C4F245
:1011800001039A422FD1FB8923F08003FB813B6846
:10119000DB894FEA03139AB2FB891343FB81FB8976
:1011A00023F04003FB813B689B884FEA03139AB20C
:1011B000FB891343FB81BB8923F48063BB81BB891B
:1011C00023F40063BB813B681B8A4FEA83039AB216
:1011D000BB891343BB813B685B8A4FEA83039AB2A6
:1011E000BB891343BB817B68BA899A807B687A8903
:1011F0001A833B689A687B689A637B68FA891A84C9
:1012000007F11407BD4680BC704700BF80B485B0AD
:1012100000AF786039604FF000037B814FF000032E
:10122000FB814FF00003BB817B681B8C9BB223F4D6
:1012300080739AB27B681A847B681B8CFB817B6805
:101240009B88BB817B689B8B7B817B8923F07003B0
:101250007B817B8923F003037B813B681A887B8930
:1012600013437B81FB8923F40073FB813B689B89DB
:101270004FEA03239AB2FB891343FB813B685B88E7
:101280004FEA03239AB2FB891343FB817A684FF03C
:101290000003C4F201039A4206D07A684FF48063D7
:1012A000C4F201039A422FD1FB8923F40063FB812E
:1012B0003B68DB894FEA03239AB2FB891343FB8126
:1012C000FB8923F48063FB813B689B884FEA0323FF
:1012D0009AB2FB891343FB81BB8923F48053BB8102
:1012E000BB8923F40053BB813B681B8A4FEA03137D
:1012F0009AB2BB891343BB813B685B8A4FEA0313F5
:101300009AB2BB891343BB817B68BA899A807B6898
:101310007A899A833B689A687B68DA637B68FA8982
:101320001A8407F11407BD4680BC704780B485B0AD
:1013300000AF786039604FF00003BB814FF00003CD
:101340007B814FF00003FB817B681B8C9BB223F4F5
:1013500080539AB27B681A847B681B8C7B817B6884
:101360009B88FB817B689B8BBB81BB8923F4E0431B
:10137000BB81BB8923F44073BB813B681B884FEA68
:1013800003239AB2BB891343BB817B8923F40053A7
:101390007B813B689B894FEA03339AB27B89134375
:1013A0007B813B685B884FEA03339AB27B891343A6
:1013B0007B817A684FF00003C4F201039A4206D0A1
:1013C0007A684FF48063C4F201039A420BD1FB891F
:1013D00023F48043FB813B681B8A4FEA83139AB254
:1013E000FB891343FB817B68FA899A807B68BA8901
:1013F0009A833B689A687B681A647B687A891A8446
:1014000007F11407BD4680BC704700BF80B485B0AB
:1014100000AF78600B467B804FF00003FB817B6858
:101420001B8BFB81FB8923F00803FB81FA897B88F6
:101430001343FB817B68FA891A8307F11407BD46C1
:1014400080BC704780B485B000AF78600B467B806D
:101450004FF00003FB817B681B8BFB81FB8923F42E
:101460000063FB817B884FEA03239AB2FB89134315
:10147000FB817B68FA891A8307F11407BD4680BC9B
:10148000704700BF80B485B000AF78600B467B80AA
:101490004FF00003FB817B689B8BFB81FB8923F072
:1014A0000803FB81FA897B881343FB817B68FA89F7
:1014B0009A8307F11407BD4680BC704780B485B09D
:1014C00000AF78600B467B804FF00003FB817B68A8
:1014D0009B8BFB81FB8923F40063FB817B884FEAB4
:1014E00003239AB2FB891343FB817B68FA899A83B1
:1014F00007F11407BD4680BC704700BF80B483B0BD
:1015000000AF78600B46FB70FB78002B0CD07B683B
:10151000B3F844309BB26FEA43436FEA53439AB245
:101520007B68A3F844200BE07B68B3F844309BB29F
:101530004FEA43434FEA53439AB27B68A3F84420EF
:0C15400007F10C07BD4680BC704700BFDF
:10154C00007A030A000000000000000001020304FE
:04155C00060708096D
:0400000508000000EF
:00000001FF
