:020000040800F2
:100000001808002089010008E9010008E90100083A
:10001000E9010008E9010008E9010008000000000A
:10002000000000000000000000000000E9010008DE
:10003000E901000800000000E9010008E9010008EA
:10004000E9010008E9010008E9010008E9010008E8
:10005000E9010008E9010008E9010008E9010008D8
:10006000E9010008E9010008E9010008E9010008C8
:10007000E9010008E9010008E9010008E9010008B8
:10008000E9010008E9010008E9010008E9010008A8
:10009000E9010008E9010008E9010008E901000898
:1000A000E9010008E9010008E9010008E901000888
:1000B000E9010008E9010008E9010008E901000878
:1000C000E9010008E9010008E9010008E901000868
:1000D000E9010008E9010008E9010008E901000858
:1000E000E9010008E9010008E9010008E901000848
:1000F000E9010008E9010008E9010008E901000838
:10010000E9010008E9010008E9010008E901000827
:10011000E9010008E9010008E9010008E901000817
:10012000E9010008E9010008E9010008E901000807
:10013000E9010008E9010008E9010008E9010008F7
:10014000E9010008E9010008E9010008E9010008E7
:10015000E9010008E9010008E9010008E9010008D7
:10016000E9010008E9010008E9010008E9010008C7
:10017000E9010008E9010008E9010008E9010008B7
:10018000E9010008E901000880B582B000AF114B19
:100190007B60114B3B6007E03B681A1D3A607A6850
:1001A000111D796012681A603A680C4B9A42F3D3B9
:1001B0000B480C494FF000028842B8BF40F8042BAE
:1001C000FFF6FAAF00F01CF800F012F80837BD4651
:1001D00080BD00BFF40300080000002014000020D0
:1001E000140000201400002080B400AFFEE700BF20
:1001F00080B500AF00F004F800F02EF8FEE700BF75
:1002000080B500AF114B114A126842F001021A602A
:100210000E4B00229A600D4A0C4B1B6823F084732E
:1002200023F480331360094B094A5A60074B074A8D
:10023000126822F480221A60044B0022DA6000F077
:1002400087F8044B4FF000629A6080BD003802408E
:100250001030002400ED00E080B487B000AF002330
:100260003B6100237B610223FB600023BB60022310
:100270007B60324B9B6803F00C033B613B69042BB2
:1002800007D0082B09D0002B3FD12D4B2D4A1A60E7
:100290003FE02B4B2C4A1A603BE0284B5B6803F491
:1002A00080039B0DBB60254B5B6803F03F037B60C5
:1002B000BB68002B0DD0244A7B68B2FBF3F21F4BC6
:1002C000596847F6C0730B409B0903FB02F37B613F
:1002D0000CE01C4A7B68B2FBF3F2184B596847F6F6
:1002E000C0730B409B0903FB02F37B61134B5B68FC
:1002F00003F440331B0C01335B00FB607A69FB683D
:10030000B2FBF3F20E4B1A6003E00D4B0D4A1A607C
:1003100000BF0A4B9B6803F0F0031B090B4AD35C38
:10032000DBB23B61064B1A683B69DA40044B1A604A
:100330001C37BD465DF8047B704700BF00380240A3
:10034000000000200024F40000127A0004000020C5
:1003500080B400AF234B234A126C42F080521A64DF
:10036000214B214A126842F480421A601D4B1D4AFB
:1003700092689A601B4B1B4A926842F400429A6052
:10038000184B184A926842F4A0529A60154B174ACB
:100390005A60144B134A126842F080721A6000BF10
:1003A000104B1B6803F00073002BF9D0104B40F288
:1003B00005621A600B4B0B4A926822F003029A60A6
:1003C000084B084A926842F002029A6000BF054B4F
:1003D0009B6803F00C03082BF9D1BD465DF8047B44
:1003E000704700BF00380240007000401054000702
:0403F000003C02408B
:1003F400007A030A00000000000000000102030468
:0404040006070809D6
:0400000508000000EF
:00000001FF
